{
  "contracts/deps/BadgerRegistry.sol": {
    "BadgerRegistry": {
      "abi": [
        {
          "anonymous": false,
          "inputs": [
            {
              "indexed": false,
              "internalType": "string",
              "name": "key",
              "type": "string"
            }
          ],
          "name": "AddKey",
          "type": "event"
        },
        {
          "anonymous": false,
          "inputs": [
            {
              "indexed": false,
              "internalType": "string",
              "name": "version",
              "type": "string"
            }
          ],
          "name": "AddVersion",
          "type": "event"
        },
        {
          "anonymous": false,
          "inputs": [
            {
              "indexed": false,
              "internalType": "address",
              "name": "author",
              "type": "address"
            },
            {
              "indexed": false,
              "internalType": "string",
              "name": "version",
              "type": "string"
            },
            {
              "indexed": false,
              "internalType": "address",
              "name": "vault",
              "type": "address"
            },
            {
              "indexed": false,
              "internalType": "enum BadgerRegistry.VaultStatus",
              "name": "status",
              "type": "uint8"
            }
          ],
          "name": "DemoteVault",
          "type": "event"
        },
        {
          "anonymous": false,
          "inputs": [
            {
              "indexed": false,
              "internalType": "address",
              "name": "author",
              "type": "address"
            },
            {
              "indexed": false,
              "internalType": "string",
              "name": "version",
              "type": "string"
            },
            {
              "indexed": false,
              "internalType": "address",
              "name": "vault",
              "type": "address"
            }
          ],
          "name": "NewVault",
          "type": "event"
        },
        {
          "anonymous": false,
          "inputs": [
            {
              "indexed": false,
              "internalType": "address",
              "name": "author",
              "type": "address"
            },
            {
              "indexed": false,
              "internalType": "string",
              "name": "version",
              "type": "string"
            },
            {
              "indexed": false,
              "internalType": "address",
              "name": "vault",
              "type": "address"
            },
            {
              "indexed": false,
              "internalType": "enum BadgerRegistry.VaultStatus",
              "name": "status",
              "type": "uint8"
            }
          ],
          "name": "PromoteVault",
          "type": "event"
        },
        {
          "anonymous": false,
          "inputs": [
            {
              "indexed": false,
              "internalType": "address",
              "name": "author",
              "type": "address"
            },
            {
              "indexed": false,
              "internalType": "string",
              "name": "version",
              "type": "string"
            },
            {
              "indexed": false,
              "internalType": "address",
              "name": "vault",
              "type": "address"
            }
          ],
          "name": "RemoveVault",
          "type": "event"
        },
        {
          "anonymous": false,
          "inputs": [
            {
              "indexed": false,
              "internalType": "string",
              "name": "key",
              "type": "string"
            },
            {
              "indexed": false,
              "internalType": "address",
              "name": "at",
              "type": "address"
            }
          ],
          "name": "Set",
          "type": "event"
        },
        {
          "inputs": [
            {
              "internalType": "string",
              "name": "version",
              "type": "string"
            },
            {
              "internalType": "address",
              "name": "vault",
              "type": "address"
            }
          ],
          "name": "add",
          "outputs": [],
          "stateMutability": "nonpayable",
          "type": "function"
        },
        {
          "inputs": [
            {
              "internalType": "string",
              "name": "version",
              "type": "string"
            }
          ],
          "name": "addVersions",
          "outputs": [],
          "stateMutability": "nonpayable",
          "type": "function"
        },
        {
          "inputs": [
            {
              "internalType": "string",
              "name": "",
              "type": "string"
            }
          ],
          "name": "addresses",
          "outputs": [
            {
              "internalType": "address",
              "name": "",
              "type": "address"
            }
          ],
          "stateMutability": "view",
          "type": "function"
        },
        {
          "inputs": [
            {
              "internalType": "string",
              "name": "version",
              "type": "string"
            },
            {
              "internalType": "address",
              "name": "vault",
              "type": "address"
            },
            {
              "internalType": "enum BadgerRegistry.VaultStatus",
              "name": "status",
              "type": "uint8"
            }
          ],
          "name": "demote",
          "outputs": [],
          "stateMutability": "nonpayable",
          "type": "function"
        },
        {
          "inputs": [],
          "name": "devGovernance",
          "outputs": [
            {
              "internalType": "address",
              "name": "",
              "type": "address"
            }
          ],
          "stateMutability": "view",
          "type": "function"
        },
        {
          "inputs": [
            {
              "internalType": "string",
              "name": "key",
              "type": "string"
            }
          ],
          "name": "get",
          "outputs": [
            {
              "internalType": "address",
              "name": "",
              "type": "address"
            }
          ],
          "stateMutability": "view",
          "type": "function"
        },
        {
          "inputs": [
            {
              "internalType": "string",
              "name": "version",
              "type": "string"
            },
            {
              "internalType": "enum BadgerRegistry.VaultStatus",
              "name": "status",
              "type": "uint8"
            }
          ],
          "name": "getFilteredProductionVaults",
          "outputs": [
            {
              "internalType": "address[]",
              "name": "",
              "type": "address[]"
            }
          ],
          "stateMutability": "view",
          "type": "function"
        },
        {
          "inputs": [],
          "name": "getProductionVaults",
          "outputs": [
            {
              "components": [
                {
                  "internalType": "string",
                  "name": "version",
                  "type": "string"
                },
                {
                  "internalType": "enum BadgerRegistry.VaultStatus",
                  "name": "status",
                  "type": "uint8"
                },
                {
                  "internalType": "address[]",
                  "name": "list",
                  "type": "address[]"
                }
              ],
              "internalType": "struct BadgerRegistry.VaultData[]",
              "name": "",
              "type": "tuple[]"
            }
          ],
          "stateMutability": "view",
          "type": "function"
        },
        {
          "inputs": [
            {
              "internalType": "string",
              "name": "version",
              "type": "string"
            },
            {
              "internalType": "address",
              "name": "author",
              "type": "address"
            }
          ],
          "name": "getVaults",
          "outputs": [
            {
              "internalType": "address[]",
              "name": "",
              "type": "address[]"
            }
          ],
          "stateMutability": "view",
          "type": "function"
        },
        {
          "inputs": [],
          "name": "governance",
          "outputs": [
            {
              "internalType": "address",
              "name": "",
              "type": "address"
            }
          ],
          "stateMutability": "view",
          "type": "function"
        },
        {
          "inputs": [
            {
              "internalType": "address",
              "name": "newGovernance",
              "type": "address"
            }
          ],
          "name": "initialize",
          "outputs": [],
          "stateMutability": "nonpayable",
          "type": "function"
        },
        {
          "inputs": [
            {
              "internalType": "uint256",
              "name": "",
              "type": "uint256"
            }
          ],
          "name": "keys",
          "outputs": [
            {
              "internalType": "string",
              "name": "",
              "type": "string"
            }
          ],
          "stateMutability": "view",
          "type": "function"
        },
        {
          "inputs": [
            {
              "internalType": "string",
              "name": "version",
              "type": "string"
            },
            {
              "internalType": "address",
              "name": "vault",
              "type": "address"
            },
            {
              "internalType": "enum BadgerRegistry.VaultStatus",
              "name": "status",
              "type": "uint8"
            }
          ],
          "name": "promote",
          "outputs": [],
          "stateMutability": "nonpayable",
          "type": "function"
        },
        {
          "inputs": [
            {
              "internalType": "string",
              "name": "version",
              "type": "string"
            },
            {
              "internalType": "address",
              "name": "vault",
              "type": "address"
            }
          ],
          "name": "remove",
          "outputs": [],
          "stateMutability": "nonpayable",
          "type": "function"
        },
        {
          "inputs": [
            {
              "internalType": "string",
              "name": "key",
              "type": "string"
            },
            {
              "internalType": "address",
              "name": "at",
              "type": "address"
            }
          ],
          "name": "set",
          "outputs": [],
          "stateMutability": "nonpayable",
          "type": "function"
        },
        {
          "inputs": [
            {
              "internalType": "address",
              "name": "newDev",
              "type": "address"
            }
          ],
          "name": "setDev",
          "outputs": [],
          "stateMutability": "nonpayable",
          "type": "function"
        },
        {
          "inputs": [
            {
              "internalType": "address",
              "name": "_newGov",
              "type": "address"
            }
          ],
          "name": "setGovernance",
          "outputs": [],
          "stateMutability": "nonpayable",
          "type": "function"
        },
        {
          "inputs": [
            {
              "internalType": "uint256",
              "name": "",
              "type": "uint256"
            }
          ],
          "name": "versions",
          "outputs": [
            {
              "internalType": "string",
              "name": "",
              "type": "string"
            }
          ],
          "stateMutability": "view",
          "type": "function"
        }
      ],
      "evm": {
        "bytecode": {
          "linkReferences": {},
          "object": "608060405234801561001057600080fd5b506117e5806100206000396000f3fe608060405234801561001057600080fd5b50600436106101165760003560e01c8063995d6d5f116100a2578063bdfe7d4711610071578063bdfe7d471461023b578063c4d66de81461024e578063d477f05f14610261578063df06063814610274578063e9af84a31461027c57610116565b8063995d6d5f146101ef578063a815ff1514610202578063ab033ea914610215578063b2108bba1461022857610116565b80633996ae41116100e95780633996ae411461018c5780635aa6e675146101a1578063693ec85e146101b657806387aee00e146101c95780639039997d146101dc57610116565b80630cb6aaf11461011b57806328bb2117146101445780632bffc7ed1461015957806332d734ca1461016c575b600080fd5b61012e610129366004611444565b61028f565b60405161013b91906116d5565b60405180910390f35b61015761015236600461133a565b610335565b005b61015761016736600461133a565b6103b6565b61017f61017a3660046113f4565b610429565b60405161013b91906115f1565b61019461055b565b60405161013b919061163e565b6101a96107fe565b60405161013b9190611563565b6101a96101c43660046112ff565b61080d565b61012e6101d7366004611444565b61083f565b6101576101ea3660046112ff565b61084c565b6101576101fd366004611387565b6108fd565b61015761021036600461133a565b6109fb565b6101576102233660046112e4565b610aaa565b61017f61023636600461133a565b610af6565b6101a96102493660046112ff565b610bf8565b61015761025c3660046112e4565b610c1e565b61015761026f3660046112e4565b610d0f565b6101a9610d70565b61015761028a366004611387565b610d7f565b6005818154811061029c57fe5b600091825260209182902001805460408051601f600260001961010060018716150201909416939093049283018590048502810185019091528181529350909183018282801561032d5780601f106103025761010080835404028352916020019161032d565b820191906000526020600020905b81548152906001019060200180831161031057829003601f168201915b505050505081565b33600090815260026020526040808220905161036d918491610358908790611547565b90815260405190819003602001902090610f0c565b905080156103b1577fa9979f0fffe2ed5b166cc5c7985bdba1d48e29f8fe235009d150609b10d55d353384846040516103a893929190611577565b60405180910390a15b505050565b3360009081526002602052604080822090516103ee9184916103d9908790611547565b90815260405190819003602001902090610f28565b905080156103b1577fd8e508729ff9830b43ef839ead95019f779b9b8ea6e4d30055512fb4ae5819593384846040516103a893929190611577565b6060600061047a6004856040516104409190611547565b9081526020016040518091039020600085600281111561045c57fe5b600281111561046757fe5b8152602001908152602001600020610f3d565b905060608167ffffffffffffffff8111801561049557600080fd5b506040519080825280602002602001820160405280156104bf578160200160208202803683370190505b50905060005b8281101561055057610524816004886040516104e19190611547565b908152602001604051809103902060008860028111156104fd57fe5b600281111561050857fe5b8152602001908152602001600020610f4890919063ffffffff16565b82828151811061053057fe5b6001600160a01b03909216602092830291909101909101526001016104c5565b509150505b92915050565b600654606090816003820267ffffffffffffffff8111801561057c57600080fd5b506040519080825280602002602001820160405280156105b657816020015b6105a361119d565b81526020019060019003908161059b5790505b50905060005b828110156107f75760005b60038110156107ee5760006106226004600685815481106105e457fe5b906000526020600020016040516105fb919061153b565b9081526020016040518091039020600084600281111561061757fe5b600281111561045c57fe5b905060608167ffffffffffffffff8111801561063d57600080fd5b50604051908082528060200260200182016040528015610667578160200160208202803683370190505b50905060005b828110156106f2576106c68160046006888154811061068857fe5b9060005260206000200160405161069f919061153b565b908152602001604051809103902060008760028111156106bb57fe5b60028111156104fd57fe5b8282815181106106d257fe5b6001600160a01b039092166020928302919091019091015260010161066d565b5060405180606001604052806006868154811061070b57fe5b600091825260209182902001805460408051601f60026000196101006001871615020190941693909304928301859004850281018501909152818152928301828280156107995780601f1061076e57610100808354040283529160200191610799565b820191906000526020600020905b81548152906001019060200180831161077c57829003601f168201915b505050505081526020018460028111156107af57fe5b60028111156107ba57fe5b815260200182815250858460020260018903870201815181106107d957fe5b602090810291909101015250506001016105c7565b506001016105bc565b5091505090565b6000546001600160a01b031681565b600060038260405161081f9190611547565b908152604051908190036020019020546001600160a01b03169050919050565b6006818154811061029c57fe5b6000546001600160a01b0316331461087f5760405162461bcd60e51b815260040161087690611754565b60405180910390fd5b6006805460018101825560009190915281516108c2917ff652222313e28459528d920b65115c16c04f3efc82aaedc97be59f3f377c0d3f019060208401906111bc565b507f59ae058b814fd9ef4fc477fc77469013fe420011c8b4a21fdc165dee6d14a465816040516108f291906116d5565b60405180910390a150565b6000546001600160a01b031633148061092057506001546001600160a01b031633145b61093c5760405162461bcd60e51b815260040161087690611754565b60015481906001600160a01b0316331415610955575060005b60006109ae8460048760405161096b9190611547565b9081526020016040518091039020600085600281111561098757fe5b600281111561099257fe5b8152602001908152602001600020610f0c90919063ffffffff16565b905080156109f4577f449b9aaa83a653b50e09cae65213d4967d32a789c3ebcf2e4d30629fabf920b7338686866040516109eb94939291906115ac565b60405180910390a15b5050505050565b6000546001600160a01b03163314610a255760405162461bcd60e51b815260040161087690611754565b610a2e82610f54565b80600383604051610a3f9190611547565b90815260405190819003602001812080546001600160a01b03939093166001600160a01b0319909316929092179091557f496595ced95720268cf8bc60bae3f35024ff2a130f73ac4e20f5c1eaca35db9990610a9e90849084906116e8565b60405180910390a15050565b6000546001600160a01b03163314610ad45760405162461bcd60e51b815260040161087690611754565b600080546001600160a01b0319166001600160a01b0392909216919091179055565b6001600160a01b038116600090815260026020526040808220905160609291610b3791610b24908790611547565b9081526020016040518091039020610f3d565b905060608167ffffffffffffffff81118015610b5257600080fd5b50604051908082528060200260200182016040528015610b7c578160200160208202803683370190505b50905060005b82811015610550576001600160a01b038516600090815260026020526040908190209051610bcc918391610bb7908a90611547565b90815260405190819003602001902090610f48565b828281518110610bd857fe5b6001600160a01b0390921660209283029190910190910152600101610b82565b80516020818301810180516003825292820191909301209152546001600160a01b031681565b6000546001600160a01b031615610c3457600080fd5b600080546001600160a01b03199081166001600160a01b03841617825560018054909116815560068054918201815590915260408051808201909152600280825261763160f01b6020909201918252610cb0927ff652222313e28459528d920b65115c16c04f3efc82aaedc97be59f3f377c0d3f0191906111bc565b5060068054600181018255600091909152604080518082019091526002808252613b1960f11b6020909201918252610d0b927ff652222313e28459528d920b65115c16c04f3efc82aaedc97be59f3f377c0d3f0191906111bc565b5050565b6000546001600160a01b0316331480610d3257506001546001600160a01b031633145b610d4e5760405162461bcd60e51b815260040161087690611754565b600180546001600160a01b0319166001600160a01b0392909216919091179055565b6001546001600160a01b031681565b6000546001600160a01b0316331480610da257506001546001600160a01b031633145b610dbe5760405162461bcd60e51b815260040161087690611754565b60015481906001600160a01b0316331415610dd7575060005b6000610e3084600487604051610ded9190611547565b90815260200160405180910390206000856002811115610e0957fe5b6002811115610e1457fe5b8152602001908152602001600020610f2890919063ffffffff16565b905080156109f457816002811115610e4457fe5b60021415610ead57610e7e84600487604051610e609190611547565b9081526040519081900360200190206000805b600281111561098757fe5b50610eab84600487604051610e939190611547565b90815260405190819003602001902060006001610e73565b505b816002811115610eb957fe5b60011415610ed757610ed584600487604051610e609190611547565b505b7fc9246f6fe5c84874984cd0ec439bbbc7c14383f183f190d4a862c08e8fb1ca23338686856040516109eb94939291906115ac565b6000610f21836001600160a01b03841661102c565b9392505050565b6000610f21836001600160a01b0384166110f2565b60006105558261113c565b6000610f218383611140565b6000805b600554811015610fa95760058181548110610f6f57fe5b90600052602060002001604051610f86919061153b565b604051809103902083805190602001201415610fa157600191505b600101610f58565b508015610fb65750611029565b600580546001810182556000919091528251610ff9917f036b6384b5eca791c62761152d0c79bb0604c104a5fb6f4eb0703f3154bb3db0019060208501906111bc565b507ffd12be537a9b872d3f528a11bd8bd5230d6a8c47dbb79669be3c01717b2d405682604051610a9e91906116d5565b50565b600081815260018301602052604081205480156110e8578354600019808301919081019060009087908390811061105f57fe5b906000526020600020015490508087600001848154811061107c57fe5b6000918252602080832090910192909255828152600189810190925260409020908401905586548790806110ac57fe5b60019003818190600052602060002001600090559055866001016000878152602001908152602001600020600090556001945050505050610555565b6000915050610555565b60006110fe8383611185565b61113457508154600181810184556000848152602080822090930184905584548482528286019093526040902091909155610555565b506000610555565b5490565b815460009082106111635760405162461bcd60e51b815260040161087690611712565b82600001828154811061117257fe5b9060005260206000200154905092915050565b60009081526001919091016020526040902054151590565b6040805160608082018352808252600060208301529181019190915290565b828054600181600116156101000203166002900490600052602060002090601f016020900481019282601f106111fd57805160ff191683800117855561122a565b8280016001018555821561122a579182015b8281111561122a57825182559160200191906001019061120f565b5061123692915061123a565b5090565b5b80821115611236576000815560010161123b565b80356001600160a01b038116811461055557600080fd5b600082601f830112611276578081fd5b813567ffffffffffffffff8082111561128d578283fd5b604051601f8301601f1916810160200182811182821017156112ad578485fd5b6040528281529250828483016020018610156112c857600080fd5b8260208601602083013760006020848301015250505092915050565b6000602082840312156112f5578081fd5b610f21838361124f565b600060208284031215611310578081fd5b813567ffffffffffffffff811115611326578182fd5b61133284828501611266565b949350505050565b6000806040838503121561134c578081fd5b823567ffffffffffffffff811115611362578182fd5b61136e85828601611266565b92505061137e846020850161124f565b90509250929050565b60008060006060848603121561139b578081fd5b833567ffffffffffffffff8111156113b1578182fd5b6113bd86828701611266565b93505060208401356001600160a01b03811681146113d9578182fd5b915060408401356113e9816117a2565b809150509250925092565b60008060408385031215611406578182fd5b823567ffffffffffffffff81111561141c578283fd5b61142885828601611266565b9250506020830135611439816117a2565b809150509250929050565b600060208284031215611455578081fd5b5035919050565b6000815180845260208085019450808401835b838110156114945781516001600160a01b03168752958201959082019060010161146f565b509495945050505050565b600081546001808216600081146114bd57600181146114d457611506565b60ff198316865260028304607f1686019350611506565b600283048560005260208060002060005b838110156114fe5781548a8201529085019082016114e5565b505050860193505b50505092915050565b60008151808452611527816020860160208601611772565b601f01601f19169290920160200192915050565b6000610f21828461149f565b60008251611559818460208701611772565b9190910192915050565b6001600160a01b0391909116815260200190565b600060018060a01b03808616835260606020840152611599606084018661150f565b9150808416604084015250949350505050565b600060018060a01b038087168352608060208401526115ce608084018761150f565b90851660408401529050600383106115e257fe5b82606083015295945050505050565b6020808252825182820181905260009190848201906040850190845b818110156116325783516001600160a01b03168352928401929184019160010161160d565b50909695505050505050565b60208082528251828201819052600091906040908185019080840286018301878501865b838110156116c757603f198984030185528151606081518186526116888287018261150f565b915050888201516003811061169957fe5b858a01529087015184820388860152906116b3818361145c565b968901969450505090860190600101611662565b509098975050505050505050565b600060208252610f21602083018461150f565b6000604082526116fb604083018561150f565b905060018060a01b03831660208301529392505050565b60208082526022908201527f456e756d657261626c655365743a20696e646578206f7574206f6620626f756e604082015261647360f01b606082015260800190565b60208082526004908201526310b3b7bb60e11b604082015260600190565b60005b8381101561178d578181015183820152602001611775565b8381111561179c576000848401525b50505050565b6003811061102957600080fdfea2646970667358221220a70c10dc0c2bfaabb1c0b69399d4a36eb7ebf3477069260e38fe3ec7b57e3fe464736f6c634300060c0033",
          "opcodes": "PUSH1 0x80 PUSH1 0x40 MSTORE CALLVALUE DUP1 ISZERO PUSH2 0x10 JUMPI PUSH1 0x0 DUP1 REVERT JUMPDEST POP PUSH2 0x17E5 DUP1 PUSH2 0x20 PUSH1 0x0 CODECOPY PUSH1 0x0 RETURN INVALID PUSH1 0x80 PUSH1 0x40 MSTORE CALLVALUE DUP1 ISZERO PUSH2 0x10 JUMPI PUSH1 0x0 DUP1 REVERT JUMPDEST POP PUSH1 0x4 CALLDATASIZE LT PUSH2 0x116 JUMPI PUSH1 0x0 CALLDATALOAD PUSH1 0xE0 SHR DUP1 PUSH4 0x995D6D5F GT PUSH2 0xA2 JUMPI DUP1 PUSH4 0xBDFE7D47 GT PUSH2 0x71 JUMPI DUP1 PUSH4 0xBDFE7D47 EQ PUSH2 0x23B JUMPI DUP1 PUSH4 0xC4D66DE8 EQ PUSH2 0x24E JUMPI DUP1 PUSH4 0xD477F05F EQ PUSH2 0x261 JUMPI DUP1 PUSH4 0xDF060638 EQ PUSH2 0x274 JUMPI DUP1 PUSH4 0xE9AF84A3 EQ PUSH2 0x27C JUMPI PUSH2 0x116 JUMP JUMPDEST DUP1 PUSH4 0x995D6D5F EQ PUSH2 0x1EF JUMPI DUP1 PUSH4 0xA815FF15 EQ PUSH2 0x202 JUMPI DUP1 PUSH4 0xAB033EA9 EQ PUSH2 0x215 JUMPI DUP1 PUSH4 0xB2108BBA EQ PUSH2 0x228 JUMPI PUSH2 0x116 JUMP JUMPDEST DUP1 PUSH4 0x3996AE41 GT PUSH2 0xE9 JUMPI DUP1 PUSH4 0x3996AE41 EQ PUSH2 0x18C JUMPI DUP1 PUSH4 0x5AA6E675 EQ PUSH2 0x1A1 JUMPI DUP1 PUSH4 0x693EC85E EQ PUSH2 0x1B6 JUMPI DUP1 PUSH4 0x87AEE00E EQ PUSH2 0x1C9 JUMPI DUP1 PUSH4 0x9039997D EQ PUSH2 0x1DC JUMPI PUSH2 0x116 JUMP JUMPDEST DUP1 PUSH4 0xCB6AAF1 EQ PUSH2 0x11B JUMPI DUP1 PUSH4 0x28BB2117 EQ PUSH2 0x144 JUMPI DUP1 PUSH4 0x2BFFC7ED EQ PUSH2 0x159 JUMPI DUP1 PUSH4 0x32D734CA EQ PUSH2 0x16C JUMPI JUMPDEST PUSH1 0x0 DUP1 REVERT JUMPDEST PUSH2 0x12E PUSH2 0x129 CALLDATASIZE PUSH1 0x4 PUSH2 0x1444 JUMP JUMPDEST PUSH2 0x28F JUMP JUMPDEST PUSH1 0x40 MLOAD PUSH2 0x13B SWAP2 SWAP1 PUSH2 0x16D5 JUMP JUMPDEST PUSH1 0x40 MLOAD DUP1 SWAP2 SUB SWAP1 RETURN JUMPDEST PUSH2 0x157 PUSH2 0x152 CALLDATASIZE PUSH1 0x4 PUSH2 0x133A JUMP JUMPDEST PUSH2 0x335 JUMP JUMPDEST STOP JUMPDEST PUSH2 0x157 PUSH2 0x167 CALLDATASIZE PUSH1 0x4 PUSH2 0x133A JUMP JUMPDEST PUSH2 0x3B6 JUMP JUMPDEST PUSH2 0x17F PUSH2 0x17A CALLDATASIZE PUSH1 0x4 PUSH2 0x13F4 JUMP JUMPDEST PUSH2 0x429 JUMP JUMPDEST PUSH1 0x40 MLOAD PUSH2 0x13B SWAP2 SWAP1 PUSH2 0x15F1 JUMP JUMPDEST PUSH2 0x194 PUSH2 0x55B JUMP JUMPDEST PUSH1 0x40 MLOAD PUSH2 0x13B SWAP2 SWAP1 PUSH2 0x163E JUMP JUMPDEST PUSH2 0x1A9 PUSH2 0x7FE JUMP JUMPDEST PUSH1 0x40 MLOAD PUSH2 0x13B SWAP2 SWAP1 PUSH2 0x1563 JUMP JUMPDEST PUSH2 0x1A9 PUSH2 0x1C4 CALLDATASIZE PUSH1 0x4 PUSH2 0x12FF JUMP JUMPDEST PUSH2 0x80D JUMP JUMPDEST PUSH2 0x12E PUSH2 0x1D7 CALLDATASIZE PUSH1 0x4 PUSH2 0x1444 JUMP JUMPDEST PUSH2 0x83F JUMP JUMPDEST PUSH2 0x157 PUSH2 0x1EA CALLDATASIZE PUSH1 0x4 PUSH2 0x12FF JUMP JUMPDEST PUSH2 0x84C JUMP JUMPDEST PUSH2 0x157 PUSH2 0x1FD CALLDATASIZE PUSH1 0x4 PUSH2 0x1387 JUMP JUMPDEST PUSH2 0x8FD JUMP JUMPDEST PUSH2 0x157 PUSH2 0x210 CALLDATASIZE PUSH1 0x4 PUSH2 0x133A JUMP JUMPDEST PUSH2 0x9FB JUMP JUMPDEST PUSH2 0x157 PUSH2 0x223 CALLDATASIZE PUSH1 0x4 PUSH2 0x12E4 JUMP JUMPDEST PUSH2 0xAAA JUMP JUMPDEST PUSH2 0x17F PUSH2 0x236 CALLDATASIZE PUSH1 0x4 PUSH2 0x133A JUMP JUMPDEST PUSH2 0xAF6 JUMP JUMPDEST PUSH2 0x1A9 PUSH2 0x249 CALLDATASIZE PUSH1 0x4 PUSH2 0x12FF JUMP JUMPDEST PUSH2 0xBF8 JUMP JUMPDEST PUSH2 0x157 PUSH2 0x25C CALLDATASIZE PUSH1 0x4 PUSH2 0x12E4 JUMP JUMPDEST PUSH2 0xC1E JUMP JUMPDEST PUSH2 0x157 PUSH2 0x26F CALLDATASIZE PUSH1 0x4 PUSH2 0x12E4 JUMP JUMPDEST PUSH2 0xD0F JUMP JUMPDEST PUSH2 0x1A9 PUSH2 0xD70 JUMP JUMPDEST PUSH2 0x157 PUSH2 0x28A CALLDATASIZE PUSH1 0x4 PUSH2 0x1387 JUMP JUMPDEST PUSH2 0xD7F JUMP JUMPDEST PUSH1 0x5 DUP2 DUP2 SLOAD DUP2 LT PUSH2 0x29C JUMPI INVALID JUMPDEST PUSH1 0x0 SWAP2 DUP3 MSTORE PUSH1 0x20 SWAP2 DUP3 SWAP1 KECCAK256 ADD DUP1 SLOAD PUSH1 0x40 DUP1 MLOAD PUSH1 0x1F PUSH1 0x2 PUSH1 0x0 NOT PUSH2 0x100 PUSH1 0x1 DUP8 AND ISZERO MUL ADD SWAP1 SWAP5 AND SWAP4 SWAP1 SWAP4 DIV SWAP3 DUP4 ADD DUP6 SWAP1 DIV DUP6 MUL DUP2 ADD DUP6 ADD SWAP1 SWAP2 MSTORE DUP2 DUP2 MSTORE SWAP4 POP SWAP1 SWAP2 DUP4 ADD DUP3 DUP3 DUP1 ISZERO PUSH2 0x32D JUMPI DUP1 PUSH1 0x1F LT PUSH2 0x302 JUMPI PUSH2 0x100 DUP1 DUP4 SLOAD DIV MUL DUP4 MSTORE SWAP2 PUSH1 0x20 ADD SWAP2 PUSH2 0x32D JUMP JUMPDEST DUP3 ADD SWAP2 SWAP1 PUSH1 0x0 MSTORE PUSH1 0x20 PUSH1 0x0 KECCAK256 SWAP1 JUMPDEST DUP2 SLOAD DUP2 MSTORE SWAP1 PUSH1 0x1 ADD SWAP1 PUSH1 0x20 ADD DUP1 DUP4 GT PUSH2 0x310 JUMPI DUP3 SWAP1 SUB PUSH1 0x1F AND DUP3 ADD SWAP2 JUMPDEST POP POP POP POP POP DUP2 JUMP JUMPDEST CALLER PUSH1 0x0 SWAP1 DUP2 MSTORE PUSH1 0x2 PUSH1 0x20 MSTORE PUSH1 0x40 DUP1 DUP3 KECCAK256 SWAP1 MLOAD PUSH2 0x36D SWAP2 DUP5 SWAP2 PUSH2 0x358 SWAP1 DUP8 SWAP1 PUSH2 0x1547 JUMP JUMPDEST SWAP1 DUP2 MSTORE PUSH1 0x40 MLOAD SWAP1 DUP2 SWAP1 SUB PUSH1 0x20 ADD SWAP1 KECCAK256 SWAP1 PUSH2 0xF0C JUMP JUMPDEST SWAP1 POP DUP1 ISZERO PUSH2 0x3B1 JUMPI PUSH32 0xA9979F0FFFE2ED5B166CC5C7985BDBA1D48E29F8FE235009D150609B10D55D35 CALLER DUP5 DUP5 PUSH1 0x40 MLOAD PUSH2 0x3A8 SWAP4 SWAP3 SWAP2 SWAP1 PUSH2 0x1577 JUMP JUMPDEST PUSH1 0x40 MLOAD DUP1 SWAP2 SUB SWAP1 LOG1 JUMPDEST POP POP POP JUMP JUMPDEST CALLER PUSH1 0x0 SWAP1 DUP2 MSTORE PUSH1 0x2 PUSH1 0x20 MSTORE PUSH1 0x40 DUP1 DUP3 KECCAK256 SWAP1 MLOAD PUSH2 0x3EE SWAP2 DUP5 SWAP2 PUSH2 0x3D9 SWAP1 DUP8 SWAP1 PUSH2 0x1547 JUMP JUMPDEST SWAP1 DUP2 MSTORE PUSH1 0x40 MLOAD SWAP1 DUP2 SWAP1 SUB PUSH1 0x20 ADD SWAP1 KECCAK256 SWAP1 PUSH2 0xF28 JUMP JUMPDEST SWAP1 POP DUP1 ISZERO PUSH2 0x3B1 JUMPI PUSH32 0xD8E508729FF9830B43EF839EAD95019F779B9B8EA6E4D30055512FB4AE581959 CALLER DUP5 DUP5 PUSH1 0x40 MLOAD PUSH2 0x3A8 SWAP4 SWAP3 SWAP2 SWAP1 PUSH2 0x1577 JUMP JUMPDEST PUSH1 0x60 PUSH1 0x0 PUSH2 0x47A PUSH1 0x4 DUP6 PUSH1 0x40 MLOAD PUSH2 0x440 SWAP2 SWAP1 PUSH2 0x1547 JUMP JUMPDEST SWAP1 DUP2 MSTORE PUSH1 0x20 ADD PUSH1 0x40 MLOAD DUP1 SWAP2 SUB SWAP1 KECCAK256 PUSH1 0x0 DUP6 PUSH1 0x2 DUP2 GT ISZERO PUSH2 0x45C JUMPI INVALID JUMPDEST PUSH1 0x2 DUP2 GT ISZERO PUSH2 0x467 JUMPI INVALID JUMPDEST DUP2 MSTORE PUSH1 0x20 ADD SWAP1 DUP2 MSTORE PUSH1 0x20 ADD PUSH1 0x0 KECCAK256 PUSH2 0xF3D JUMP JUMPDEST SWAP1 POP PUSH1 0x60 DUP2 PUSH8 0xFFFFFFFFFFFFFFFF DUP2 GT DUP1 ISZERO PUSH2 0x495 JUMPI PUSH1 0x0 DUP1 REVERT JUMPDEST POP PUSH1 0x40 MLOAD SWAP1 DUP1 DUP3 MSTORE DUP1 PUSH1 0x20 MUL PUSH1 0x20 ADD DUP3 ADD PUSH1 0x40 MSTORE DUP1 ISZERO PUSH2 0x4BF JUMPI DUP2 PUSH1 0x20 ADD PUSH1 0x20 DUP3 MUL DUP1 CALLDATASIZE DUP4 CALLDATACOPY ADD SWAP1 POP JUMPDEST POP SWAP1 POP PUSH1 0x0 JUMPDEST DUP3 DUP2 LT ISZERO PUSH2 0x550 JUMPI PUSH2 0x524 DUP2 PUSH1 0x4 DUP9 PUSH1 0x40 MLOAD PUSH2 0x4E1 SWAP2 SWAP1 PUSH2 0x1547 JUMP JUMPDEST SWAP1 DUP2 MSTORE PUSH1 0x20 ADD PUSH1 0x40 MLOAD DUP1 SWAP2 SUB SWAP1 KECCAK256 PUSH1 0x0 DUP9 PUSH1 0x2 DUP2 GT ISZERO PUSH2 0x4FD JUMPI INVALID JUMPDEST PUSH1 0x2 DUP2 GT ISZERO PUSH2 0x508 JUMPI INVALID JUMPDEST DUP2 MSTORE PUSH1 0x20 ADD SWAP1 DUP2 MSTORE PUSH1 0x20 ADD PUSH1 0x0 KECCAK256 PUSH2 0xF48 SWAP1 SWAP2 SWAP1 PUSH4 0xFFFFFFFF AND JUMP JUMPDEST DUP3 DUP3 DUP2 MLOAD DUP2 LT PUSH2 0x530 JUMPI INVALID JUMPDEST PUSH1 0x1 PUSH1 0x1 PUSH1 0xA0 SHL SUB SWAP1 SWAP3 AND PUSH1 0x20 SWAP3 DUP4 MUL SWAP2 SWAP1 SWAP2 ADD SWAP1 SWAP2 ADD MSTORE PUSH1 0x1 ADD PUSH2 0x4C5 JUMP JUMPDEST POP SWAP2 POP POP JUMPDEST SWAP3 SWAP2 POP POP JUMP JUMPDEST PUSH1 0x6 SLOAD PUSH1 0x60 SWAP1 DUP2 PUSH1 0x3 DUP3 MUL PUSH8 0xFFFFFFFFFFFFFFFF DUP2 GT DUP1 ISZERO PUSH2 0x57C JUMPI PUSH1 0x0 DUP1 REVERT JUMPDEST POP PUSH1 0x40 MLOAD SWAP1 DUP1 DUP3 MSTORE DUP1 PUSH1 0x20 MUL PUSH1 0x20 ADD DUP3 ADD PUSH1 0x40 MSTORE DUP1 ISZERO PUSH2 0x5B6 JUMPI DUP2 PUSH1 0x20 ADD JUMPDEST PUSH2 0x5A3 PUSH2 0x119D JUMP JUMPDEST DUP2 MSTORE PUSH1 0x20 ADD SWAP1 PUSH1 0x1 SWAP1 SUB SWAP1 DUP2 PUSH2 0x59B JUMPI SWAP1 POP JUMPDEST POP SWAP1 POP PUSH1 0x0 JUMPDEST DUP3 DUP2 LT ISZERO PUSH2 0x7F7 JUMPI PUSH1 0x0 JUMPDEST PUSH1 0x3 DUP2 LT ISZERO PUSH2 0x7EE JUMPI PUSH1 0x0 PUSH2 0x622 PUSH1 0x4 PUSH1 0x6 DUP6 DUP2 SLOAD DUP2 LT PUSH2 0x5E4 JUMPI INVALID JUMPDEST SWAP1 PUSH1 0x0 MSTORE PUSH1 0x20 PUSH1 0x0 KECCAK256 ADD PUSH1 0x40 MLOAD PUSH2 0x5FB SWAP2 SWAP1 PUSH2 0x153B JUMP JUMPDEST SWAP1 DUP2 MSTORE PUSH1 0x20 ADD PUSH1 0x40 MLOAD DUP1 SWAP2 SUB SWAP1 KECCAK256 PUSH1 0x0 DUP5 PUSH1 0x2 DUP2 GT ISZERO PUSH2 0x617 JUMPI INVALID JUMPDEST PUSH1 0x2 DUP2 GT ISZERO PUSH2 0x45C JUMPI INVALID JUMPDEST SWAP1 POP PUSH1 0x60 DUP2 PUSH8 0xFFFFFFFFFFFFFFFF DUP2 GT DUP1 ISZERO PUSH2 0x63D JUMPI PUSH1 0x0 DUP1 REVERT JUMPDEST POP PUSH1 0x40 MLOAD SWAP1 DUP1 DUP3 MSTORE DUP1 PUSH1 0x20 MUL PUSH1 0x20 ADD DUP3 ADD PUSH1 0x40 MSTORE DUP1 ISZERO PUSH2 0x667 JUMPI DUP2 PUSH1 0x20 ADD PUSH1 0x20 DUP3 MUL DUP1 CALLDATASIZE DUP4 CALLDATACOPY ADD SWAP1 POP JUMPDEST POP SWAP1 POP PUSH1 0x0 JUMPDEST DUP3 DUP2 LT ISZERO PUSH2 0x6F2 JUMPI PUSH2 0x6C6 DUP2 PUSH1 0x4 PUSH1 0x6 DUP9 DUP2 SLOAD DUP2 LT PUSH2 0x688 JUMPI INVALID JUMPDEST SWAP1 PUSH1 0x0 MSTORE PUSH1 0x20 PUSH1 0x0 KECCAK256 ADD PUSH1 0x40 MLOAD PUSH2 0x69F SWAP2 SWAP1 PUSH2 0x153B JUMP JUMPDEST SWAP1 DUP2 MSTORE PUSH1 0x20 ADD PUSH1 0x40 MLOAD DUP1 SWAP2 SUB SWAP1 KECCAK256 PUSH1 0x0 DUP8 PUSH1 0x2 DUP2 GT ISZERO PUSH2 0x6BB JUMPI INVALID JUMPDEST PUSH1 0x2 DUP2 GT ISZERO PUSH2 0x4FD JUMPI INVALID JUMPDEST DUP3 DUP3 DUP2 MLOAD DUP2 LT PUSH2 0x6D2 JUMPI INVALID JUMPDEST PUSH1 0x1 PUSH1 0x1 PUSH1 0xA0 SHL SUB SWAP1 SWAP3 AND PUSH1 0x20 SWAP3 DUP4 MUL SWAP2 SWAP1 SWAP2 ADD SWAP1 SWAP2 ADD MSTORE PUSH1 0x1 ADD PUSH2 0x66D JUMP JUMPDEST POP PUSH1 0x40 MLOAD DUP1 PUSH1 0x60 ADD PUSH1 0x40 MSTORE DUP1 PUSH1 0x6 DUP7 DUP2 SLOAD DUP2 LT PUSH2 0x70B JUMPI INVALID JUMPDEST PUSH1 0x0 SWAP2 DUP3 MSTORE PUSH1 0x20 SWAP2 DUP3 SWAP1 KECCAK256 ADD DUP1 SLOAD PUSH1 0x40 DUP1 MLOAD PUSH1 0x1F PUSH1 0x2 PUSH1 0x0 NOT PUSH2 0x100 PUSH1 0x1 DUP8 AND ISZERO MUL ADD SWAP1 SWAP5 AND SWAP4 SWAP1 SWAP4 DIV SWAP3 DUP4 ADD DUP6 SWAP1 DIV DUP6 MUL DUP2 ADD DUP6 ADD SWAP1 SWAP2 MSTORE DUP2 DUP2 MSTORE SWAP3 DUP4 ADD DUP3 DUP3 DUP1 ISZERO PUSH2 0x799 JUMPI DUP1 PUSH1 0x1F LT PUSH2 0x76E JUMPI PUSH2 0x100 DUP1 DUP4 SLOAD DIV MUL DUP4 MSTORE SWAP2 PUSH1 0x20 ADD SWAP2 PUSH2 0x799 JUMP JUMPDEST DUP3 ADD SWAP2 SWAP1 PUSH1 0x0 MSTORE PUSH1 0x20 PUSH1 0x0 KECCAK256 SWAP1 JUMPDEST DUP2 SLOAD DUP2 MSTORE SWAP1 PUSH1 0x1 ADD SWAP1 PUSH1 0x20 ADD DUP1 DUP4 GT PUSH2 0x77C JUMPI DUP3 SWAP1 SUB PUSH1 0x1F AND DUP3 ADD SWAP2 JUMPDEST POP POP POP POP POP DUP2 MSTORE PUSH1 0x20 ADD DUP5 PUSH1 0x2 DUP2 GT ISZERO PUSH2 0x7AF JUMPI INVALID JUMPDEST PUSH1 0x2 DUP2 GT ISZERO PUSH2 0x7BA JUMPI INVALID JUMPDEST DUP2 MSTORE PUSH1 0x20 ADD DUP3 DUP2 MSTORE POP DUP6 DUP5 PUSH1 0x2 MUL PUSH1 0x1 DUP10 SUB DUP8 MUL ADD DUP2 MLOAD DUP2 LT PUSH2 0x7D9 JUMPI INVALID JUMPDEST PUSH1 0x20 SWAP1 DUP2 MUL SWAP2 SWAP1 SWAP2 ADD ADD MSTORE POP POP PUSH1 0x1 ADD PUSH2 0x5C7 JUMP JUMPDEST POP PUSH1 0x1 ADD PUSH2 0x5BC JUMP JUMPDEST POP SWAP2 POP POP SWAP1 JUMP JUMPDEST PUSH1 0x0 SLOAD PUSH1 0x1 PUSH1 0x1 PUSH1 0xA0 SHL SUB AND DUP2 JUMP JUMPDEST PUSH1 0x0 PUSH1 0x3 DUP3 PUSH1 0x40 MLOAD PUSH2 0x81F SWAP2 SWAP1 PUSH2 0x1547 JUMP JUMPDEST SWAP1 DUP2 MSTORE PUSH1 0x40 MLOAD SWAP1 DUP2 SWAP1 SUB PUSH1 0x20 ADD SWAP1 KECCAK256 SLOAD PUSH1 0x1 PUSH1 0x1 PUSH1 0xA0 SHL SUB AND SWAP1 POP SWAP2 SWAP1 POP JUMP JUMPDEST PUSH1 0x6 DUP2 DUP2 SLOAD DUP2 LT PUSH2 0x29C JUMPI INVALID JUMPDEST PUSH1 0x0 SLOAD PUSH1 0x1 PUSH1 0x1 PUSH1 0xA0 SHL SUB AND CALLER EQ PUSH2 0x87F JUMPI PUSH1 0x40 MLOAD PUSH3 0x461BCD PUSH1 0xE5 SHL DUP2 MSTORE PUSH1 0x4 ADD PUSH2 0x876 SWAP1 PUSH2 0x1754 JUMP JUMPDEST PUSH1 0x40 MLOAD DUP1 SWAP2 SUB SWAP1 REVERT JUMPDEST PUSH1 0x6 DUP1 SLOAD PUSH1 0x1 DUP2 ADD DUP3 SSTORE PUSH1 0x0 SWAP2 SWAP1 SWAP2 MSTORE DUP2 MLOAD PUSH2 0x8C2 SWAP2 PUSH32 0xF652222313E28459528D920B65115C16C04F3EFC82AAEDC97BE59F3F377C0D3F ADD SWAP1 PUSH1 0x20 DUP5 ADD SWAP1 PUSH2 0x11BC JUMP JUMPDEST POP PUSH32 0x59AE058B814FD9EF4FC477FC77469013FE420011C8B4A21FDC165DEE6D14A465 DUP2 PUSH1 0x40 MLOAD PUSH2 0x8F2 SWAP2 SWAP1 PUSH2 0x16D5 JUMP JUMPDEST PUSH1 0x40 MLOAD DUP1 SWAP2 SUB SWAP1 LOG1 POP JUMP JUMPDEST PUSH1 0x0 SLOAD PUSH1 0x1 PUSH1 0x1 PUSH1 0xA0 SHL SUB AND CALLER EQ DUP1 PUSH2 0x920 JUMPI POP PUSH1 0x1 SLOAD PUSH1 0x1 PUSH1 0x1 PUSH1 0xA0 SHL SUB AND CALLER EQ JUMPDEST PUSH2 0x93C JUMPI PUSH1 0x40 MLOAD PUSH3 0x461BCD PUSH1 0xE5 SHL DUP2 MSTORE PUSH1 0x4 ADD PUSH2 0x876 SWAP1 PUSH2 0x1754 JUMP JUMPDEST PUSH1 0x1 SLOAD DUP2 SWAP1 PUSH1 0x1 PUSH1 0x1 PUSH1 0xA0 SHL SUB AND CALLER EQ ISZERO PUSH2 0x955 JUMPI POP PUSH1 0x0 JUMPDEST PUSH1 0x0 PUSH2 0x9AE DUP5 PUSH1 0x4 DUP8 PUSH1 0x40 MLOAD PUSH2 0x96B SWAP2 SWAP1 PUSH2 0x1547 JUMP JUMPDEST SWAP1 DUP2 MSTORE PUSH1 0x20 ADD PUSH1 0x40 MLOAD DUP1 SWAP2 SUB SWAP1 KECCAK256 PUSH1 0x0 DUP6 PUSH1 0x2 DUP2 GT ISZERO PUSH2 0x987 JUMPI INVALID JUMPDEST PUSH1 0x2 DUP2 GT ISZERO PUSH2 0x992 JUMPI INVALID JUMPDEST DUP2 MSTORE PUSH1 0x20 ADD SWAP1 DUP2 MSTORE PUSH1 0x20 ADD PUSH1 0x0 KECCAK256 PUSH2 0xF0C SWAP1 SWAP2 SWAP1 PUSH4 0xFFFFFFFF AND JUMP JUMPDEST SWAP1 POP DUP1 ISZERO PUSH2 0x9F4 JUMPI PUSH32 0x449B9AAA83A653B50E09CAE65213D4967D32A789C3EBCF2E4D30629FABF920B7 CALLER DUP7 DUP7 DUP7 PUSH1 0x40 MLOAD PUSH2 0x9EB SWAP5 SWAP4 SWAP3 SWAP2 SWAP1 PUSH2 0x15AC JUMP JUMPDEST PUSH1 0x40 MLOAD DUP1 SWAP2 SUB SWAP1 LOG1 JUMPDEST POP POP POP POP POP JUMP JUMPDEST PUSH1 0x0 SLOAD PUSH1 0x1 PUSH1 0x1 PUSH1 0xA0 SHL SUB AND CALLER EQ PUSH2 0xA25 JUMPI PUSH1 0x40 MLOAD PUSH3 0x461BCD PUSH1 0xE5 SHL DUP2 MSTORE PUSH1 0x4 ADD PUSH2 0x876 SWAP1 PUSH2 0x1754 JUMP JUMPDEST PUSH2 0xA2E DUP3 PUSH2 0xF54 JUMP JUMPDEST DUP1 PUSH1 0x3 DUP4 PUSH1 0x40 MLOAD PUSH2 0xA3F SWAP2 SWAP1 PUSH2 0x1547 JUMP JUMPDEST SWAP1 DUP2 MSTORE PUSH1 0x40 MLOAD SWAP1 DUP2 SWAP1 SUB PUSH1 0x20 ADD DUP2 KECCAK256 DUP1 SLOAD PUSH1 0x1 PUSH1 0x1 PUSH1 0xA0 SHL SUB SWAP4 SWAP1 SWAP4 AND PUSH1 0x1 PUSH1 0x1 PUSH1 0xA0 SHL SUB NOT SWAP1 SWAP4 AND SWAP3 SWAP1 SWAP3 OR SWAP1 SWAP2 SSTORE PUSH32 0x496595CED95720268CF8BC60BAE3F35024FF2A130F73AC4E20F5C1EACA35DB99 SWAP1 PUSH2 0xA9E SWAP1 DUP5 SWAP1 DUP5 SWAP1 PUSH2 0x16E8 JUMP JUMPDEST PUSH1 0x40 MLOAD DUP1 SWAP2 SUB SWAP1 LOG1 POP POP JUMP JUMPDEST PUSH1 0x0 SLOAD PUSH1 0x1 PUSH1 0x1 PUSH1 0xA0 SHL SUB AND CALLER EQ PUSH2 0xAD4 JUMPI PUSH1 0x40 MLOAD PUSH3 0x461BCD PUSH1 0xE5 SHL DUP2 MSTORE PUSH1 0x4 ADD PUSH2 0x876 SWAP1 PUSH2 0x1754 JUMP JUMPDEST PUSH1 0x0 DUP1 SLOAD PUSH1 0x1 PUSH1 0x1 PUSH1 0xA0 SHL SUB NOT AND PUSH1 0x1 PUSH1 0x1 PUSH1 0xA0 SHL SUB SWAP3 SWAP1 SWAP3 AND SWAP2 SWAP1 SWAP2 OR SWAP1 SSTORE JUMP JUMPDEST PUSH1 0x1 PUSH1 0x1 PUSH1 0xA0 SHL SUB DUP2 AND PUSH1 0x0 SWAP1 DUP2 MSTORE PUSH1 0x2 PUSH1 0x20 MSTORE PUSH1 0x40 DUP1 DUP3 KECCAK256 SWAP1 MLOAD PUSH1 0x60 SWAP3 SWAP2 PUSH2 0xB37 SWAP2 PUSH2 0xB24 SWAP1 DUP8 SWAP1 PUSH2 0x1547 JUMP JUMPDEST SWAP1 DUP2 MSTORE PUSH1 0x20 ADD PUSH1 0x40 MLOAD DUP1 SWAP2 SUB SWAP1 KECCAK256 PUSH2 0xF3D JUMP JUMPDEST SWAP1 POP PUSH1 0x60 DUP2 PUSH8 0xFFFFFFFFFFFFFFFF DUP2 GT DUP1 ISZERO PUSH2 0xB52 JUMPI PUSH1 0x0 DUP1 REVERT JUMPDEST POP PUSH1 0x40 MLOAD SWAP1 DUP1 DUP3 MSTORE DUP1 PUSH1 0x20 MUL PUSH1 0x20 ADD DUP3 ADD PUSH1 0x40 MSTORE DUP1 ISZERO PUSH2 0xB7C JUMPI DUP2 PUSH1 0x20 ADD PUSH1 0x20 DUP3 MUL DUP1 CALLDATASIZE DUP4 CALLDATACOPY ADD SWAP1 POP JUMPDEST POP SWAP1 POP PUSH1 0x0 JUMPDEST DUP3 DUP2 LT ISZERO PUSH2 0x550 JUMPI PUSH1 0x1 PUSH1 0x1 PUSH1 0xA0 SHL SUB DUP6 AND PUSH1 0x0 SWAP1 DUP2 MSTORE PUSH1 0x2 PUSH1 0x20 MSTORE PUSH1 0x40 SWAP1 DUP2 SWAP1 KECCAK256 SWAP1 MLOAD PUSH2 0xBCC SWAP2 DUP4 SWAP2 PUSH2 0xBB7 SWAP1 DUP11 SWAP1 PUSH2 0x1547 JUMP JUMPDEST SWAP1 DUP2 MSTORE PUSH1 0x40 MLOAD SWAP1 DUP2 SWAP1 SUB PUSH1 0x20 ADD SWAP1 KECCAK256 SWAP1 PUSH2 0xF48 JUMP JUMPDEST DUP3 DUP3 DUP2 MLOAD DUP2 LT PUSH2 0xBD8 JUMPI INVALID JUMPDEST PUSH1 0x1 PUSH1 0x1 PUSH1 0xA0 SHL SUB SWAP1 SWAP3 AND PUSH1 0x20 SWAP3 DUP4 MUL SWAP2 SWAP1 SWAP2 ADD SWAP1 SWAP2 ADD MSTORE PUSH1 0x1 ADD PUSH2 0xB82 JUMP JUMPDEST DUP1 MLOAD PUSH1 0x20 DUP2 DUP4 ADD DUP2 ADD DUP1 MLOAD PUSH1 0x3 DUP3 MSTORE SWAP3 DUP3 ADD SWAP2 SWAP1 SWAP4 ADD KECCAK256 SWAP2 MSTORE SLOAD PUSH1 0x1 PUSH1 0x1 PUSH1 0xA0 SHL SUB AND DUP2 JUMP JUMPDEST PUSH1 0x0 SLOAD PUSH1 0x1 PUSH1 0x1 PUSH1 0xA0 SHL SUB AND ISZERO PUSH2 0xC34 JUMPI PUSH1 0x0 DUP1 REVERT JUMPDEST PUSH1 0x0 DUP1 SLOAD PUSH1 0x1 PUSH1 0x1 PUSH1 0xA0 SHL SUB NOT SWAP1 DUP2 AND PUSH1 0x1 PUSH1 0x1 PUSH1 0xA0 SHL SUB DUP5 AND OR DUP3 SSTORE PUSH1 0x1 DUP1 SLOAD SWAP1 SWAP2 AND DUP2 SSTORE PUSH1 0x6 DUP1 SLOAD SWAP2 DUP3 ADD DUP2 SSTORE SWAP1 SWAP2 MSTORE PUSH1 0x40 DUP1 MLOAD DUP1 DUP3 ADD SWAP1 SWAP2 MSTORE PUSH1 0x2 DUP1 DUP3 MSTORE PUSH2 0x7631 PUSH1 0xF0 SHL PUSH1 0x20 SWAP1 SWAP3 ADD SWAP2 DUP3 MSTORE PUSH2 0xCB0 SWAP3 PUSH32 0xF652222313E28459528D920B65115C16C04F3EFC82AAEDC97BE59F3F377C0D3F ADD SWAP2 SWAP1 PUSH2 0x11BC JUMP JUMPDEST POP PUSH1 0x6 DUP1 SLOAD PUSH1 0x1 DUP2 ADD DUP3 SSTORE PUSH1 0x0 SWAP2 SWAP1 SWAP2 MSTORE PUSH1 0x40 DUP1 MLOAD DUP1 DUP3 ADD SWAP1 SWAP2 MSTORE PUSH1 0x2 DUP1 DUP3 MSTORE PUSH2 0x3B19 PUSH1 0xF1 SHL PUSH1 0x20 SWAP1 SWAP3 ADD SWAP2 DUP3 MSTORE PUSH2 0xD0B SWAP3 PUSH32 0xF652222313E28459528D920B65115C16C04F3EFC82AAEDC97BE59F3F377C0D3F ADD SWAP2 SWAP1 PUSH2 0x11BC JUMP JUMPDEST POP POP JUMP JUMPDEST PUSH1 0x0 SLOAD PUSH1 0x1 PUSH1 0x1 PUSH1 0xA0 SHL SUB AND CALLER EQ DUP1 PUSH2 0xD32 JUMPI POP PUSH1 0x1 SLOAD PUSH1 0x1 PUSH1 0x1 PUSH1 0xA0 SHL SUB AND CALLER EQ JUMPDEST PUSH2 0xD4E JUMPI PUSH1 0x40 MLOAD PUSH3 0x461BCD PUSH1 0xE5 SHL DUP2 MSTORE PUSH1 0x4 ADD PUSH2 0x876 SWAP1 PUSH2 0x1754 JUMP JUMPDEST PUSH1 0x1 DUP1 SLOAD PUSH1 0x1 PUSH1 0x1 PUSH1 0xA0 SHL SUB NOT AND PUSH1 0x1 PUSH1 0x1 PUSH1 0xA0 SHL SUB SWAP3 SWAP1 SWAP3 AND SWAP2 SWAP1 SWAP2 OR SWAP1 SSTORE JUMP JUMPDEST PUSH1 0x1 SLOAD PUSH1 0x1 PUSH1 0x1 PUSH1 0xA0 SHL SUB AND DUP2 JUMP JUMPDEST PUSH1 0x0 SLOAD PUSH1 0x1 PUSH1 0x1 PUSH1 0xA0 SHL SUB AND CALLER EQ DUP1 PUSH2 0xDA2 JUMPI POP PUSH1 0x1 SLOAD PUSH1 0x1 PUSH1 0x1 PUSH1 0xA0 SHL SUB AND CALLER EQ JUMPDEST PUSH2 0xDBE JUMPI PUSH1 0x40 MLOAD PUSH3 0x461BCD PUSH1 0xE5 SHL DUP2 MSTORE PUSH1 0x4 ADD PUSH2 0x876 SWAP1 PUSH2 0x1754 JUMP JUMPDEST PUSH1 0x1 SLOAD DUP2 SWAP1 PUSH1 0x1 PUSH1 0x1 PUSH1 0xA0 SHL SUB AND CALLER EQ ISZERO PUSH2 0xDD7 JUMPI POP PUSH1 0x0 JUMPDEST PUSH1 0x0 PUSH2 0xE30 DUP5 PUSH1 0x4 DUP8 PUSH1 0x40 MLOAD PUSH2 0xDED SWAP2 SWAP1 PUSH2 0x1547 JUMP JUMPDEST SWAP1 DUP2 MSTORE PUSH1 0x20 ADD PUSH1 0x40 MLOAD DUP1 SWAP2 SUB SWAP1 KECCAK256 PUSH1 0x0 DUP6 PUSH1 0x2 DUP2 GT ISZERO PUSH2 0xE09 JUMPI INVALID JUMPDEST PUSH1 0x2 DUP2 GT ISZERO PUSH2 0xE14 JUMPI INVALID JUMPDEST DUP2 MSTORE PUSH1 0x20 ADD SWAP1 DUP2 MSTORE PUSH1 0x20 ADD PUSH1 0x0 KECCAK256 PUSH2 0xF28 SWAP1 SWAP2 SWAP1 PUSH4 0xFFFFFFFF AND JUMP JUMPDEST SWAP1 POP DUP1 ISZERO PUSH2 0x9F4 JUMPI DUP2 PUSH1 0x2 DUP2 GT ISZERO PUSH2 0xE44 JUMPI INVALID JUMPDEST PUSH1 0x2 EQ ISZERO PUSH2 0xEAD JUMPI PUSH2 0xE7E DUP5 PUSH1 0x4 DUP8 PUSH1 0x40 MLOAD PUSH2 0xE60 SWAP2 SWAP1 PUSH2 0x1547 JUMP JUMPDEST SWAP1 DUP2 MSTORE PUSH1 0x40 MLOAD SWAP1 DUP2 SWAP1 SUB PUSH1 0x20 ADD SWAP1 KECCAK256 PUSH1 0x0 DUP1 JUMPDEST PUSH1 0x2 DUP2 GT ISZERO PUSH2 0x987 JUMPI INVALID JUMPDEST POP PUSH2 0xEAB DUP5 PUSH1 0x4 DUP8 PUSH1 0x40 MLOAD PUSH2 0xE93 SWAP2 SWAP1 PUSH2 0x1547 JUMP JUMPDEST SWAP1 DUP2 MSTORE PUSH1 0x40 MLOAD SWAP1 DUP2 SWAP1 SUB PUSH1 0x20 ADD SWAP1 KECCAK256 PUSH1 0x0 PUSH1 0x1 PUSH2 0xE73 JUMP JUMPDEST POP JUMPDEST DUP2 PUSH1 0x2 DUP2 GT ISZERO PUSH2 0xEB9 JUMPI INVALID JUMPDEST PUSH1 0x1 EQ ISZERO PUSH2 0xED7 JUMPI PUSH2 0xED5 DUP5 PUSH1 0x4 DUP8 PUSH1 0x40 MLOAD PUSH2 0xE60 SWAP2 SWAP1 PUSH2 0x1547 JUMP JUMPDEST POP JUMPDEST PUSH32 0xC9246F6FE5C84874984CD0EC439BBBC7C14383F183F190D4A862C08E8FB1CA23 CALLER DUP7 DUP7 DUP6 PUSH1 0x40 MLOAD PUSH2 0x9EB SWAP5 SWAP4 SWAP3 SWAP2 SWAP1 PUSH2 0x15AC JUMP JUMPDEST PUSH1 0x0 PUSH2 0xF21 DUP4 PUSH1 0x1 PUSH1 0x1 PUSH1 0xA0 SHL SUB DUP5 AND PUSH2 0x102C JUMP JUMPDEST SWAP4 SWAP3 POP POP POP JUMP JUMPDEST PUSH1 0x0 PUSH2 0xF21 DUP4 PUSH1 0x1 PUSH1 0x1 PUSH1 0xA0 SHL SUB DUP5 AND PUSH2 0x10F2 JUMP JUMPDEST PUSH1 0x0 PUSH2 0x555 DUP3 PUSH2 0x113C JUMP JUMPDEST PUSH1 0x0 PUSH2 0xF21 DUP4 DUP4 PUSH2 0x1140 JUMP JUMPDEST PUSH1 0x0 DUP1 JUMPDEST PUSH1 0x5 SLOAD DUP2 LT ISZERO PUSH2 0xFA9 JUMPI PUSH1 0x5 DUP2 DUP2 SLOAD DUP2 LT PUSH2 0xF6F JUMPI INVALID JUMPDEST SWAP1 PUSH1 0x0 MSTORE PUSH1 0x20 PUSH1 0x0 KECCAK256 ADD PUSH1 0x40 MLOAD PUSH2 0xF86 SWAP2 SWAP1 PUSH2 0x153B JUMP JUMPDEST PUSH1 0x40 MLOAD DUP1 SWAP2 SUB SWAP1 KECCAK256 DUP4 DUP1 MLOAD SWAP1 PUSH1 0x20 ADD KECCAK256 EQ ISZERO PUSH2 0xFA1 JUMPI PUSH1 0x1 SWAP2 POP JUMPDEST PUSH1 0x1 ADD PUSH2 0xF58 JUMP JUMPDEST POP DUP1 ISZERO PUSH2 0xFB6 JUMPI POP PUSH2 0x1029 JUMP JUMPDEST PUSH1 0x5 DUP1 SLOAD PUSH1 0x1 DUP2 ADD DUP3 SSTORE PUSH1 0x0 SWAP2 SWAP1 SWAP2 MSTORE DUP3 MLOAD PUSH2 0xFF9 SWAP2 PUSH32 0x36B6384B5ECA791C62761152D0C79BB0604C104A5FB6F4EB0703F3154BB3DB0 ADD SWAP1 PUSH1 0x20 DUP6 ADD SWAP1 PUSH2 0x11BC JUMP JUMPDEST POP PUSH32 0xFD12BE537A9B872D3F528A11BD8BD5230D6A8C47DBB79669BE3C01717B2D4056 DUP3 PUSH1 0x40 MLOAD PUSH2 0xA9E SWAP2 SWAP1 PUSH2 0x16D5 JUMP JUMPDEST POP JUMP JUMPDEST PUSH1 0x0 DUP2 DUP2 MSTORE PUSH1 0x1 DUP4 ADD PUSH1 0x20 MSTORE PUSH1 0x40 DUP2 KECCAK256 SLOAD DUP1 ISZERO PUSH2 0x10E8 JUMPI DUP4 SLOAD PUSH1 0x0 NOT DUP1 DUP4 ADD SWAP2 SWAP1 DUP2 ADD SWAP1 PUSH1 0x0 SWAP1 DUP8 SWAP1 DUP4 SWAP1 DUP2 LT PUSH2 0x105F JUMPI INVALID JUMPDEST SWAP1 PUSH1 0x0 MSTORE PUSH1 0x20 PUSH1 0x0 KECCAK256 ADD SLOAD SWAP1 POP DUP1 DUP8 PUSH1 0x0 ADD DUP5 DUP2 SLOAD DUP2 LT PUSH2 0x107C JUMPI INVALID JUMPDEST PUSH1 0x0 SWAP2 DUP3 MSTORE PUSH1 0x20 DUP1 DUP4 KECCAK256 SWAP1 SWAP2 ADD SWAP3 SWAP1 SWAP3 SSTORE DUP3 DUP2 MSTORE PUSH1 0x1 DUP10 DUP2 ADD SWAP1 SWAP3 MSTORE PUSH1 0x40 SWAP1 KECCAK256 SWAP1 DUP5 ADD SWAP1 SSTORE DUP7 SLOAD DUP8 SWAP1 DUP1 PUSH2 0x10AC JUMPI INVALID JUMPDEST PUSH1 0x1 SWAP1 SUB DUP2 DUP2 SWAP1 PUSH1 0x0 MSTORE PUSH1 0x20 PUSH1 0x0 KECCAK256 ADD PUSH1 0x0 SWAP1 SSTORE SWAP1 SSTORE DUP7 PUSH1 0x1 ADD PUSH1 0x0 DUP8 DUP2 MSTORE PUSH1 0x20 ADD SWAP1 DUP2 MSTORE PUSH1 0x20 ADD PUSH1 0x0 KECCAK256 PUSH1 0x0 SWAP1 SSTORE PUSH1 0x1 SWAP5 POP POP POP POP POP PUSH2 0x555 JUMP JUMPDEST PUSH1 0x0 SWAP2 POP POP PUSH2 0x555 JUMP JUMPDEST PUSH1 0x0 PUSH2 0x10FE DUP4 DUP4 PUSH2 0x1185 JUMP JUMPDEST PUSH2 0x1134 JUMPI POP DUP2 SLOAD PUSH1 0x1 DUP2 DUP2 ADD DUP5 SSTORE PUSH1 0x0 DUP5 DUP2 MSTORE PUSH1 0x20 DUP1 DUP3 KECCAK256 SWAP1 SWAP4 ADD DUP5 SWAP1 SSTORE DUP5 SLOAD DUP5 DUP3 MSTORE DUP3 DUP7 ADD SWAP1 SWAP4 MSTORE PUSH1 0x40 SWAP1 KECCAK256 SWAP2 SWAP1 SWAP2 SSTORE PUSH2 0x555 JUMP JUMPDEST POP PUSH1 0x0 PUSH2 0x555 JUMP JUMPDEST SLOAD SWAP1 JUMP JUMPDEST DUP2 SLOAD PUSH1 0x0 SWAP1 DUP3 LT PUSH2 0x1163 JUMPI PUSH1 0x40 MLOAD PUSH3 0x461BCD PUSH1 0xE5 SHL DUP2 MSTORE PUSH1 0x4 ADD PUSH2 0x876 SWAP1 PUSH2 0x1712 JUMP JUMPDEST DUP3 PUSH1 0x0 ADD DUP3 DUP2 SLOAD DUP2 LT PUSH2 0x1172 JUMPI INVALID JUMPDEST SWAP1 PUSH1 0x0 MSTORE PUSH1 0x20 PUSH1 0x0 KECCAK256 ADD SLOAD SWAP1 POP SWAP3 SWAP2 POP POP JUMP JUMPDEST PUSH1 0x0 SWAP1 DUP2 MSTORE PUSH1 0x1 SWAP2 SWAP1 SWAP2 ADD PUSH1 0x20 MSTORE PUSH1 0x40 SWAP1 KECCAK256 SLOAD ISZERO ISZERO SWAP1 JUMP JUMPDEST PUSH1 0x40 DUP1 MLOAD PUSH1 0x60 DUP1 DUP3 ADD DUP4 MSTORE DUP1 DUP3 MSTORE PUSH1 0x0 PUSH1 0x20 DUP4 ADD MSTORE SWAP2 DUP2 ADD SWAP2 SWAP1 SWAP2 MSTORE SWAP1 JUMP JUMPDEST DUP3 DUP1 SLOAD PUSH1 0x1 DUP2 PUSH1 0x1 AND ISZERO PUSH2 0x100 MUL SUB AND PUSH1 0x2 SWAP1 DIV SWAP1 PUSH1 0x0 MSTORE PUSH1 0x20 PUSH1 0x0 KECCAK256 SWAP1 PUSH1 0x1F ADD PUSH1 0x20 SWAP1 DIV DUP2 ADD SWAP3 DUP3 PUSH1 0x1F LT PUSH2 0x11FD JUMPI DUP1 MLOAD PUSH1 0xFF NOT AND DUP4 DUP1 ADD OR DUP6 SSTORE PUSH2 0x122A JUMP JUMPDEST DUP3 DUP1 ADD PUSH1 0x1 ADD DUP6 SSTORE DUP3 ISZERO PUSH2 0x122A JUMPI SWAP2 DUP3 ADD JUMPDEST DUP3 DUP2 GT ISZERO PUSH2 0x122A JUMPI DUP3 MLOAD DUP3 SSTORE SWAP2 PUSH1 0x20 ADD SWAP2 SWAP1 PUSH1 0x1 ADD SWAP1 PUSH2 0x120F JUMP JUMPDEST POP PUSH2 0x1236 SWAP3 SWAP2 POP PUSH2 0x123A JUMP JUMPDEST POP SWAP1 JUMP JUMPDEST JUMPDEST DUP1 DUP3 GT ISZERO PUSH2 0x1236 JUMPI PUSH1 0x0 DUP2 SSTORE PUSH1 0x1 ADD PUSH2 0x123B JUMP JUMPDEST DUP1 CALLDATALOAD PUSH1 0x1 PUSH1 0x1 PUSH1 0xA0 SHL SUB DUP2 AND DUP2 EQ PUSH2 0x555 JUMPI PUSH1 0x0 DUP1 REVERT JUMPDEST PUSH1 0x0 DUP3 PUSH1 0x1F DUP4 ADD SLT PUSH2 0x1276 JUMPI DUP1 DUP2 REVERT JUMPDEST DUP2 CALLDATALOAD PUSH8 0xFFFFFFFFFFFFFFFF DUP1 DUP3 GT ISZERO PUSH2 0x128D JUMPI DUP3 DUP4 REVERT JUMPDEST PUSH1 0x40 MLOAD PUSH1 0x1F DUP4 ADD PUSH1 0x1F NOT AND DUP2 ADD PUSH1 0x20 ADD DUP3 DUP2 GT DUP3 DUP3 LT OR ISZERO PUSH2 0x12AD JUMPI DUP5 DUP6 REVERT JUMPDEST PUSH1 0x40 MSTORE DUP3 DUP2 MSTORE SWAP3 POP DUP3 DUP5 DUP4 ADD PUSH1 0x20 ADD DUP7 LT ISZERO PUSH2 0x12C8 JUMPI PUSH1 0x0 DUP1 REVERT JUMPDEST DUP3 PUSH1 0x20 DUP7 ADD PUSH1 0x20 DUP4 ADD CALLDATACOPY PUSH1 0x0 PUSH1 0x20 DUP5 DUP4 ADD ADD MSTORE POP POP POP SWAP3 SWAP2 POP POP JUMP JUMPDEST PUSH1 0x0 PUSH1 0x20 DUP3 DUP5 SUB SLT ISZERO PUSH2 0x12F5 JUMPI DUP1 DUP2 REVERT JUMPDEST PUSH2 0xF21 DUP4 DUP4 PUSH2 0x124F JUMP JUMPDEST PUSH1 0x0 PUSH1 0x20 DUP3 DUP5 SUB SLT ISZERO PUSH2 0x1310 JUMPI DUP1 DUP2 REVERT JUMPDEST DUP2 CALLDATALOAD PUSH8 0xFFFFFFFFFFFFFFFF DUP2 GT ISZERO PUSH2 0x1326 JUMPI DUP2 DUP3 REVERT JUMPDEST PUSH2 0x1332 DUP5 DUP3 DUP6 ADD PUSH2 0x1266 JUMP JUMPDEST SWAP5 SWAP4 POP POP POP POP JUMP JUMPDEST PUSH1 0x0 DUP1 PUSH1 0x40 DUP4 DUP6 SUB SLT ISZERO PUSH2 0x134C JUMPI DUP1 DUP2 REVERT JUMPDEST DUP3 CALLDATALOAD PUSH8 0xFFFFFFFFFFFFFFFF DUP2 GT ISZERO PUSH2 0x1362 JUMPI DUP2 DUP3 REVERT JUMPDEST PUSH2 0x136E DUP6 DUP3 DUP7 ADD PUSH2 0x1266 JUMP JUMPDEST SWAP3 POP POP PUSH2 0x137E DUP5 PUSH1 0x20 DUP6 ADD PUSH2 0x124F JUMP JUMPDEST SWAP1 POP SWAP3 POP SWAP3 SWAP1 POP JUMP JUMPDEST PUSH1 0x0 DUP1 PUSH1 0x0 PUSH1 0x60 DUP5 DUP7 SUB SLT ISZERO PUSH2 0x139B JUMPI DUP1 DUP2 REVERT JUMPDEST DUP4 CALLDATALOAD PUSH8 0xFFFFFFFFFFFFFFFF DUP2 GT ISZERO PUSH2 0x13B1 JUMPI DUP2 DUP3 REVERT JUMPDEST PUSH2 0x13BD DUP7 DUP3 DUP8 ADD PUSH2 0x1266 JUMP JUMPDEST SWAP4 POP POP PUSH1 0x20 DUP5 ADD CALLDATALOAD PUSH1 0x1 PUSH1 0x1 PUSH1 0xA0 SHL SUB DUP2 AND DUP2 EQ PUSH2 0x13D9 JUMPI DUP2 DUP3 REVERT JUMPDEST SWAP2 POP PUSH1 0x40 DUP5 ADD CALLDATALOAD PUSH2 0x13E9 DUP2 PUSH2 0x17A2 JUMP JUMPDEST DUP1 SWAP2 POP POP SWAP3 POP SWAP3 POP SWAP3 JUMP JUMPDEST PUSH1 0x0 DUP1 PUSH1 0x40 DUP4 DUP6 SUB SLT ISZERO PUSH2 0x1406 JUMPI DUP2 DUP3 REVERT JUMPDEST DUP3 CALLDATALOAD PUSH8 0xFFFFFFFFFFFFFFFF DUP2 GT ISZERO PUSH2 0x141C JUMPI DUP3 DUP4 REVERT JUMPDEST PUSH2 0x1428 DUP6 DUP3 DUP7 ADD PUSH2 0x1266 JUMP JUMPDEST SWAP3 POP POP PUSH1 0x20 DUP4 ADD CALLDATALOAD PUSH2 0x1439 DUP2 PUSH2 0x17A2 JUMP JUMPDEST DUP1 SWAP2 POP POP SWAP3 POP SWAP3 SWAP1 POP JUMP JUMPDEST PUSH1 0x0 PUSH1 0x20 DUP3 DUP5 SUB SLT ISZERO PUSH2 0x1455 JUMPI DUP1 DUP2 REVERT JUMPDEST POP CALLDATALOAD SWAP2 SWAP1 POP JUMP JUMPDEST PUSH1 0x0 DUP2 MLOAD DUP1 DUP5 MSTORE PUSH1 0x20 DUP1 DUP6 ADD SWAP5 POP DUP1 DUP5 ADD DUP4 JUMPDEST DUP4 DUP2 LT ISZERO PUSH2 0x1494 JUMPI DUP2 MLOAD PUSH1 0x1 PUSH1 0x1 PUSH1 0xA0 SHL SUB AND DUP8 MSTORE SWAP6 DUP3 ADD SWAP6 SWAP1 DUP3 ADD SWAP1 PUSH1 0x1 ADD PUSH2 0x146F JUMP JUMPDEST POP SWAP5 SWAP6 SWAP5 POP POP POP POP POP JUMP JUMPDEST PUSH1 0x0 DUP2 SLOAD PUSH1 0x1 DUP1 DUP3 AND PUSH1 0x0 DUP2 EQ PUSH2 0x14BD JUMPI PUSH1 0x1 DUP2 EQ PUSH2 0x14D4 JUMPI PUSH2 0x1506 JUMP JUMPDEST PUSH1 0xFF NOT DUP4 AND DUP7 MSTORE PUSH1 0x2 DUP4 DIV PUSH1 0x7F AND DUP7 ADD SWAP4 POP PUSH2 0x1506 JUMP JUMPDEST PUSH1 0x2 DUP4 DIV DUP6 PUSH1 0x0 MSTORE PUSH1 0x20 DUP1 PUSH1 0x0 KECCAK256 PUSH1 0x0 JUMPDEST DUP4 DUP2 LT ISZERO PUSH2 0x14FE JUMPI DUP2 SLOAD DUP11 DUP3 ADD MSTORE SWAP1 DUP6 ADD SWAP1 DUP3 ADD PUSH2 0x14E5 JUMP JUMPDEST POP POP POP DUP7 ADD SWAP4 POP JUMPDEST POP POP POP SWAP3 SWAP2 POP POP JUMP JUMPDEST PUSH1 0x0 DUP2 MLOAD DUP1 DUP5 MSTORE PUSH2 0x1527 DUP2 PUSH1 0x20 DUP7 ADD PUSH1 0x20 DUP7 ADD PUSH2 0x1772 JUMP JUMPDEST PUSH1 0x1F ADD PUSH1 0x1F NOT AND SWAP3 SWAP1 SWAP3 ADD PUSH1 0x20 ADD SWAP3 SWAP2 POP POP JUMP JUMPDEST PUSH1 0x0 PUSH2 0xF21 DUP3 DUP5 PUSH2 0x149F JUMP JUMPDEST PUSH1 0x0 DUP3 MLOAD PUSH2 0x1559 DUP2 DUP5 PUSH1 0x20 DUP8 ADD PUSH2 0x1772 JUMP JUMPDEST SWAP2 SWAP1 SWAP2 ADD SWAP3 SWAP2 POP POP JUMP JUMPDEST PUSH1 0x1 PUSH1 0x1 PUSH1 0xA0 SHL SUB SWAP2 SWAP1 SWAP2 AND DUP2 MSTORE PUSH1 0x20 ADD SWAP1 JUMP JUMPDEST PUSH1 0x0 PUSH1 0x1 DUP1 PUSH1 0xA0 SHL SUB DUP1 DUP7 AND DUP4 MSTORE PUSH1 0x60 PUSH1 0x20 DUP5 ADD MSTORE PUSH2 0x1599 PUSH1 0x60 DUP5 ADD DUP7 PUSH2 0x150F JUMP JUMPDEST SWAP2 POP DUP1 DUP5 AND PUSH1 0x40 DUP5 ADD MSTORE POP SWAP5 SWAP4 POP POP POP POP JUMP JUMPDEST PUSH1 0x0 PUSH1 0x1 DUP1 PUSH1 0xA0 SHL SUB DUP1 DUP8 AND DUP4 MSTORE PUSH1 0x80 PUSH1 0x20 DUP5 ADD MSTORE PUSH2 0x15CE PUSH1 0x80 DUP5 ADD DUP8 PUSH2 0x150F JUMP JUMPDEST SWAP1 DUP6 AND PUSH1 0x40 DUP5 ADD MSTORE SWAP1 POP PUSH1 0x3 DUP4 LT PUSH2 0x15E2 JUMPI INVALID JUMPDEST DUP3 PUSH1 0x60 DUP4 ADD MSTORE SWAP6 SWAP5 POP POP POP POP POP JUMP JUMPDEST PUSH1 0x20 DUP1 DUP3 MSTORE DUP3 MLOAD DUP3 DUP3 ADD DUP2 SWAP1 MSTORE PUSH1 0x0 SWAP2 SWAP1 DUP5 DUP3 ADD SWAP1 PUSH1 0x40 DUP6 ADD SWAP1 DUP5 JUMPDEST DUP2 DUP2 LT ISZERO PUSH2 0x1632 JUMPI DUP4 MLOAD PUSH1 0x1 PUSH1 0x1 PUSH1 0xA0 SHL SUB AND DUP4 MSTORE SWAP3 DUP5 ADD SWAP3 SWAP2 DUP5 ADD SWAP2 PUSH1 0x1 ADD PUSH2 0x160D JUMP JUMPDEST POP SWAP1 SWAP7 SWAP6 POP POP POP POP POP POP JUMP JUMPDEST PUSH1 0x20 DUP1 DUP3 MSTORE DUP3 MLOAD DUP3 DUP3 ADD DUP2 SWAP1 MSTORE PUSH1 0x0 SWAP2 SWAP1 PUSH1 0x40 SWAP1 DUP2 DUP6 ADD SWAP1 DUP1 DUP5 MUL DUP7 ADD DUP4 ADD DUP8 DUP6 ADD DUP7 JUMPDEST DUP4 DUP2 LT ISZERO PUSH2 0x16C7 JUMPI PUSH1 0x3F NOT DUP10 DUP5 SUB ADD DUP6 MSTORE DUP2 MLOAD PUSH1 0x60 DUP2 MLOAD DUP2 DUP7 MSTORE PUSH2 0x1688 DUP3 DUP8 ADD DUP3 PUSH2 0x150F JUMP JUMPDEST SWAP2 POP POP DUP9 DUP3 ADD MLOAD PUSH1 0x3 DUP2 LT PUSH2 0x1699 JUMPI INVALID JUMPDEST DUP6 DUP11 ADD MSTORE SWAP1 DUP8 ADD MLOAD DUP5 DUP3 SUB DUP9 DUP7 ADD MSTORE SWAP1 PUSH2 0x16B3 DUP2 DUP4 PUSH2 0x145C JUMP JUMPDEST SWAP7 DUP10 ADD SWAP7 SWAP5 POP POP POP SWAP1 DUP7 ADD SWAP1 PUSH1 0x1 ADD PUSH2 0x1662 JUMP JUMPDEST POP SWAP1 SWAP9 SWAP8 POP POP POP POP POP POP POP POP JUMP JUMPDEST PUSH1 0x0 PUSH1 0x20 DUP3 MSTORE PUSH2 0xF21 PUSH1 0x20 DUP4 ADD DUP5 PUSH2 0x150F JUMP JUMPDEST PUSH1 0x0 PUSH1 0x40 DUP3 MSTORE PUSH2 0x16FB PUSH1 0x40 DUP4 ADD DUP6 PUSH2 0x150F JUMP JUMPDEST SWAP1 POP PUSH1 0x1 DUP1 PUSH1 0xA0 SHL SUB DUP4 AND PUSH1 0x20 DUP4 ADD MSTORE SWAP4 SWAP3 POP POP POP JUMP JUMPDEST PUSH1 0x20 DUP1 DUP3 MSTORE PUSH1 0x22 SWAP1 DUP3 ADD MSTORE PUSH32 0x456E756D657261626C655365743A20696E646578206F7574206F6620626F756E PUSH1 0x40 DUP3 ADD MSTORE PUSH2 0x6473 PUSH1 0xF0 SHL PUSH1 0x60 DUP3 ADD MSTORE PUSH1 0x80 ADD SWAP1 JUMP JUMPDEST PUSH1 0x20 DUP1 DUP3 MSTORE PUSH1 0x4 SWAP1 DUP3 ADD MSTORE PUSH4 0x10B3B7BB PUSH1 0xE1 SHL PUSH1 0x40 DUP3 ADD MSTORE PUSH1 0x60 ADD SWAP1 JUMP JUMPDEST PUSH1 0x0 JUMPDEST DUP4 DUP2 LT ISZERO PUSH2 0x178D JUMPI DUP2 DUP2 ADD MLOAD DUP4 DUP3 ADD MSTORE PUSH1 0x20 ADD PUSH2 0x1775 JUMP JUMPDEST DUP4 DUP2 GT ISZERO PUSH2 0x179C JUMPI PUSH1 0x0 DUP5 DUP5 ADD MSTORE JUMPDEST POP POP POP POP JUMP JUMPDEST PUSH1 0x3 DUP2 LT PUSH2 0x1029 JUMPI PUSH1 0x0 DUP1 REVERT INVALID LOG2 PUSH5 0x6970667358 0x22 SLT KECCAK256 0xA7 0xC LT 0xDC 0xC 0x2B STATICCALL 0xAB 0xB1 0xC0 0xB6 SWAP4 SWAP10 0xD4 LOG3 PUSH15 0xB7EBF3477069260E38FE3EC7B57E3F 0xE4 PUSH5 0x736F6C6343 STOP MOD 0xC STOP CALLER "
        },
        "methodIdentifiers": {
          "add(string,address)": "2bffc7ed",
          "addVersions(string)": "9039997d",
          "addresses(string)": "bdfe7d47",
          "demote(string,address,uint8)": "995d6d5f",
          "devGovernance()": "df060638",
          "get(string)": "693ec85e",
          "getFilteredProductionVaults(string,uint8)": "32d734ca",
          "getProductionVaults()": "3996ae41",
          "getVaults(string,address)": "b2108bba",
          "governance()": "5aa6e675",
          "initialize(address)": "c4d66de8",
          "keys(uint256)": "0cb6aaf1",
          "promote(string,address,uint8)": "e9af84a3",
          "remove(string,address)": "28bb2117",
          "set(string,address)": "a815ff15",
          "setDev(address)": "d477f05f",
          "setGovernance(address)": "ab033ea9",
          "versions(uint256)": "87aee00e"
        }
      }
    }
  }
}