{
  "_format": "hh-sol-artifact-1",
  "contractName": "BadgerRegistry",
  "sourceName": "contracts/deps/BadgerRegistry.sol",
  "abi": [
    {
      "anonymous": false,
      "inputs": [
        {
          "indexed": false,
          "internalType": "string",
          "name": "key",
          "type": "string"
        }
      ],
      "name": "AddKey",
      "type": "event"
    },
    {
      "anonymous": false,
      "inputs": [
        {
          "indexed": false,
          "internalType": "string",
          "name": "version",
          "type": "string"
        }
      ],
      "name": "AddVersion",
      "type": "event"
    },
    {
      "anonymous": false,
      "inputs": [
        {
          "indexed": false,
          "internalType": "address",
          "name": "author",
          "type": "address"
        },
        {
          "indexed": false,
          "internalType": "string",
          "name": "version",
          "type": "string"
        },
        {
          "indexed": false,
          "internalType": "address",
          "name": "vault",
          "type": "address"
        },
        {
          "indexed": false,
          "internalType": "enum BadgerRegistry.VaultStatus",
          "name": "status",
          "type": "uint8"
        }
      ],
      "name": "DemoteVault",
      "type": "event"
    },
    {
      "anonymous": false,
      "inputs": [
        {
          "indexed": false,
          "internalType": "address",
          "name": "author",
          "type": "address"
        },
        {
          "indexed": false,
          "internalType": "string",
          "name": "version",
          "type": "string"
        },
        {
          "indexed": false,
          "internalType": "address",
          "name": "vault",
          "type": "address"
        }
      ],
      "name": "NewVault",
      "type": "event"
    },
    {
      "anonymous": false,
      "inputs": [
        {
          "indexed": false,
          "internalType": "address",
          "name": "author",
          "type": "address"
        },
        {
          "indexed": false,
          "internalType": "string",
          "name": "version",
          "type": "string"
        },
        {
          "indexed": false,
          "internalType": "address",
          "name": "vault",
          "type": "address"
        },
        {
          "indexed": false,
          "internalType": "enum BadgerRegistry.VaultStatus",
          "name": "status",
          "type": "uint8"
        }
      ],
      "name": "PromoteVault",
      "type": "event"
    },
    {
      "anonymous": false,
      "inputs": [
        {
          "indexed": false,
          "internalType": "address",
          "name": "author",
          "type": "address"
        },
        {
          "indexed": false,
          "internalType": "string",
          "name": "version",
          "type": "string"
        },
        {
          "indexed": false,
          "internalType": "address",
          "name": "vault",
          "type": "address"
        }
      ],
      "name": "RemoveVault",
      "type": "event"
    },
    {
      "anonymous": false,
      "inputs": [
        {
          "indexed": false,
          "internalType": "string",
          "name": "key",
          "type": "string"
        },
        {
          "indexed": false,
          "internalType": "address",
          "name": "at",
          "type": "address"
        }
      ],
      "name": "Set",
      "type": "event"
    },
    {
      "inputs": [
        {
          "internalType": "string",
          "name": "version",
          "type": "string"
        },
        {
          "internalType": "address",
          "name": "vault",
          "type": "address"
        }
      ],
      "name": "add",
      "outputs": [],
      "stateMutability": "nonpayable",
      "type": "function"
    },
    {
      "inputs": [
        {
          "internalType": "string",
          "name": "version",
          "type": "string"
        }
      ],
      "name": "addVersions",
      "outputs": [],
      "stateMutability": "nonpayable",
      "type": "function"
    },
    {
      "inputs": [
        {
          "internalType": "string",
          "name": "",
          "type": "string"
        }
      ],
      "name": "addresses",
      "outputs": [
        {
          "internalType": "address",
          "name": "",
          "type": "address"
        }
      ],
      "stateMutability": "view",
      "type": "function"
    },
    {
      "inputs": [
        {
          "internalType": "string",
          "name": "version",
          "type": "string"
        },
        {
          "internalType": "address",
          "name": "vault",
          "type": "address"
        },
        {
          "internalType": "enum BadgerRegistry.VaultStatus",
          "name": "status",
          "type": "uint8"
        }
      ],
      "name": "demote",
      "outputs": [],
      "stateMutability": "nonpayable",
      "type": "function"
    },
    {
      "inputs": [],
      "name": "devGovernance",
      "outputs": [
        {
          "internalType": "address",
          "name": "",
          "type": "address"
        }
      ],
      "stateMutability": "view",
      "type": "function"
    },
    {
      "inputs": [
        {
          "internalType": "string",
          "name": "key",
          "type": "string"
        }
      ],
      "name": "get",
      "outputs": [
        {
          "internalType": "address",
          "name": "",
          "type": "address"
        }
      ],
      "stateMutability": "view",
      "type": "function"
    },
    {
      "inputs": [
        {
          "internalType": "string",
          "name": "version",
          "type": "string"
        },
        {
          "internalType": "enum BadgerRegistry.VaultStatus",
          "name": "status",
          "type": "uint8"
        }
      ],
      "name": "getFilteredProductionVaults",
      "outputs": [
        {
          "internalType": "address[]",
          "name": "",
          "type": "address[]"
        }
      ],
      "stateMutability": "view",
      "type": "function"
    },
    {
      "inputs": [],
      "name": "getProductionVaults",
      "outputs": [
        {
          "components": [
            {
              "internalType": "string",
              "name": "version",
              "type": "string"
            },
            {
              "internalType": "enum BadgerRegistry.VaultStatus",
              "name": "status",
              "type": "uint8"
            },
            {
              "internalType": "address[]",
              "name": "list",
              "type": "address[]"
            }
          ],
          "internalType": "struct BadgerRegistry.VaultData[]",
          "name": "",
          "type": "tuple[]"
        }
      ],
      "stateMutability": "view",
      "type": "function"
    },
    {
      "inputs": [
        {
          "internalType": "string",
          "name": "version",
          "type": "string"
        },
        {
          "internalType": "address",
          "name": "author",
          "type": "address"
        }
      ],
      "name": "getVaults",
      "outputs": [
        {
          "internalType": "address[]",
          "name": "",
          "type": "address[]"
        }
      ],
      "stateMutability": "view",
      "type": "function"
    },
    {
      "inputs": [],
      "name": "governance",
      "outputs": [
        {
          "internalType": "address",
          "name": "",
          "type": "address"
        }
      ],
      "stateMutability": "view",
      "type": "function"
    },
    {
      "inputs": [
        {
          "internalType": "address",
          "name": "newGovernance",
          "type": "address"
        }
      ],
      "name": "initialize",
      "outputs": [],
      "stateMutability": "nonpayable",
      "type": "function"
    },
    {
      "inputs": [
        {
          "internalType": "uint256",
          "name": "",
          "type": "uint256"
        }
      ],
      "name": "keys",
      "outputs": [
        {
          "internalType": "string",
          "name": "",
          "type": "string"
        }
      ],
      "stateMutability": "view",
      "type": "function"
    },
    {
      "inputs": [
        {
          "internalType": "string",
          "name": "version",
          "type": "string"
        },
        {
          "internalType": "address",
          "name": "vault",
          "type": "address"
        },
        {
          "internalType": "enum BadgerRegistry.VaultStatus",
          "name": "status",
          "type": "uint8"
        }
      ],
      "name": "promote",
      "outputs": [],
      "stateMutability": "nonpayable",
      "type": "function"
    },
    {
      "inputs": [
        {
          "internalType": "string",
          "name": "version",
          "type": "string"
        },
        {
          "internalType": "address",
          "name": "vault",
          "type": "address"
        }
      ],
      "name": "remove",
      "outputs": [],
      "stateMutability": "nonpayable",
      "type": "function"
    },
    {
      "inputs": [
        {
          "internalType": "string",
          "name": "key",
          "type": "string"
        },
        {
          "internalType": "address",
          "name": "at",
          "type": "address"
        }
      ],
      "name": "set",
      "outputs": [],
      "stateMutability": "nonpayable",
      "type": "function"
    },
    {
      "inputs": [
        {
          "internalType": "address",
          "name": "newDev",
          "type": "address"
        }
      ],
      "name": "setDev",
      "outputs": [],
      "stateMutability": "nonpayable",
      "type": "function"
    },
    {
      "inputs": [
        {
          "internalType": "address",
          "name": "_newGov",
          "type": "address"
        }
      ],
      "name": "setGovernance",
      "outputs": [],
      "stateMutability": "nonpayable",
      "type": "function"
    },
    {
      "inputs": [
        {
          "internalType": "uint256",
          "name": "",
          "type": "uint256"
        }
      ],
      "name": "versions",
      "outputs": [
        {
          "internalType": "string",
          "name": "",
          "type": "string"
        }
      ],
      "stateMutability": "view",
      "type": "function"
    }
  ],
  "bytecode": "0x608060405234801561001057600080fd5b506117e5806100206000396000f3fe608060405234801561001057600080fd5b50600436106101165760003560e01c8063995d6d5f116100a2578063bdfe7d4711610071578063bdfe7d471461023b578063c4d66de81461024e578063d477f05f14610261578063df06063814610274578063e9af84a31461027c57610116565b8063995d6d5f146101ef578063a815ff1514610202578063ab033ea914610215578063b2108bba1461022857610116565b80633996ae41116100e95780633996ae411461018c5780635aa6e675146101a1578063693ec85e146101b657806387aee00e146101c95780639039997d146101dc57610116565b80630cb6aaf11461011b57806328bb2117146101445780632bffc7ed1461015957806332d734ca1461016c575b600080fd5b61012e610129366004611444565b61028f565b60405161013b91906116d5565b60405180910390f35b61015761015236600461133a565b610335565b005b61015761016736600461133a565b6103b6565b61017f61017a3660046113f4565b610429565b60405161013b91906115f1565b61019461055b565b60405161013b919061163e565b6101a96107fe565b60405161013b9190611563565b6101a96101c43660046112ff565b61080d565b61012e6101d7366004611444565b61083f565b6101576101ea3660046112ff565b61084c565b6101576101fd366004611387565b6108fd565b61015761021036600461133a565b6109fb565b6101576102233660046112e4565b610aaa565b61017f61023636600461133a565b610af6565b6101a96102493660046112ff565b610bf8565b61015761025c3660046112e4565b610c1e565b61015761026f3660046112e4565b610d0f565b6101a9610d70565b61015761028a366004611387565b610d7f565b6005818154811061029c57fe5b600091825260209182902001805460408051601f600260001961010060018716150201909416939093049283018590048502810185019091528181529350909183018282801561032d5780601f106103025761010080835404028352916020019161032d565b820191906000526020600020905b81548152906001019060200180831161031057829003601f168201915b505050505081565b33600090815260026020526040808220905161036d918491610358908790611547565b90815260405190819003602001902090610f0c565b905080156103b1577fa9979f0fffe2ed5b166cc5c7985bdba1d48e29f8fe235009d150609b10d55d353384846040516103a893929190611577565b60405180910390a15b505050565b3360009081526002602052604080822090516103ee9184916103d9908790611547565b90815260405190819003602001902090610f28565b905080156103b1577fd8e508729ff9830b43ef839ead95019f779b9b8ea6e4d30055512fb4ae5819593384846040516103a893929190611577565b6060600061047a6004856040516104409190611547565b9081526020016040518091039020600085600281111561045c57fe5b600281111561046757fe5b8152602001908152602001600020610f3d565b905060608167ffffffffffffffff8111801561049557600080fd5b506040519080825280602002602001820160405280156104bf578160200160208202803683370190505b50905060005b8281101561055057610524816004886040516104e19190611547565b908152602001604051809103902060008860028111156104fd57fe5b600281111561050857fe5b8152602001908152602001600020610f4890919063ffffffff16565b82828151811061053057fe5b6001600160a01b03909216602092830291909101909101526001016104c5565b509150505b92915050565b600654606090816003820267ffffffffffffffff8111801561057c57600080fd5b506040519080825280602002602001820160405280156105b657816020015b6105a361119d565b81526020019060019003908161059b5790505b50905060005b828110156107f75760005b60038110156107ee5760006106226004600685815481106105e457fe5b906000526020600020016040516105fb919061153b565b9081526020016040518091039020600084600281111561061757fe5b600281111561045c57fe5b905060608167ffffffffffffffff8111801561063d57600080fd5b50604051908082528060200260200182016040528015610667578160200160208202803683370190505b50905060005b828110156106f2576106c68160046006888154811061068857fe5b9060005260206000200160405161069f919061153b565b908152602001604051809103902060008760028111156106bb57fe5b60028111156104fd57fe5b8282815181106106d257fe5b6001600160a01b039092166020928302919091019091015260010161066d565b5060405180606001604052806006868154811061070b57fe5b600091825260209182902001805460408051601f60026000196101006001871615020190941693909304928301859004850281018501909152818152928301828280156107995780601f1061076e57610100808354040283529160200191610799565b820191906000526020600020905b81548152906001019060200180831161077c57829003601f168201915b505050505081526020018460028111156107af57fe5b60028111156107ba57fe5b815260200182815250858460020260018903870201815181106107d957fe5b602090810291909101015250506001016105c7565b506001016105bc565b5091505090565b6000546001600160a01b031681565b600060038260405161081f9190611547565b908152604051908190036020019020546001600160a01b03169050919050565b6006818154811061029c57fe5b6000546001600160a01b0316331461087f5760405162461bcd60e51b815260040161087690611754565b60405180910390fd5b6006805460018101825560009190915281516108c2917ff652222313e28459528d920b65115c16c04f3efc82aaedc97be59f3f377c0d3f019060208401906111bc565b507f59ae058b814fd9ef4fc477fc77469013fe420011c8b4a21fdc165dee6d14a465816040516108f291906116d5565b60405180910390a150565b6000546001600160a01b031633148061092057506001546001600160a01b031633145b61093c5760405162461bcd60e51b815260040161087690611754565b60015481906001600160a01b0316331415610955575060005b60006109ae8460048760405161096b9190611547565b9081526020016040518091039020600085600281111561098757fe5b600281111561099257fe5b8152602001908152602001600020610f0c90919063ffffffff16565b905080156109f4577f449b9aaa83a653b50e09cae65213d4967d32a789c3ebcf2e4d30629fabf920b7338686866040516109eb94939291906115ac565b60405180910390a15b5050505050565b6000546001600160a01b03163314610a255760405162461bcd60e51b815260040161087690611754565b610a2e82610f54565b80600383604051610a3f9190611547565b90815260405190819003602001812080546001600160a01b03939093166001600160a01b0319909316929092179091557f496595ced95720268cf8bc60bae3f35024ff2a130f73ac4e20f5c1eaca35db9990610a9e90849084906116e8565b60405180910390a15050565b6000546001600160a01b03163314610ad45760405162461bcd60e51b815260040161087690611754565b600080546001600160a01b0319166001600160a01b0392909216919091179055565b6001600160a01b038116600090815260026020526040808220905160609291610b3791610b24908790611547565b9081526020016040518091039020610f3d565b905060608167ffffffffffffffff81118015610b5257600080fd5b50604051908082528060200260200182016040528015610b7c578160200160208202803683370190505b50905060005b82811015610550576001600160a01b038516600090815260026020526040908190209051610bcc918391610bb7908a90611547565b90815260405190819003602001902090610f48565b828281518110610bd857fe5b6001600160a01b0390921660209283029190910190910152600101610b82565b80516020818301810180516003825292820191909301209152546001600160a01b031681565b6000546001600160a01b031615610c3457600080fd5b600080546001600160a01b03199081166001600160a01b03841617825560018054909116815560068054918201815590915260408051808201909152600280825261763160f01b6020909201918252610cb0927ff652222313e28459528d920b65115c16c04f3efc82aaedc97be59f3f377c0d3f0191906111bc565b5060068054600181018255600091909152604080518082019091526002808252613b1960f11b6020909201918252610d0b927ff652222313e28459528d920b65115c16c04f3efc82aaedc97be59f3f377c0d3f0191906111bc565b5050565b6000546001600160a01b0316331480610d3257506001546001600160a01b031633145b610d4e5760405162461bcd60e51b815260040161087690611754565b600180546001600160a01b0319166001600160a01b0392909216919091179055565b6001546001600160a01b031681565b6000546001600160a01b0316331480610da257506001546001600160a01b031633145b610dbe5760405162461bcd60e51b815260040161087690611754565b60015481906001600160a01b0316331415610dd7575060005b6000610e3084600487604051610ded9190611547565b90815260200160405180910390206000856002811115610e0957fe5b6002811115610e1457fe5b8152602001908152602001600020610f2890919063ffffffff16565b905080156109f457816002811115610e4457fe5b60021415610ead57610e7e84600487604051610e609190611547565b9081526040519081900360200190206000805b600281111561098757fe5b50610eab84600487604051610e939190611547565b90815260405190819003602001902060006001610e73565b505b816002811115610eb957fe5b60011415610ed757610ed584600487604051610e609190611547565b505b7fc9246f6fe5c84874984cd0ec439bbbc7c14383f183f190d4a862c08e8fb1ca23338686856040516109eb94939291906115ac565b6000610f21836001600160a01b03841661102c565b9392505050565b6000610f21836001600160a01b0384166110f2565b60006105558261113c565b6000610f218383611140565b6000805b600554811015610fa95760058181548110610f6f57fe5b90600052602060002001604051610f86919061153b565b604051809103902083805190602001201415610fa157600191505b600101610f58565b508015610fb65750611029565b600580546001810182556000919091528251610ff9917f036b6384b5eca791c62761152d0c79bb0604c104a5fb6f4eb0703f3154bb3db0019060208501906111bc565b507ffd12be537a9b872d3f528a11bd8bd5230d6a8c47dbb79669be3c01717b2d405682604051610a9e91906116d5565b50565b600081815260018301602052604081205480156110e8578354600019808301919081019060009087908390811061105f57fe5b906000526020600020015490508087600001848154811061107c57fe5b6000918252602080832090910192909255828152600189810190925260409020908401905586548790806110ac57fe5b60019003818190600052602060002001600090559055866001016000878152602001908152602001600020600090556001945050505050610555565b6000915050610555565b60006110fe8383611185565b61113457508154600181810184556000848152602080822090930184905584548482528286019093526040902091909155610555565b506000610555565b5490565b815460009082106111635760405162461bcd60e51b815260040161087690611712565b82600001828154811061117257fe5b9060005260206000200154905092915050565b60009081526001919091016020526040902054151590565b6040805160608082018352808252600060208301529181019190915290565b828054600181600116156101000203166002900490600052602060002090601f016020900481019282601f106111fd57805160ff191683800117855561122a565b8280016001018555821561122a579182015b8281111561122a57825182559160200191906001019061120f565b5061123692915061123a565b5090565b5b80821115611236576000815560010161123b565b80356001600160a01b038116811461055557600080fd5b600082601f830112611276578081fd5b813567ffffffffffffffff8082111561128d578283fd5b604051601f8301601f1916810160200182811182821017156112ad578485fd5b6040528281529250828483016020018610156112c857600080fd5b8260208601602083013760006020848301015250505092915050565b6000602082840312156112f5578081fd5b610f21838361124f565b600060208284031215611310578081fd5b813567ffffffffffffffff811115611326578182fd5b61133284828501611266565b949350505050565b6000806040838503121561134c578081fd5b823567ffffffffffffffff811115611362578182fd5b61136e85828601611266565b92505061137e846020850161124f565b90509250929050565b60008060006060848603121561139b578081fd5b833567ffffffffffffffff8111156113b1578182fd5b6113bd86828701611266565b93505060208401356001600160a01b03811681146113d9578182fd5b915060408401356113e9816117a2565b809150509250925092565b60008060408385031215611406578182fd5b823567ffffffffffffffff81111561141c578283fd5b61142885828601611266565b9250506020830135611439816117a2565b809150509250929050565b600060208284031215611455578081fd5b5035919050565b6000815180845260208085019450808401835b838110156114945781516001600160a01b03168752958201959082019060010161146f565b509495945050505050565b600081546001808216600081146114bd57600181146114d457611506565b60ff198316865260028304607f1686019350611506565b600283048560005260208060002060005b838110156114fe5781548a8201529085019082016114e5565b505050860193505b50505092915050565b60008151808452611527816020860160208601611772565b601f01601f19169290920160200192915050565b6000610f21828461149f565b60008251611559818460208701611772565b9190910192915050565b6001600160a01b0391909116815260200190565b600060018060a01b03808616835260606020840152611599606084018661150f565b9150808416604084015250949350505050565b600060018060a01b038087168352608060208401526115ce608084018761150f565b90851660408401529050600383106115e257fe5b82606083015295945050505050565b6020808252825182820181905260009190848201906040850190845b818110156116325783516001600160a01b03168352928401929184019160010161160d565b50909695505050505050565b60208082528251828201819052600091906040908185019080840286018301878501865b838110156116c757603f198984030185528151606081518186526116888287018261150f565b915050888201516003811061169957fe5b858a01529087015184820388860152906116b3818361145c565b968901969450505090860190600101611662565b509098975050505050505050565b600060208252610f21602083018461150f565b6000604082526116fb604083018561150f565b905060018060a01b03831660208301529392505050565b60208082526022908201527f456e756d657261626c655365743a20696e646578206f7574206f6620626f756e604082015261647360f01b606082015260800190565b60208082526004908201526310b3b7bb60e11b604082015260600190565b60005b8381101561178d578181015183820152602001611775565b8381111561179c576000848401525b50505050565b6003811061102957600080fdfea2646970667358221220a70c10dc0c2bfaabb1c0b69399d4a36eb7ebf3477069260e38fe3ec7b57e3fe464736f6c634300060c0033",
  "linkReferences": {},
  "deployedLinkReferences": {}
}