{
  "_format": "hh-sol-artifact-1",
  "contractName": "SettAccessControl",
  "sourceName": "deps/SettAccessControl.sol",
  "abi": [
    {
      "inputs": [],
      "name": "governance",
      "outputs": [
        {
          "internalType": "address",
          "name": "",
          "type": "address"
        }
      ],
      "stateMutability": "view",
      "type": "function"
    },
    {
      "inputs": [],
      "name": "keeper",
      "outputs": [
        {
          "internalType": "address",
          "name": "",
          "type": "address"
        }
      ],
      "stateMutability": "view",
      "type": "function"
    },
    {
      "inputs": [
        {
          "internalType": "address",
          "name": "_governance",
          "type": "address"
        }
      ],
      "name": "setGovernance",
      "outputs": [],
      "stateMutability": "nonpayable",
      "type": "function"
    },
    {
      "inputs": [
        {
          "internalType": "address",
          "name": "_keeper",
          "type": "address"
        }
      ],
      "name": "setKeeper",
      "outputs": [],
      "stateMutability": "nonpayable",
      "type": "function"
    },
    {
      "inputs": [
        {
          "internalType": "address",
          "name": "_strategist",
          "type": "address"
        }
      ],
      "name": "setStrategist",
      "outputs": [],
      "stateMutability": "nonpayable",
      "type": "function"
    },
    {
      "inputs": [],
      "name": "strategist",
      "outputs": [
        {
          "internalType": "address",
          "name": "",
          "type": "address"
        }
      ],
      "stateMutability": "view",
      "type": "function"
    }
  ],
  "bytecode": "0x608060405234801561001057600080fd5b50610256806100206000396000f3fe608060405234801561001057600080fd5b50600436106100625760003560e01c80631fe4a686146100675780635aa6e6751461008b578063748747e614610093578063ab033ea9146100bb578063aced1661146100e1578063c7b9d530146100e9575b600080fd5b61006f61010f565b604080516001600160a01b039092168252519081900360200190f35b61006f61011e565b6100b9600480360360208110156100a957600080fd5b50356001600160a01b0316610133565b005b6100b9600480360360208110156100d157600080fd5b50356001600160a01b031661015d565b61006f61018f565b6100b9600480360360208110156100ff57600080fd5b50356001600160a01b031661019e565b6001546001600160a01b031681565b6000546201000090046001600160a01b031681565b61013b6101c8565b600280546001600160a01b0319166001600160a01b0392909216919091179055565b6101656101c8565b600080546001600160a01b03909216620100000262010000600160b01b0319909216919091179055565b6002546001600160a01b031681565b6101a66101c8565b600180546001600160a01b0319166001600160a01b0392909216919091179055565b6000546201000090046001600160a01b0316331461021e576040805162461bcd60e51b815260206004820152600e60248201526d6f6e6c79476f7665726e616e636560901b604482015290519081900360640190fd5b56fea26469706673582212204ef7ebe4a5f65fe3b08f75323b78ca2501ce47d3471278fe53399a02b73fedf464736f6c634300060c0033",
  "linkReferences": {},
  "deployedLinkReferences": {}
}