{
  "_format": "hh-sol-artifact-1",
  "contractName": "StrategyConvexStakingOptimizer",
  "sourceName": "contracts/StrategyConvexStakingOptimizer.sol",
  "abi": [
    {
      "anonymous": false,
      "inputs": [
        {
          "indexed": false,
          "internalType": "uint256",
          "name": "harvested",
          "type": "uint256"
        },
        {
          "indexed": true,
          "internalType": "uint256",
          "name": "blockNumber",
          "type": "uint256"
        }
      ],
      "name": "Harvest",
      "type": "event"
    },
    {
      "anonymous": false,
      "inputs": [
        {
          "indexed": false,
          "internalType": "address",
          "name": "account",
          "type": "address"
        }
      ],
      "name": "Paused",
      "type": "event"
    },
    {
      "anonymous": false,
      "inputs": [
        {
          "indexed": true,
          "internalType": "address",
          "name": "destination",
          "type": "address"
        },
        {
          "indexed": true,
          "internalType": "address",
          "name": "token",
          "type": "address"
        },
        {
          "indexed": false,
          "internalType": "uint256",
          "name": "amount",
          "type": "uint256"
        },
        {
          "indexed": true,
          "internalType": "uint256",
          "name": "blockNumber",
          "type": "uint256"
        },
        {
          "indexed": false,
          "internalType": "uint256",
          "name": "timestamp",
          "type": "uint256"
        }
      ],
      "name": "PerformanceFeeGovernance",
      "type": "event"
    },
    {
      "anonymous": false,
      "inputs": [
        {
          "indexed": true,
          "internalType": "address",
          "name": "destination",
          "type": "address"
        },
        {
          "indexed": true,
          "internalType": "address",
          "name": "token",
          "type": "address"
        },
        {
          "indexed": false,
          "internalType": "uint256",
          "name": "amount",
          "type": "uint256"
        },
        {
          "indexed": true,
          "internalType": "uint256",
          "name": "blockNumber",
          "type": "uint256"
        },
        {
          "indexed": false,
          "internalType": "uint256",
          "name": "timestamp",
          "type": "uint256"
        }
      ],
      "name": "PerformanceFeeStrategist",
      "type": "event"
    },
    {
      "anonymous": false,
      "inputs": [
        {
          "indexed": false,
          "internalType": "address",
          "name": "controller",
          "type": "address"
        }
      ],
      "name": "SetController",
      "type": "event"
    },
    {
      "anonymous": false,
      "inputs": [
        {
          "indexed": false,
          "internalType": "address",
          "name": "governance",
          "type": "address"
        }
      ],
      "name": "SetGovernance",
      "type": "event"
    },
    {
      "anonymous": false,
      "inputs": [
        {
          "indexed": false,
          "internalType": "uint256",
          "name": "performanceFeeGovernance",
          "type": "uint256"
        }
      ],
      "name": "SetPerformanceFeeGovernance",
      "type": "event"
    },
    {
      "anonymous": false,
      "inputs": [
        {
          "indexed": false,
          "internalType": "uint256",
          "name": "performanceFeeStrategist",
          "type": "uint256"
        }
      ],
      "name": "SetPerformanceFeeStrategist",
      "type": "event"
    },
    {
      "anonymous": false,
      "inputs": [
        {
          "indexed": false,
          "internalType": "address",
          "name": "strategist",
          "type": "address"
        }
      ],
      "name": "SetStrategist",
      "type": "event"
    },
    {
      "anonymous": false,
      "inputs": [
        {
          "indexed": false,
          "internalType": "uint256",
          "name": "withdrawalFee",
          "type": "uint256"
        }
      ],
      "name": "SetWithdrawalFee",
      "type": "event"
    },
    {
      "anonymous": false,
      "inputs": [
        {
          "indexed": false,
          "internalType": "uint256",
          "name": "tended",
          "type": "uint256"
        }
      ],
      "name": "Tend",
      "type": "event"
    },
    {
      "anonymous": false,
      "inputs": [
        {
          "indexed": false,
          "internalType": "uint256",
          "name": "crvTended",
          "type": "uint256"
        },
        {
          "indexed": false,
          "internalType": "uint256",
          "name": "cvxTended",
          "type": "uint256"
        },
        {
          "indexed": false,
          "internalType": "uint256",
          "name": "cvxCrvTended",
          "type": "uint256"
        }
      ],
      "name": "TendState",
      "type": "event"
    },
    {
      "anonymous": false,
      "inputs": [
        {
          "indexed": false,
          "internalType": "address",
          "name": "tokenIn",
          "type": "address"
        },
        {
          "indexed": false,
          "internalType": "address",
          "name": "tokenOut",
          "type": "address"
        },
        {
          "indexed": false,
          "internalType": "address[]",
          "name": "path",
          "type": "address[]"
        }
      ],
      "name": "TokenSwapPathSet",
      "type": "event"
    },
    {
      "anonymous": false,
      "inputs": [
        {
          "indexed": true,
          "internalType": "address",
          "name": "token",
          "type": "address"
        },
        {
          "indexed": false,
          "internalType": "uint256",
          "name": "amount",
          "type": "uint256"
        },
        {
          "indexed": true,
          "internalType": "uint256",
          "name": "blockNumber",
          "type": "uint256"
        },
        {
          "indexed": false,
          "internalType": "uint256",
          "name": "timestamp",
          "type": "uint256"
        }
      ],
      "name": "TreeDistribution",
      "type": "event"
    },
    {
      "anonymous": false,
      "inputs": [
        {
          "indexed": false,
          "internalType": "address",
          "name": "account",
          "type": "address"
        }
      ],
      "name": "Unpaused",
      "type": "event"
    },
    {
      "anonymous": false,
      "inputs": [
        {
          "indexed": false,
          "internalType": "uint256",
          "name": "amount",
          "type": "uint256"
        }
      ],
      "name": "Withdraw",
      "type": "event"
    },
    {
      "anonymous": false,
      "inputs": [
        {
          "indexed": false,
          "internalType": "uint256",
          "name": "balance",
          "type": "uint256"
        }
      ],
      "name": "WithdrawAll",
      "type": "event"
    },
    {
      "anonymous": false,
      "inputs": [
        {
          "indexed": false,
          "internalType": "address",
          "name": "token",
          "type": "address"
        },
        {
          "indexed": false,
          "internalType": "uint256",
          "name": "amount",
          "type": "uint256"
        }
      ],
      "name": "WithdrawOther",
      "type": "event"
    },
    {
      "anonymous": false,
      "inputs": [
        {
          "indexed": false,
          "internalType": "uint256",
          "name": "toWithdraw",
          "type": "uint256"
        },
        {
          "indexed": false,
          "internalType": "uint256",
          "name": "preWant",
          "type": "uint256"
        },
        {
          "indexed": false,
          "internalType": "uint256",
          "name": "postWant",
          "type": "uint256"
        },
        {
          "indexed": false,
          "internalType": "uint256",
          "name": "withdrawn",
          "type": "uint256"
        }
      ],
      "name": "WithdrawState",
      "type": "event"
    },
    {
      "inputs": [],
      "name": "MAX_FEE",
      "outputs": [
        {
          "internalType": "uint256",
          "name": "",
          "type": "uint256"
        }
      ],
      "stateMutability": "view",
      "type": "function"
    },
    {
      "inputs": [],
      "name": "MAX_UINT_256",
      "outputs": [
        {
          "internalType": "uint256",
          "name": "",
          "type": "uint256"
        }
      ],
      "stateMutability": "view",
      "type": "function"
    },
    {
      "inputs": [
        {
          "internalType": "address",
          "name": "_governance",
          "type": "address"
        },
        {
          "internalType": "address",
          "name": "_strategist",
          "type": "address"
        },
        {
          "internalType": "address",
          "name": "_controller",
          "type": "address"
        },
        {
          "internalType": "address",
          "name": "_keeper",
          "type": "address"
        },
        {
          "internalType": "address",
          "name": "_guardian",
          "type": "address"
        }
      ],
      "name": "__BaseStrategy_init",
      "outputs": [],
      "stateMutability": "nonpayable",
      "type": "function"
    },
    {
      "inputs": [],
      "name": "addressProvider",
      "outputs": [
        {
          "internalType": "address",
          "name": "",
          "type": "address"
        }
      ],
      "stateMutability": "view",
      "type": "function"
    },
    {
      "inputs": [],
      "name": "autoCompoundingBps",
      "outputs": [
        {
          "internalType": "uint256",
          "name": "",
          "type": "uint256"
        }
      ],
      "stateMutability": "view",
      "type": "function"
    },
    {
      "inputs": [],
      "name": "autoCompoundingPerformanceFeeGovernance",
      "outputs": [
        {
          "internalType": "uint256",
          "name": "",
          "type": "uint256"
        }
      ],
      "stateMutability": "view",
      "type": "function"
    },
    {
      "inputs": [],
      "name": "badgerTree",
      "outputs": [
        {
          "internalType": "address",
          "name": "",
          "type": "address"
        }
      ],
      "stateMutability": "view",
      "type": "function"
    },
    {
      "inputs": [],
      "name": "balanceOf",
      "outputs": [
        {
          "internalType": "uint256",
          "name": "",
          "type": "uint256"
        }
      ],
      "stateMutability": "view",
      "type": "function"
    },
    {
      "inputs": [],
      "name": "balanceOfPool",
      "outputs": [
        {
          "internalType": "uint256",
          "name": "",
          "type": "uint256"
        }
      ],
      "stateMutability": "view",
      "type": "function"
    },
    {
      "inputs": [],
      "name": "balanceOfWant",
      "outputs": [
        {
          "internalType": "uint256",
          "name": "",
          "type": "uint256"
        }
      ],
      "stateMutability": "view",
      "type": "function"
    },
    {
      "inputs": [],
      "name": "baseRewardsPool",
      "outputs": [
        {
          "internalType": "contract IBaseRewardsPool",
          "name": "",
          "type": "address"
        }
      ],
      "stateMutability": "view",
      "type": "function"
    },
    {
      "inputs": [],
      "name": "baseStrategyVersion",
      "outputs": [
        {
          "internalType": "string",
          "name": "",
          "type": "string"
        }
      ],
      "stateMutability": "view",
      "type": "function"
    },
    {
      "inputs": [],
      "name": "booster",
      "outputs": [
        {
          "internalType": "contract IBooster",
          "name": "",
          "type": "address"
        }
      ],
      "stateMutability": "view",
      "type": "function"
    },
    {
      "inputs": [],
      "name": "bveCVX",
      "outputs": [
        {
          "internalType": "contract IERC20Upgradeable",
          "name": "",
          "type": "address"
        }
      ],
      "stateMutability": "view",
      "type": "function"
    },
    {
      "inputs": [],
      "name": "controller",
      "outputs": [
        {
          "internalType": "address",
          "name": "",
          "type": "address"
        }
      ],
      "stateMutability": "view",
      "type": "function"
    },
    {
      "inputs": [],
      "name": "crv",
      "outputs": [
        {
          "internalType": "address",
          "name": "",
          "type": "address"
        }
      ],
      "stateMutability": "view",
      "type": "function"
    },
    {
      "inputs": [],
      "name": "crvCvxCrvPoolIndex",
      "outputs": [
        {
          "internalType": "uint256",
          "name": "",
          "type": "uint256"
        }
      ],
      "stateMutability": "view",
      "type": "function"
    },
    {
      "inputs": [],
      "name": "crvDepositor",
      "outputs": [
        {
          "internalType": "contract CrvDepositor",
          "name": "",
          "type": "address"
        }
      ],
      "stateMutability": "view",
      "type": "function"
    },
    {
      "inputs": [],
      "name": "crvToken",
      "outputs": [
        {
          "internalType": "contract IERC20Upgradeable",
          "name": "",
          "type": "address"
        }
      ],
      "stateMutability": "view",
      "type": "function"
    },
    {
      "inputs": [],
      "name": "curvePool",
      "outputs": [
        {
          "internalType": "address",
          "name": "swap",
          "type": "address"
        },
        {
          "internalType": "uint256",
          "name": "wbtcPosition",
          "type": "uint256"
        },
        {
          "internalType": "uint256",
          "name": "numElements",
          "type": "uint256"
        }
      ],
      "stateMutability": "view",
      "type": "function"
    },
    {
      "inputs": [],
      "name": "cvx",
      "outputs": [
        {
          "internalType": "address",
          "name": "",
          "type": "address"
        }
      ],
      "stateMutability": "view",
      "type": "function"
    },
    {
      "inputs": [],
      "name": "cvxCrv",
      "outputs": [
        {
          "internalType": "address",
          "name": "",
          "type": "address"
        }
      ],
      "stateMutability": "view",
      "type": "function"
    },
    {
      "inputs": [],
      "name": "cvxCrvHelperVault",
      "outputs": [
        {
          "internalType": "contract ISettV4",
          "name": "",
          "type": "address"
        }
      ],
      "stateMutability": "view",
      "type": "function"
    },
    {
      "inputs": [],
      "name": "cvxCrvRewardsPool",
      "outputs": [
        {
          "internalType": "contract IBaseRewardsPool",
          "name": "",
          "type": "address"
        }
      ],
      "stateMutability": "view",
      "type": "function"
    },
    {
      "inputs": [],
      "name": "cvxCrvToken",
      "outputs": [
        {
          "internalType": "contract IERC20Upgradeable",
          "name": "",
          "type": "address"
        }
      ],
      "stateMutability": "view",
      "type": "function"
    },
    {
      "inputs": [],
      "name": "cvxHelperVault",
      "outputs": [
        {
          "internalType": "contract ISettV4",
          "name": "",
          "type": "address"
        }
      ],
      "stateMutability": "view",
      "type": "function"
    },
    {
      "inputs": [],
      "name": "cvxRewardsPool",
      "outputs": [
        {
          "internalType": "contract ICvxRewardsPool",
          "name": "",
          "type": "address"
        }
      ],
      "stateMutability": "view",
      "type": "function"
    },
    {
      "inputs": [],
      "name": "cvxToken",
      "outputs": [
        {
          "internalType": "contract IERC20Upgradeable",
          "name": "",
          "type": "address"
        }
      ],
      "stateMutability": "view",
      "type": "function"
    },
    {
      "inputs": [],
      "name": "deposit",
      "outputs": [],
      "stateMutability": "nonpayable",
      "type": "function"
    },
    {
      "inputs": [],
      "name": "getName",
      "outputs": [
        {
          "internalType": "string",
          "name": "",
          "type": "string"
        }
      ],
      "stateMutability": "pure",
      "type": "function"
    },
    {
      "inputs": [],
      "name": "getProtectedTokens",
      "outputs": [
        {
          "internalType": "address[]",
          "name": "",
          "type": "address[]"
        }
      ],
      "stateMutability": "view",
      "type": "function"
    },
    {
      "inputs": [
        {
          "internalType": "address",
          "name": "tokenIn",
          "type": "address"
        },
        {
          "internalType": "address",
          "name": "tokenOut",
          "type": "address"
        }
      ],
      "name": "getTokenSwapPath",
      "outputs": [
        {
          "internalType": "address[]",
          "name": "",
          "type": "address[]"
        }
      ],
      "stateMutability": "view",
      "type": "function"
    },
    {
      "inputs": [],
      "name": "governance",
      "outputs": [
        {
          "internalType": "address",
          "name": "",
          "type": "address"
        }
      ],
      "stateMutability": "view",
      "type": "function"
    },
    {
      "inputs": [],
      "name": "guardian",
      "outputs": [
        {
          "internalType": "address",
          "name": "",
          "type": "address"
        }
      ],
      "stateMutability": "view",
      "type": "function"
    },
    {
      "inputs": [],
      "name": "harvest",
      "outputs": [
        {
          "internalType": "uint256",
          "name": "",
          "type": "uint256"
        }
      ],
      "stateMutability": "nonpayable",
      "type": "function"
    },
    {
      "inputs": [
        {
          "internalType": "address",
          "name": "_governance",
          "type": "address"
        },
        {
          "internalType": "address",
          "name": "_strategist",
          "type": "address"
        },
        {
          "internalType": "address",
          "name": "_controller",
          "type": "address"
        },
        {
          "internalType": "address",
          "name": "_keeper",
          "type": "address"
        },
        {
          "internalType": "address",
          "name": "_guardian",
          "type": "address"
        },
        {
          "internalType": "address[4]",
          "name": "_wantConfig",
          "type": "address[4]"
        },
        {
          "internalType": "uint256",
          "name": "_pid",
          "type": "uint256"
        },
        {
          "internalType": "uint256[3]",
          "name": "_feeConfig",
          "type": "uint256[3]"
        },
        {
          "components": [
            {
              "internalType": "address",
              "name": "swap",
              "type": "address"
            },
            {
              "internalType": "uint256",
              "name": "wbtcPosition",
              "type": "uint256"
            },
            {
              "internalType": "uint256",
              "name": "numElements",
              "type": "uint256"
            }
          ],
          "internalType": "struct StrategyConvexStakingOptimizer.CurvePoolConfig",
          "name": "_curvePool",
          "type": "tuple"
        }
      ],
      "name": "initialize",
      "outputs": [],
      "stateMutability": "nonpayable",
      "type": "function"
    },
    {
      "inputs": [],
      "name": "initializeApprovals",
      "outputs": [],
      "stateMutability": "nonpayable",
      "type": "function"
    },
    {
      "inputs": [
        {
          "internalType": "address",
          "name": "token",
          "type": "address"
        }
      ],
      "name": "isProtectedToken",
      "outputs": [
        {
          "internalType": "bool",
          "name": "",
          "type": "bool"
        }
      ],
      "stateMutability": "view",
      "type": "function"
    },
    {
      "inputs": [],
      "name": "isTendable",
      "outputs": [
        {
          "internalType": "bool",
          "name": "",
          "type": "bool"
        }
      ],
      "stateMutability": "view",
      "type": "function"
    },
    {
      "inputs": [],
      "name": "keeper",
      "outputs": [
        {
          "internalType": "address",
          "name": "",
          "type": "address"
        }
      ],
      "stateMutability": "view",
      "type": "function"
    },
    {
      "inputs": [],
      "name": "metaPoolFactoryId",
      "outputs": [
        {
          "internalType": "uint256",
          "name": "",
          "type": "uint256"
        }
      ],
      "stateMutability": "view",
      "type": "function"
    },
    {
      "inputs": [],
      "name": "pause",
      "outputs": [],
      "stateMutability": "nonpayable",
      "type": "function"
    },
    {
      "inputs": [],
      "name": "paused",
      "outputs": [
        {
          "internalType": "bool",
          "name": "",
          "type": "bool"
        }
      ],
      "stateMutability": "view",
      "type": "function"
    },
    {
      "inputs": [],
      "name": "performanceFeeGovernance",
      "outputs": [
        {
          "internalType": "uint256",
          "name": "",
          "type": "uint256"
        }
      ],
      "stateMutability": "view",
      "type": "function"
    },
    {
      "inputs": [],
      "name": "performanceFeeStrategist",
      "outputs": [
        {
          "internalType": "uint256",
          "name": "",
          "type": "uint256"
        }
      ],
      "stateMutability": "view",
      "type": "function"
    },
    {
      "inputs": [],
      "name": "pid",
      "outputs": [
        {
          "internalType": "uint256",
          "name": "",
          "type": "uint256"
        }
      ],
      "stateMutability": "view",
      "type": "function"
    },
    {
      "inputs": [],
      "name": "registryId",
      "outputs": [
        {
          "internalType": "uint256",
          "name": "",
          "type": "uint256"
        }
      ],
      "stateMutability": "view",
      "type": "function"
    },
    {
      "inputs": [
        {
          "internalType": "uint256",
          "name": "_bps",
          "type": "uint256"
        }
      ],
      "name": "setAutoCompoundingBps",
      "outputs": [],
      "stateMutability": "nonpayable",
      "type": "function"
    },
    {
      "inputs": [
        {
          "internalType": "uint256",
          "name": "_bps",
          "type": "uint256"
        }
      ],
      "name": "setAutoCompoundingPerformanceFeeGovernance",
      "outputs": [],
      "stateMutability": "nonpayable",
      "type": "function"
    },
    {
      "inputs": [
        {
          "internalType": "address",
          "name": "_controller",
          "type": "address"
        }
      ],
      "name": "setController",
      "outputs": [],
      "stateMutability": "nonpayable",
      "type": "function"
    },
    {
      "inputs": [
        {
          "internalType": "address",
          "name": "_swap",
          "type": "address"
        }
      ],
      "name": "setCurvePoolSwap",
      "outputs": [],
      "stateMutability": "nonpayable",
      "type": "function"
    },
    {
      "inputs": [
        {
          "internalType": "address",
          "name": "_governance",
          "type": "address"
        }
      ],
      "name": "setGovernance",
      "outputs": [],
      "stateMutability": "nonpayable",
      "type": "function"
    },
    {
      "inputs": [
        {
          "internalType": "address",
          "name": "_guardian",
          "type": "address"
        }
      ],
      "name": "setGuardian",
      "outputs": [],
      "stateMutability": "nonpayable",
      "type": "function"
    },
    {
      "inputs": [
        {
          "internalType": "address",
          "name": "_keeper",
          "type": "address"
        }
      ],
      "name": "setKeeper",
      "outputs": [],
      "stateMutability": "nonpayable",
      "type": "function"
    },
    {
      "inputs": [
        {
          "internalType": "uint256",
          "name": "_performanceFeeGovernance",
          "type": "uint256"
        }
      ],
      "name": "setPerformanceFeeGovernance",
      "outputs": [],
      "stateMutability": "nonpayable",
      "type": "function"
    },
    {
      "inputs": [
        {
          "internalType": "uint256",
          "name": "_performanceFeeStrategist",
          "type": "uint256"
        }
      ],
      "name": "setPerformanceFeeStrategist",
      "outputs": [],
      "stateMutability": "nonpayable",
      "type": "function"
    },
    {
      "inputs": [
        {
          "internalType": "uint256",
          "name": "_pid",
          "type": "uint256"
        }
      ],
      "name": "setPid",
      "outputs": [],
      "stateMutability": "nonpayable",
      "type": "function"
    },
    {
      "inputs": [
        {
          "internalType": "address",
          "name": "_strategist",
          "type": "address"
        }
      ],
      "name": "setStrategist",
      "outputs": [],
      "stateMutability": "nonpayable",
      "type": "function"
    },
    {
      "inputs": [
        {
          "internalType": "uint256",
          "name": "_withdrawalFee",
          "type": "uint256"
        }
      ],
      "name": "setWithdrawalFee",
      "outputs": [],
      "stateMutability": "nonpayable",
      "type": "function"
    },
    {
      "inputs": [
        {
          "internalType": "uint256",
          "name": "_threshold",
          "type": "uint256"
        }
      ],
      "name": "setWithdrawalMaxDeviationThreshold",
      "outputs": [],
      "stateMutability": "nonpayable",
      "type": "function"
    },
    {
      "inputs": [
        {
          "internalType": "uint256",
          "name": "_sl",
          "type": "uint256"
        }
      ],
      "name": "setstableSwapSlippageTolerance",
      "outputs": [],
      "stateMutability": "nonpayable",
      "type": "function"
    },
    {
      "inputs": [],
      "name": "stableSwapSlippageTolerance",
      "outputs": [
        {
          "internalType": "uint256",
          "name": "",
          "type": "uint256"
        }
      ],
      "stateMutability": "view",
      "type": "function"
    },
    {
      "inputs": [],
      "name": "strategist",
      "outputs": [
        {
          "internalType": "address",
          "name": "",
          "type": "address"
        }
      ],
      "stateMutability": "view",
      "type": "function"
    },
    {
      "inputs": [],
      "name": "tend",
      "outputs": [
        {
          "components": [
            {
              "internalType": "uint256",
              "name": "crvTended",
              "type": "uint256"
            },
            {
              "internalType": "uint256",
              "name": "cvxTended",
              "type": "uint256"
            },
            {
              "internalType": "uint256",
              "name": "cvxCrvTended",
              "type": "uint256"
            }
          ],
          "internalType": "struct StrategyConvexStakingOptimizer.TendData",
          "name": "",
          "type": "tuple"
        }
      ],
      "stateMutability": "nonpayable",
      "type": "function"
    },
    {
      "inputs": [],
      "name": "threeCrv",
      "outputs": [
        {
          "internalType": "address",
          "name": "",
          "type": "address"
        }
      ],
      "stateMutability": "view",
      "type": "function"
    },
    {
      "inputs": [],
      "name": "threeCrvSwap",
      "outputs": [
        {
          "internalType": "address",
          "name": "",
          "type": "address"
        }
      ],
      "stateMutability": "view",
      "type": "function"
    },
    {
      "inputs": [],
      "name": "threeCrvToken",
      "outputs": [
        {
          "internalType": "contract IERC20Upgradeable",
          "name": "",
          "type": "address"
        }
      ],
      "stateMutability": "view",
      "type": "function"
    },
    {
      "inputs": [
        {
          "internalType": "address",
          "name": "",
          "type": "address"
        },
        {
          "internalType": "address",
          "name": "",
          "type": "address"
        },
        {
          "internalType": "uint256",
          "name": "",
          "type": "uint256"
        }
      ],
      "name": "tokenSwapPaths",
      "outputs": [
        {
          "internalType": "address",
          "name": "",
          "type": "address"
        }
      ],
      "stateMutability": "view",
      "type": "function"
    },
    {
      "inputs": [],
      "name": "unpause",
      "outputs": [],
      "stateMutability": "nonpayable",
      "type": "function"
    },
    {
      "inputs": [],
      "name": "usdc",
      "outputs": [
        {
          "internalType": "address",
          "name": "",
          "type": "address"
        }
      ],
      "stateMutability": "view",
      "type": "function"
    },
    {
      "inputs": [],
      "name": "usdcToken",
      "outputs": [
        {
          "internalType": "contract IERC20Upgradeable",
          "name": "",
          "type": "address"
        }
      ],
      "stateMutability": "view",
      "type": "function"
    },
    {
      "inputs": [],
      "name": "version",
      "outputs": [
        {
          "internalType": "string",
          "name": "",
          "type": "string"
        }
      ],
      "stateMutability": "pure",
      "type": "function"
    },
    {
      "inputs": [],
      "name": "want",
      "outputs": [
        {
          "internalType": "address",
          "name": "",
          "type": "address"
        }
      ],
      "stateMutability": "view",
      "type": "function"
    },
    {
      "inputs": [],
      "name": "wbtc",
      "outputs": [
        {
          "internalType": "address",
          "name": "",
          "type": "address"
        }
      ],
      "stateMutability": "view",
      "type": "function"
    },
    {
      "inputs": [],
      "name": "wbtcToken",
      "outputs": [
        {
          "internalType": "contract IERC20Upgradeable",
          "name": "",
          "type": "address"
        }
      ],
      "stateMutability": "view",
      "type": "function"
    },
    {
      "inputs": [],
      "name": "weth",
      "outputs": [
        {
          "internalType": "address",
          "name": "",
          "type": "address"
        }
      ],
      "stateMutability": "view",
      "type": "function"
    },
    {
      "inputs": [
        {
          "internalType": "uint256",
          "name": "_amount",
          "type": "uint256"
        }
      ],
      "name": "withdraw",
      "outputs": [],
      "stateMutability": "nonpayable",
      "type": "function"
    },
    {
      "inputs": [],
      "name": "withdrawAll",
      "outputs": [
        {
          "internalType": "uint256",
          "name": "balance",
          "type": "uint256"
        }
      ],
      "stateMutability": "nonpayable",
      "type": "function"
    },
    {
      "inputs": [
        {
          "internalType": "address",
          "name": "_asset",
          "type": "address"
        }
      ],
      "name": "withdrawOther",
      "outputs": [
        {
          "internalType": "uint256",
          "name": "balance",
          "type": "uint256"
        }
      ],
      "stateMutability": "nonpayable",
      "type": "function"
    },
    {
      "inputs": [],
      "name": "withdrawalFee",
      "outputs": [
        {
          "internalType": "uint256",
          "name": "",
          "type": "uint256"
        }
      ],
      "stateMutability": "view",
      "type": "function"
    },
    {
      "inputs": [],
      "name": "withdrawalMaxDeviationThreshold",
      "outputs": [
        {
          "internalType": "uint256",
          "name": "",
          "type": "uint256"
        }
      ],
      "stateMutability": "view",
      "type": "function"
    }
  ],
  "bytecode": "0x608060405234801561001057600080fd5b50615f3f80620000216000396000f3fe608060405234801561001057600080fd5b506004361061048b5760003560e01c806368aee72211610262578063ac8a377311610151578063d704ba9b116100ce578063ed4bdce111610092578063ed4bdce1146107e9578063f1068454146107f1578063f55462f4146107f9578063f77c47911461080c578063f8b4815d14610814578063fb883d0c146108275761048b565b8063d704ba9b146107b0578063dd4adfbc146106a6578063e066ca1314610630578063e79fa48a146107c3578063eb4e55df146107d65761048b565b8063c1a3d44c11610115578063c1a3d44c1461077d578063c53814d214610785578063c6def0761461078d578063c7b9d53014610795578063d0e30db0146107a85761048b565b8063ac8a37731461057d578063aced16611461075d578063af44d16d14610765578063bb513ab91461076d578063bc063e1a146107755761048b565b806389483695116101df57806392eefe9b116101a357806392eefe9b1461071c57806394112dba14610714578063ab033ea91461072f578063abdf5d3514610742578063ac1e50251461074a5761048b565b806389483695146106d15780638a0dac4a146106d95780638acdbfaf146106ec5780638bc7e8c41461070c578063923c1d61146107145761048b565b8063800fbcd511610226578063800fbcd51461069e57806382480df9146106a65780638456cb59146106ae5780638457213a146106b6578063853828b6146106c95761048b565b806368aee722146106685780636a4874a114610598578063722713f71461067b578063748747e6146106835780637e744eea146106965761048b565b806337e43d371161037e578063452a9320116102fb5780635874a48e116102bf5780635874a48e146106405780635aa6e675146106485780635c975abb146106505780635dc612911461065857806365d950fa146106605761048b565b8063452a9320146106185780634641257d14610620578063504a16471461062857806354fd4d501461063057806355f4f1b9146106385761048b565b80633e413bee116103425780633e413bee146104be5780633ea4e008146105eb5780633f4ba83a146105f35780633fc8cef3146105fb578063440368a3146106035761048b565b806337e43d37146105a85780633951f3df146105c857806339f60f86146105db5780633cdc5389146105655780633d41a26b146105e35761048b565b80631fe4a6861161040c5780632954018c116103d05780632954018c146105755780632da9a6941461057d5780632e1a7d4d1461058557806332d7d66d1461059857806335ab4055146105a05761048b565b80631fe4a6861461053357806320e7981b1461053b578063218751b21461054e57806327614df81461056557806327f8eaac1461056d5761048b565b806317d7de7c1161045357806317d7de7c146104db5780631b0d8aab146104f05780631bd43be3146105055780631d41ddac146105185780631f1fcd511461052b5761048b565b806304ef898d146104905780630c3f361e146104ae57806311588086146104b657806311eac855146104be57806315b18ddd146104d3575b600080fd5b61049861082f565b6040516104a59190615849565b60405180910390f35b610498610834565b610498610839565b6104c66108c0565b6040516104a59190615661565b6104986108d8565b6104e36108de565b6040516104a59190615852565b6105036104fe3660046155d2565b610915565b005b61049861051336600461522c565b610922565b6105036105263660046155d2565b610a00565b6104c6610a0d565b6104c6610a1c565b6105036105493660046155d2565b610a2b565b610556610a38565b6040516104a59392919061573f565b6104c6610a50565b610503610a68565b6104c6610a7a565b6104c6610a8e565b6105036105933660046155d2565b610aa6565b6104c6610be9565b6104c6610bfb565b6105bb6105b636600461522c565b610c13565b6040516104a5919061581b565b6105036105d636600461529c565b610c77565b6104c6610d85565b610498610d94565b6104c6610d9a565b610503610da9565b6104c6610db9565b61060b610dd1565b6040516104a59190615d27565b6104c661121c565b61049861122b565b610498612be1565b6104e3612be7565b6104c6612c04565b6104c6612c1c565b6104c6612c34565b6105bb612c43565b610498612c4c565b610498612c52565b61050361067636600461530c565b612c57565b610498613437565b61050361069136600461522c565b613452565b6105bb61347c565b6104c6613481565b6104c6613490565b6105036134a2565b6105036106c43660046155d2565b6134b2565b6104986134e1565b6104c6613599565b6105036106e736600461522c565b6135a8565b6106ff6106fa366004615264565b6135d2565b6040516104a59190615760565b610498613656565b6104c661365c565b61050361072a36600461522c565b61366e565b61050361073d36600461522c565b613698565b6104c66136c2565b6105036107583660046155d2565b6136da565b6104c6613709565b610498613718565b61049861371e565b610498613724565b61049861372a565b6104c661375b565b6104c6613773565b6105036107a336600461522c565b61378b565b6105036137b5565b6105036107be3660046155d2565b61387d565b6105036107d136600461522c565b6138ac565b6104c66107e4366004615407565b6138d6565b6106ff613918565b610498613a29565b6105036108073660046155d2565b613a2f565b6104c6613a5e565b6105036108223660046155d2565b613a6d565b610498613a7a565b600081565b600281565b60d3546040516370a0823160e01b81526000916001600160a01b0316906370a082319061086a903090600401615661565b60206040518083038186803b15801561088257600080fd5b505afa158015610896573d6000803e3d6000fd5b505050506040513d601f19601f820116820180604052508101906108ba91906155ea565b90505b90565b73a0b86991c6218b36c1d19d4a2e9eb0ce3606eb4881565b609b5481565b60408051808201909152601e81527f5374726174656779436f6e7665785374616b696e674f7074696d697a65720000602082015290565b61091d613a80565b60d455565b60335460009060ff16156109515760405162461bcd60e51b815260040161094890615a43565b60405180910390fd5b610959613aaa565b61096282613ad4565b6040516370a0823160e01b81526001600160a01b038316906370a082319061098e903090600401615661565b60206040518083038186803b1580156109a657600080fd5b505afa1580156109ba573d6000803e3d6000fd5b505050506040513d601f19601f820116820180604052508101906109de91906155ea565b609e549091506109fb906001600160a01b03848116911683613ba7565b919050565b610a08613a80565b60dc55565b609a546001600160a01b031681565b6066546001600160a01b031681565b610a33613a80565b60db55565b60d85460d95460da546001600160a01b039092169183565b732260fac5e5542a773aa44fbcfedf7c193bc2c59981565b610a70613a80565b610a78613c02565b565b6f22d53366457f9d5e68ec105046fc438381565b736c3f90f043a72fa612cbac8115ee7e52bde6e49081565b60335460ff1615610ac95760405162461bcd60e51b815260040161094890615a43565b610ad1613aaa565b610ada81613d27565b50609a546040516370a0823160e01b81526000916001600160a01b0316906370a0823190610b0c903090600401615661565b60206040518083038186803b158015610b2457600080fd5b505afa158015610b38573d6000803e3d6000fd5b505050506040513d601f19601f82011682018060405250810190610b5c91906155ea565b905081811015610bb6576000610b728383613f21565b9050610b95612710610b8f60a05486613f5490919063ffffffff16565b90613f8e565b811115610bb45760405162461bcd60e51b815260040161094890615ad9565b505b6000610bc28284613fd0565b90506000610bcf82613fe6565b9050610be3610bde83836140b6565b6140f8565b50505050565b600080516020615eca83398151915281565b73bebc44782c7db0a1a60cb6fe97d0b483032ff1c781565b60006060610c1f613918565b905060005b8151811015610c6d57818181518110610c3957fe5b60200260200101516001600160a01b0316846001600160a01b03161415610c65576001925050506109fb565b600101610c24565b5060009392505050565b600054610100900460ff1680610c905750610c906141c3565b80610c9e575060005460ff16155b610cba5760405162461bcd60e51b815260040161094890615a8b565b600054610100900460ff16158015610ce5576000805460ff1961ff0019909116610100171660011790555b60335460ff1615610d085760405162461bcd60e51b815260040161094890615a43565b610d106141c9565b606580546001600160a01b03199081166001600160a01b0389811691909117909255606680548216888416179055606780548216868416179055609e80548216878416179055609f8054909116918416919091179055603260a0558015610d7d576000805461ff00191690555b505050505050565b60d3546001600160a01b031681565b60001981565b60d6546001600160a01b031681565b610db1613a80565b610a7861425b565b73c02aaa39b223fe8d0a0e5c4f27ead9083c756cc281565b610dd961503f565b60335460ff1615610dfc5760405162461bcd60e51b815260040161094890615a43565b610e046142c7565b610e0c61503f565b610e14614306565b6040516370a0823160e01b8152600080516020615eca833981519152906370a0823190610e45903090600401615661565b60206040518083038186803b158015610e5d57600080fd5b505afa158015610e71573d6000803e3d6000fd5b505050506040513d601f19601f82011682018060405250810190610e9591906155ea565b80825215610efb576000610ec7612710610b8f610ebf60dd546127106140b690919063ffffffff16565b855190613f54565b9050610ef9600080516020615eca833981519152600080516020615eaa8339815191528460000151846002600161459c565b505b6040516370a0823160e01b8152600080516020615eaa833981519152906370a0823190610f2c903090600401615661565b60206040518083038186803b158015610f4457600080fd5b505afa158015610f58573d6000803e3d6000fd5b505050506040513d601f19601f82011682018060405250810190610f7c91906155ea565b604080830191909152516370a0823160e01b8152600080516020615eea833981519152906370a0823190610fb4903090600401615661565b60206040518083038186803b158015610fcc57600080fd5b505afa158015610fe0573d6000803e3d6000fd5b505050506040513d601f19601f8201168201806040525081019061100491906155ea565b60208201526040810151156110a257604080820151905163534a7e1d60e11b8152733fe65692bfcd0e6cf84cb1e7d24108e434a7587e9163a694fc3a9161104e9190600401615849565b602060405180830381600087803b15801561106857600080fd5b505af115801561107c573d6000803e3d6000fd5b505050506040513d601f19601f820116820180604052508101906110a091906154dc565b505b602081015115611198576040516370a0823160e01b815273cf50b810e57ac33b91dcf525c6ddd9881b1393329063a694fc3a90600080516020615eea833981519152906370a08231906110f9903090600401615661565b60206040518083038186803b15801561111157600080fd5b505afa158015611125573d6000803e3d6000fd5b505050506040513d601f19601f8201168201806040525081019061114991906155ea565b6040518263ffffffff1660e01b81526004016111659190615849565b600060405180830381600087803b15801561117f57600080fd5b505af1158015611193573d6000803e3d6000fd5b505050505b7f8ea01a73fd14904f3ff9411fca71994cb18c9118112c82f0c102bb3b1d1cedec60006040516111c89190615849565b60405180910390a17fa2c85ecbbd34bc094e4ce7aa1f6115d582e14b2c8d2c2c44d25bc24d21cf9d0e81600001518260200151836040015160405161120f93929190615dd3565b60405180910390a1905090565b609f546001600160a01b031681565b60335460009060ff16156112515760405162461bcd60e51b815260040161094890615a43565b6112596142c7565b611261615060565b609a546040516370a0823160e01b81526000916001600160a01b0316906370a0823190611292903090600401615661565b60206040518083038186803b1580156112aa57600080fd5b505afa1580156112be573d6000803e3d6000fd5b505050506040513d601f19601f820116820180604052508101906112e291906155ea565b905060006112ee613437565b60d354604051637050ccd960e01b81529192506001600160a01b031690637050ccd99061132290309060019060040161570b565b602060405180830381600087803b15801561133c57600080fd5b505af1158015611350573d6000803e3d6000fd5b505050506040513d601f19601f8201168201806040525081019061137491906154dc565b506040516370a0823160e01b8152600090733fe65692bfcd0e6cf84cb1e7d24108e434a7587e906370a08231906113af903090600401615661565b60206040518083038186803b1580156113c757600080fd5b505afa1580156113db573d6000803e3d6000fd5b505050506040513d601f19601f820116820180604052508101906113ff91906155ea565b9050801561149557604051631c683a1b60e11b8152733fe65692bfcd0e6cf84cb1e7d24108e434a7587e906338d0743690611441908490600190600401615d48565b602060405180830381600087803b15801561145b57600080fd5b505af115801561146f573d6000803e3d6000fd5b505050506040513d601f19601f8201168201806040525081019061149391906154dc565b505b6040516370a0823160e01b815260009073cf50b810e57ac33b91dcf525c6ddd9881b139332906370a08231906114cf903090600401615661565b60206040518083038186803b1580156114e757600080fd5b505afa1580156114fb573d6000803e3d6000fd5b505050506040513d601f19601f8201168201806040525081019061151f91906155ea565b9050801561159457604051631c683a1b60e11b815273cf50b810e57ac33b91dcf525c6ddd9881b139332906338d0743690611561908490600190600401615d48565b600060405180830381600087803b15801561157b57600080fd5b505af115801561158f573d6000803e3d6000fd5b505050505b6040516370a0823160e01b8152600080516020615eaa833981519152906370a08231906115c5903090600401615661565b60206040518083038186803b1580156115dd57600080fd5b505afa1580156115f1573d6000803e3d6000fd5b505050506040513d601f19601f8201168201806040525081019061161591906155ea565b85526040516370a0823160e01b8152600080516020615eea833981519152906370a0823190611648903090600401615661565b60206040518083038186803b15801561166057600080fd5b505afa158015611674573d6000803e3d6000fd5b505050506040513d601f19601f8201168201806040525081019061169891906155ea565b60208601526040516370a0823160e01b8152600090736c3f90f043a72fa612cbac8115ee7e52bde6e490906370a08231906116d7903090600401615661565b60206040518083038186803b1580156116ef57600080fd5b505afa158015611703573d6000803e3d6000fd5b505050506040513d601f19601f8201168201806040525081019061172791906155ea565b905080156118445761175173bebc44782c7db0a1a60cb6fe97d0b483032ff1c782600160006147cf565b6040516370a0823160e01b815260009073a0b86991c6218b36c1d19d4a2e9eb0ce3606eb48906370a082319061178b903090600401615661565b60206040518083038186803b1580156117a357600080fd5b505afa1580156117b7573d6000803e3d6000fd5b505050506040513d601f19601f820116820180604052508101906117db91906155ea565b905080156118425761184273d9e1ce17f2641f24ae83637ab66a2cca9c378b9f73a0b86991c6218b36c1d19d4a2e9eb0ce3606eb488361183d73a0b86991c6218b36c1d19d4a2e9eb0ce3606eb48600080516020615eca8339815191526135d2565b61482d565b505b855115611a3f57600061186c612710610b8f60db548a60000151613f5490919063ffffffff16565b6040516370a0823160e01b8152909150600090600080516020615eca833981519152906370a08231906118a3903090600401615661565b60206040518083038186803b1580156118bb57600080fd5b505afa1580156118cf573d6000803e3d6000fd5b505050506040513d601f19601f820116820180604052508101906118f391906155ea565b9050808211156119e857600061190983836140b6565b90506000611934612710610b8f61192d60dd546127106140b690919063ffffffff16565b8590613f54565b9050611962600080516020615eaa833981519152600080516020615eca83398151915284846002600161459c565b6040516370a0823160e01b8152600080516020615eca833981519152906370a0823190611993903090600401615661565b60206040518083038186803b1580156119ab57600080fd5b505afa1580156119bf573d6000803e3d6000fd5b505050506040513d601f19601f820116820180604052508101906119e391906155ea565b935050505b611a3c73d9e1ce17f2641f24ae83637ab66a2cca9c378b9f600080516020615eca8339815191528461183d600080516020615eca833981519152732260fac5e5542a773aa44fbcfedf7c193bc2c5996135d2565b50505b6040516370a0823160e01b8152600090600080516020615eca833981519152906370a0823190611a73903090600401615661565b60206040518083038186803b158015611a8b57600080fd5b505afa158015611a9f573d6000803e3d6000fd5b505050506040513d601f19601f82011682018060405250810190611ac391906155ea565b90508015611b1d576000611aed612710610b8f61192d60dd546127106140b690919063ffffffff16565b9050611b1b600080516020615eca833981519152600080516020615eaa83398151915284846002600161459c565b505b602087015115611ba0576000611b48612710610b8f60db548b60200151613f5490919063ffffffff16565b9050611b9e73d9e1ce17f2641f24ae83637ab66a2cca9c378b9f600080516020615eea8339815191528361183d600080516020615eea833981519152732260fac5e5542a773aa44fbcfedf7c193bc2c5996135d2565b505b6040516370a0823160e01b8152600090732260fac5e5542a773aa44fbcfedf7c193bc2c599906370a0823190611bda903090600401615661565b60206040518083038186803b158015611bf257600080fd5b505afa158015611c06573d6000803e3d6000fd5b505050506040513d601f19601f82011682018060405250810190611c2a91906155ea565b905060008115611ee25760d854609a5460d95460da54611c72936001600160a01b03908116931691732260fac5e5542a773aa44fbcfedf7c193bc2c5999187919060006148ca565b609a546040516370a0823160e01b8152611cfe918a916001600160a01b03909116906370a0823190611ca8903090600401615661565b60206040518083038186803b158015611cc057600080fd5b505afa158015611cd4573d6000803e3d6000fd5b505050506040513d601f19601f82011682018060405250810190611cf891906155ea565b906140b6565b90506000611d1d612710610b8f60dc5485613f5490919063ffffffff16565b609a54609e54604080516327b16a2560e21b815290519394506001600160a01b039283169363a9059cbb9390921691639ec5a89491600480820192602092909190829003018186803b158015611d7257600080fd5b505afa158015611d86573d6000803e3d6000fd5b505050506040513d601f19601f82011682018060405250810190611daa9190615248565b836040518363ffffffff1660e01b8152600401611dc8929190615726565b602060405180830381600087803b158015611de257600080fd5b505af1158015611df6573d6000803e3d6000fd5b505050506040513d601f19601f82011682018060405250810190611e1a91906154dc565b50609a54609e54604080516327b16a2560e21b8152905143936001600160a01b03908116931691639ec5a894916004808301926020929190829003018186803b158015611e6657600080fd5b505afa158015611e7a573d6000803e3d6000fd5b505050506040513d601f19601f82011682018060405250810190611e9e9190615248565b6001600160a01b03167f7d9c11b977b58d20949545f69e59d50e907cf4ad8fdc98cab1eaabd76574f7cd8442604051611ed8929190615dad565b60405180910390a4505b609a546040516370a0823160e01b81526000916001600160a01b0316906370a0823190611f13903090600401615661565b60206040518083038186803b158015611f2b57600080fd5b505afa158015611f3f573d6000803e3d6000fd5b505050506040513d601f19601f82011682018060405250810190611f6391906155ea565b90508015611f7457611f7481614a20565b895115612534576040516370a0823160e01b8152600090600080516020615eaa833981519152906370a0823190611faf903090600401615661565b60206040518083038186803b158015611fc757600080fd5b505afa158015611fdb573d6000803e3d6000fd5b505050506040513d601f19601f82011682018060405250810190611fff91906155ea565b609b54909150156121e7576000612027612710610b8f609b5485613f5490919063ffffffff16565b60d754609e54604080516327b16a2560e21b815290519394506001600160a01b0392831693632f4f21e29390921691639ec5a89491600480820192602092909190829003018186803b15801561207c57600080fd5b505afa158015612090573d6000803e3d6000fd5b505050506040513d601f19601f820116820180604052508101906120b49190615248565b836040518363ffffffff1660e01b81526004016120d2929190615726565b600060405180830381600087803b1580156120ec57600080fd5b505af1158015612100573d6000803e3d6000fd5b5050505043600080516020615eaa8339815191526001600160a01b0316609e60009054906101000a90046001600160a01b03166001600160a01b0316639ec5a8946040518163ffffffff1660e01b815260040160206040518083038186803b15801561216b57600080fd5b505afa15801561217f573d6000803e3d6000fd5b505050506040513d601f19601f820116820180604052508101906121a39190615248565b6001600160a01b03167f7d9c11b977b58d20949545f69e59d50e907cf4ad8fdc98cab1eaabd76574f7cd84426040516121dd929190615dad565b60405180910390a4505b609c54156122d357600061220c612710610b8f609c5485613f5490919063ffffffff16565b60d7546066546040516317a790f160e11b81529293506001600160a01b0391821692632f4f21e2926122449216908590600401615726565b600060405180830381600087803b15801561225e57600080fd5b505af1158015612272573d6000803e3d6000fd5b5050606654604051439350600080516020615eaa83398151915292506001600160a01b03909116907fc104c152c1acce9160dd1ea0b85abddd8114aba03ee2c60c92bc9b5b0fdd1812906122c99086904290615dad565b60405180910390a4505b60d75460d5546040516370a0823160e01b81526000926001600160a01b03908116926370a082319261230b9290911690600401615661565b60206040518083038186803b15801561232357600080fd5b505afa158015612337573d6000803e3d6000fd5b505050506040513d601f19601f8201168201806040525081019061235b91906155ea565b6040516370a0823160e01b8152909150600090600080516020615eaa833981519152906370a0823190612392903090600401615661565b60206040518083038186803b1580156123aa57600080fd5b505afa1580156123be573d6000803e3d6000fd5b505050506040513d601f19601f820116820180604052508101906123e291906155ea565b60d75460d5546040516317a790f160e11b81529293506001600160a01b0391821692632f4f21e29261241a9216908590600401615726565b600060405180830381600087803b15801561243457600080fd5b505af1158015612448573d6000803e3d6000fd5b505060d75460d5546040516370a0823160e01b8152600094506001600160a01b0392831693506370a0823192612482921690600401615661565b60206040518083038186803b15801561249a57600080fd5b505afa1580156124ae573d6000803e3d6000fd5b505050506040513d601f19601f820116820180604052508101906124d291906155ea565b905060006124e082856140b6565b60d75460405191925043916001600160a01b03909116907f17cc18c044bdfa5f365fb0f6140ffbaa76843012681aedb2015580693fa49b94906125269085904290615dad565b60405180910390a350505050505b60208a015115612b6d576040516370a0823160e01b8152600090600080516020615eea833981519152906370a0823190612572903090600401615661565b60206040518083038186803b15801561258a57600080fd5b505afa15801561259e573d6000803e3d6000fd5b505050506040513d601f19601f820116820180604052508101906125c291906155ea565b905060006125e6612710610b8f61192d60dd546127106140b690919063ffffffff16565b905061261a600080516020615eea83398151915273fd05d3c7fe2924020620a8be4961bbaa747e630584846000600161459c565b6040516370a0823160e01b815260009073fd05d3c7fe2924020620a8be4961bbaa747e6305906370a0823190612654903090600401615661565b60206040518083038186803b15801561266c57600080fd5b505afa158015612680573d6000803e3d6000fd5b505050506040513d601f19601f820116820180604052508101906126a491906155ea565b609b549091501561285c5760006126cc612710610b8f609b5485613f5490919063ffffffff16565b9050612773609e60009054906101000a90046001600160a01b03166001600160a01b0316639ec5a8946040518163ffffffff1660e01b815260040160206040518083038186803b15801561271f57600080fd5b505afa158015612733573d6000803e3d6000fd5b505050506040513d601f19601f820116820180604052508101906127579190615248565b73fd05d3c7fe2924020620a8be4961bbaa747e63059083613ba7565b4373fd05d3c7fe2924020620a8be4961bbaa747e63056001600160a01b0316609e60009054906101000a90046001600160a01b03166001600160a01b0316639ec5a8946040518163ffffffff1660e01b815260040160206040518083038186803b1580156127e057600080fd5b505afa1580156127f4573d6000803e3d6000fd5b505050506040513d601f19601f820116820180604052508101906128189190615248565b6001600160a01b03167f7d9c11b977b58d20949545f69e59d50e907cf4ad8fdc98cab1eaabd76574f7cd8442604051612852929190615dad565b60405180910390a4505b609c5415612913576000612881612710610b8f609c5485613f5490919063ffffffff16565b6066549091506128b09073fd05d3c7fe2924020620a8be4961bbaa747e6305906001600160a01b031683613ba7565b606654604051439173fd05d3c7fe2924020620a8be4961bbaa747e6305916001600160a01b03909116907fc104c152c1acce9160dd1ea0b85abddd8114aba03ee2c60c92bc9b5b0fdd1812906129099086904290615dad565b60405180910390a4505b60d5546040516370a0823160e01b815260009173fd05d3c7fe2924020620a8be4961bbaa747e6305916370a082319161295a916001600160a01b0390911690600401615661565b60206040518083038186803b15801561297257600080fd5b505afa158015612986573d6000803e3d6000fd5b505050506040513d601f19601f820116820180604052508101906129aa91906155ea565b6040516370a0823160e01b815290915060009073fd05d3c7fe2924020620a8be4961bbaa747e6305906370a08231906129e7903090600401615661565b60206040518083038186803b1580156129ff57600080fd5b505afa158015612a13573d6000803e3d6000fd5b505050506040513d601f19601f82011682018060405250810190612a3791906155ea565b60d554909150612a669073fd05d3c7fe2924020620a8be4961bbaa747e6305906001600160a01b031683613ba7565b60d5546040516370a0823160e01b815260009173fd05d3c7fe2924020620a8be4961bbaa747e6305916370a0823191612aad916001600160a01b0390911690600401615661565b60206040518083038186803b158015612ac557600080fd5b505afa158015612ad9573d6000803e3d6000fd5b505050506040513d601f19601f82011682018060405250810190612afd91906155ea565b90506000612b0b82856140b6565b90504373fd05d3c7fe2924020620a8be4961bbaa747e63056001600160a01b03167f17cc18c044bdfa5f365fb0f6140ffbaa76843012681aedb2015580693fa49b948342604051612b5d929190615dad565b60405180910390a3505050505050505b6000612b77613437565b905088811015612b995760405162461bcd60e51b815260040161094890615b81565b437f6c8433a8e155f0af04dba058d4e4695f7da554578963d876bdf4a6d8d6399d9c84604051612bc99190615849565b60405180910390a25090995050505050505050505090565b609c5481565b60408051808201909152600381526218971960e91b602082015290565b738014595f2ab54cd7c604b00e9fb932176fdc86ae81565b73cf50b810e57ac33b91dcf525c6ddd9881b13933281565b6065546001600160a01b031681565b60335460ff1690565b60dd5481565b600381565b600054610100900460ff1680612c705750612c706141c3565b80612c7e575060005460ff16155b612c9a5760405162461bcd60e51b815260040161094890615a8b565b600054610100900460ff16158015612cc5576000805460ff1961ff0019909116610100171660011790555b60335460ff1615612ce85760405162461bcd60e51b815260040161094890615a43565b612cf58a8a8a8a8a610c77565b8451609a80546001600160a01b039283166001600160a01b031991821617909155602087015160d58054918416918316919091179055604087015160d68054918416918316919091179055606087015160d7805491909316911617905560d4849055612d5f61507a565b60d454604051631526fe2760e01b815273f403c135812408bfbe8713b5a23a04b3d48aae3191631526fe2791612d989190600401615849565b60c06040518083038186803b158015612db057600080fd5b505afa158015612dc4573d6000803e3d6000fd5b505050506040513d601f19601f82011682018060405250810190612de89190615544565b606081015160d380546001600160a01b0319166001600160a01b039283161790558551609b556020860151609c55604080870151609d55609a54905163095ea7b360e01b8152929350169063095ea7b390612e5f9073f403c135812408bfbe8713b5a23a04b3d48aae319060001990600401615726565b602060405180830381600087803b158015612e7957600080fd5b505af1158015612e8d573d6000803e3d6000fd5b505050506040513d601f19601f82011682018060405250810190612eb191906154dc565b5060405163095ea7b360e01b8152600080516020615eea8339815191529063095ea7b390612efb9073cf50b810e57ac33b91dcf525c6ddd9881b1393329060001990600401615726565b602060405180830381600087803b158015612f1557600080fd5b505af1158015612f29573d6000803e3d6000fd5b505050506040513d601f19601f82011682018060405250810190612f4d91906154dc565b5060405163095ea7b360e01b8152600080516020615eaa8339815191529063095ea7b390612f9790733fe65692bfcd0e6cf84cb1e7d24108e434a7587e9060001990600401615726565b602060405180830381600087803b158015612fb157600080fd5b505af1158015612fc5573d6000803e3d6000fd5b505050506040513d601f19601f82011682018060405250810190612fe991906154dc565b5060405163095ea7b360e01b8152600080516020615eca8339815191529063095ea7b39061303390738014595f2ab54cd7c604b00e9fb932176fdc86ae9060001990600401615726565b602060405180830381600087803b15801561304d57600080fd5b505af1158015613061573d6000803e3d6000fd5b505050506040513d601f19601f8201168201806040525081019061308591906154dc565b50604080516060808201835285516001600160a01b03168083526020808801519084018190528785015193850184905260d880546001600160a01b03191690921790915560d95560da9190915581516003808252608082019093529091816020016020820280368337019050509050600080516020615eea8339815191528160008151811061311057fe5b60200260200101906001600160a01b031690816001600160a01b03168152505073c02aaa39b223fe8d0a0e5c4f27ead9083c756cc28160018151811061315257fe5b60200260200101906001600160a01b031690816001600160a01b031681525050732260fac5e5542a773aa44fbcfedf7c193bc2c5998160028151811061319457fe5b60200260200101906001600160a01b031690816001600160a01b0316815250506131e1600080516020615eea833981519152732260fac5e5542a773aa44fbcfedf7c193bc2c59983614ab0565b60408051600380825260808201909252906020820160608036833701905050905073a0b86991c6218b36c1d19d4a2e9eb0ce3606eb488160008151811061322457fe5b60200260200101906001600160a01b031690816001600160a01b03168152505073c02aaa39b223fe8d0a0e5c4f27ead9083c756cc28160018151811061326657fe5b60200260200101906001600160a01b031690816001600160a01b031681525050600080516020615eca833981519152816002815181106132a257fe5b60200260200101906001600160a01b031690816001600160a01b0316815250506132ef73a0b86991c6218b36c1d19d4a2e9eb0ce3606eb48600080516020615eca83398151915283614ab0565b604080516003808252608082019092529060208201606080368337019050509050600080516020615eca8339815191528160008151811061332c57fe5b60200260200101906001600160a01b031690816001600160a01b03168152505073c02aaa39b223fe8d0a0e5c4f27ead9083c756cc28160018151811061336e57fe5b60200260200101906001600160a01b031690816001600160a01b031681525050732260fac5e5542a773aa44fbcfedf7c193bc2c599816002815181106133b057fe5b60200260200101906001600160a01b031690816001600160a01b0316815250506133fd600080516020615eca833981519152732260fac5e5542a773aa44fbcfedf7c193bc2c59983614ab0565b613405613c02565b50506107d060db5561138860dc556101f460dd55801561342b576000805461ff00191690555b50505050505050505050565b60006108ba613444610839565b61344c61372a565b90614b26565b61345a613a80565b606780546001600160a01b0319166001600160a01b0392909216919091179055565b600190565b60d7546001600160a01b031681565b600080516020615eaa83398151915281565b6134aa614b4b565b610a78614b8a565b6134ba613a80565b6127108111156134dc5760405162461bcd60e51b81526004016109489061595b565b609b55565b60335460009060ff16156135075760405162461bcd60e51b815260040161094890615a43565b61350f613aaa565b613517614be3565b609a546040516370a0823160e01b81526108bd916001600160a01b0316906370a0823190613549903090600401615661565b60206040518083038186803b15801561356157600080fd5b505afa158015613575573d6000803e3d6000fd5b505050506040513d601f19601f82011682018060405250810190610bde91906155ea565b60d5546001600160a01b031681565b6135b0613a80565b609f80546001600160a01b0319166001600160a01b0392909216919091179055565b6001600160a01b03808316600090815260d26020908152604080832093851683529281529082902080548351818402810184019094528084526060939283018282801561364857602002820191906000526020600020905b81546001600160a01b0316815260019091019060200180831161362a575b505050505090505b92915050565b609d5481565b600080516020615eea83398151915281565b613676613a80565b609e80546001600160a01b0319166001600160a01b0392909216919091179055565b6136a0613a80565b606580546001600160a01b0319166001600160a01b0392909216919091179055565b73fd05d3c7fe2924020620a8be4961bbaa747e630581565b6136e2613a80565b6127108111156137045760405162461bcd60e51b81526004016109489061595b565b609d55565b6067546001600160a01b031681565b60db5481565b60dc5481565b61271081565b609a546040516370a0823160e01b81526000916001600160a01b0316906370a082319061086a903090600401615661565b733fe65692bfcd0e6cf84cb1e7d24108e434a7587e81565b73f403c135812408bfbe8713b5a23a04b3d48aae3181565b613793613a80565b606680546001600160a01b0319166001600160a01b0392909216919091179055565b60335460ff16156137d85760405162461bcd60e51b815260040161094890615a43565b6137e0614c1b565b609a546040516370a0823160e01b81526000916001600160a01b0316906370a0823190613811903090600401615661565b60206040518083038186803b15801561382957600080fd5b505afa15801561383d573d6000803e3d6000fd5b505050506040513d601f19601f8201168201806040525081019061386191906155ea565b905080156138725761387281614a20565b61387a610a78565b50565b613885613a80565b6127108111156138a75760405162461bcd60e51b815260040161094890615a16565b60a055565b6138b4613a80565b60d880546001600160a01b0319166001600160a01b0392909216919091179055565b60d260205282600052604060002060205281600052604060002081815481106138fb57fe5b6000918252602090912001546001600160a01b0316925083915050565b60408051600480825260a08201909252606091829190602082016080803683375050609a5482519293506001600160a01b03169183915060009061395857fe5b60200260200101906001600160a01b031690816001600160a01b031681525050600080516020615eca8339815191528160018151811061399457fe5b60200260200101906001600160a01b031690816001600160a01b031681525050600080516020615eea833981519152816002815181106139d057fe5b60200260200101906001600160a01b031690816001600160a01b031681525050600080516020615eaa83398151915281600381518110613a0c57fe5b6001600160a01b0390921660209283029190910190910152905090565b60d45481565b613a37613a80565b612710811115613a595760405162461bcd60e51b81526004016109489061595b565b609c55565b609e546001600160a01b031681565b613a75613a80565b60dd55565b60a05481565b6065546001600160a01b03163314610a785760405162461bcd60e51b815260040161094890615ca9565b609e546001600160a01b03163314610a785760405162461bcd60e51b8152600401610948906159b9565b609a546001600160a01b0382811691161415613b025760405162461bcd60e51b815260040161094890615a6d565b600080516020615eca8339815191526001600160a01b0382161415613b395760405162461bcd60e51b815260040161094890615bee565b600080516020615eea8339815191526001600160a01b0382161415613b705760405162461bcd60e51b815260040161094890615c42565b600080516020615eaa8339815191526001600160a01b038216141561387a5760405162461bcd60e51b815260040161094890615bce565b613bfd8363a9059cbb60e01b8484604051602401613bc6929190615726565b60408051601f198184030181529190526020810180516001600160e01b03166001600160e01b031990931692909217909152614c6f565b505050565b60d65460405163095ea7b360e01b8152600080516020615eea8339815191529163095ea7b391613c42916001600160a01b03169060001990600401615726565b602060405180830381600087803b158015613c5c57600080fd5b505af1158015613c70573d6000803e3d6000fd5b505050506040513d601f19601f82011682018060405250810190613c9491906154dc565b5060d75460405163095ea7b360e01b8152600080516020615eaa8339815191529163095ea7b391613cd5916001600160a01b03169060001990600401615726565b602060405180830381600087803b158015613cef57600080fd5b505af1158015613d03573d6000803e3d6000fd5b505050506040513d601f19601f8201168201806040525081019061387a91906154dc565b609a546040516370a0823160e01b815260009182916001600160a01b03909116906370a0823190613d5c903090600401615661565b60206040518083038186803b158015613d7457600080fd5b505afa158015613d88573d6000803e3d6000fd5b505050506040513d601f19601f82011682018060405250810190613dac91906155ea565b905082811015613e4b576000613dc284836140b6565b60d354604051636197390160e11b81529192506001600160a01b03169063c32e720290613df6908490600090600401615d48565b602060405180830381600087803b158015613e1057600080fd5b505af1158015613e24573d6000803e3d6000fd5b505050506040513d601f19601f82011682018060405250810190613e4891906154dc565b50505b609a546040516370a0823160e01b81526000916001600160a01b0316906370a0823190613e7c903090600401615661565b60206040518083038186803b158015613e9457600080fd5b505afa158015613ea8573d6000803e3d6000fd5b505050506040513d601f19601f82011682018060405250810190613ecc91906155ea565b90506000613eda8286613fd0565b90507f31c9c70d9d3f8c9d1c38dc84504d6e076ea17e0c2aebda9cf0610a3cdf3c3f6a85848484604051613f119493929190615de9565b60405180910390a1949350505050565b600081831015613f435760405162461bcd60e51b81526004016109489061590e565b613f4d83836140b6565b9392505050565b600082613f6357506000613650565b82820282848281613f7057fe5b0414613f4d5760405162461bcd60e51b815260040161094890615b20565b6000613f4d83836040518060400160405280601a81526020017f536166654d6174683a206469766973696f6e206279207a65726f000000000000815250614cfe565b6000818310613fdf5781613f4d565b5090919050565b6000609d5460001415613ffb575060006109fb565b6000614018612710610b8f609d5486613f5490919063ffffffff16565b9050613650609e60009054906101000a90046001600160a01b03166001600160a01b0316639ec5a8946040518163ffffffff1660e01b815260040160206040518083038186803b15801561406b57600080fd5b505afa15801561407f573d6000803e3d6000fd5b505050506040513d601f19601f820116820180604052508101906140a39190615248565b609a546001600160a01b03169083613ba7565b6000613f4d83836040518060400160405280601e81526020017f536166654d6174683a207375627472616374696f6e206f766572666c6f770000815250614d35565b609e54609a54604051632988bb9f60e21b81526000926001600160a01b039081169263a622ee7c926141309290911690600401615661565b60206040518083038186803b15801561414857600080fd5b505afa15801561415c573d6000803e3d6000fd5b505050506040513d601f19601f820116820180604052508101906141809190615248565b90506001600160a01b0381166141a85760405162461bcd60e51b815260040161094890615b61565b609a546141bf906001600160a01b03168284613ba7565b5050565b303b1590565b600054610100900460ff16806141e257506141e26141c3565b806141f0575060005460ff16155b61420c5760405162461bcd60e51b815260040161094890615a8b565b600054610100900460ff16158015614237576000805460ff1961ff0019909116610100171660011790555b61423f614d61565b614247614de2565b801561387a576000805461ff001916905550565b60335460ff1661427d5760405162461bcd60e51b8152600401610948906158e0565b6033805460ff191690557f5db9ee0a495bf2e6ff9c91a7834c1ba4fdd244a5e8aa4e537bd38aeae4b073aa6142b0614e6e565b6040516142bd9190615661565b60405180910390a1565b6067546001600160a01b03163314806142ea57506065546001600160a01b031633145b610a785760405162461bcd60e51b815260040161094890615885565b60d354604051637050ccd960e01b81526001600160a01b0390911690637050ccd99061433990309060019060040161570b565b602060405180830381600087803b15801561435357600080fd5b505af1158015614367573d6000803e3d6000fd5b505050506040513d601f19601f8201168201806040525081019061438b91906154dc565b506040516246613160e11b8152600090733fe65692bfcd0e6cf84cb1e7d24108e434a7587e90628cc262906143c4903090600401615661565b60206040518083038186803b1580156143dc57600080fd5b505afa1580156143f0573d6000803e3d6000fd5b505050506040513d601f19601f8201168201806040525081019061441491906155ea565b11156144a857604051637050ccd960e01b8152733fe65692bfcd0e6cf84cb1e7d24108e434a7587e90637050ccd99061445490309060019060040161570b565b602060405180830381600087803b15801561446e57600080fd5b505af1158015614482573d6000803e3d6000fd5b505050506040513d601f19601f820116820180604052508101906144a691906154dc565b505b6040516246613160e11b815260009073cf50b810e57ac33b91dcf525c6ddd9881b13933290628cc262906144e0903090600401615661565b60206040518083038186803b1580156144f857600080fd5b505afa15801561450c573d6000803e3d6000fd5b505050506040513d601f19601f8201168201806040525081019061453091906155ea565b1115610a785760405163a4698feb60e01b815273cf50b810e57ac33b91dcf525c6ddd9881b1393329063a4698feb9061456e9060009060040161581b565b600060405180830381600087803b15801561458857600080fd5b505af1158015610be3573d6000803e3d6000fd5b60006f22d53366457f9d5e68ec105046fc438363493f4f74836145c05760006145c3565b60035b6040518263ffffffff1660e01b81526004016145df9190615849565b602060405180830381600087803b1580156145f957600080fd5b505af115801561460d573d6000803e3d6000fd5b505050506040513d601f19601f820116820180604052508101906146319190615248565b90506000816001600160a01b0316636982eb0b8989876040518463ffffffff1660e01b8152600401614665939291906156e7565b602060405180830381600087803b15801561467f57600080fd5b505af1158015614693573d6000803e3d6000fd5b505050506040513d601f19601f820116820180604052508101906146b79190615248565b90506001600160a01b038116156147c5576146d3888288614e72565b600080836001600160a01b031663eb85226d848c8c6040518463ffffffff1660e01b81526004016147069392919061568f565b606060405180830381600087803b15801561472057600080fd5b505af1158015614734573d6000803e3d6000fd5b505050506040513d601f19601f8201168201806040525081019061475891906154f8565b50604051630f7c084960e21b815291935091506001600160a01b03841690633df021249061479090859085908d908d90600401615826565b600060405180830381600087803b1580156147aa57600080fd5b505af11580156147be573d6000803e3d6000fd5b5050505050505b5050505050505050565b604051630d2680e960e11b81526001600160a01b03851690631a4d01d2906147ff90869086908690600401615d58565b600060405180830381600087803b15801561481957600080fd5b505af11580156147c5573d6000803e3d6000fd5b614838838584614e72565b6040516338ed173960e01b81526001600160a01b038516906338ed17399061486d908590600090869030904290600401615d71565b600060405180830381600087803b15801561488757600080fd5b505af115801561489b573d6000803e3d6000fd5b505050506040513d6000823e601f3d908101601f191682016040526148c39190810190615447565b5050505050565b6148d5858886614e72565b816002141561495e576148e66150af565b848185600281106148f357fe5b6020020152604051630b4c7e4d60e01b81526001600160a01b03891690630b4c7e4d906149269084908690600401615773565b600060405180830381600087803b15801561494057600080fd5b505af1158015614954573d6000803e3d6000fd5b5050505050614a17565b81600314156149af5761496f6150cd565b8481856003811061497c57fe5b6020020152604051634515cef360e01b81526001600160a01b03891690634515cef39061492690849086906004016157ab565b81600414156149ff576149c06150eb565b848185600481106149cd57fe5b602002015260405162a6cbcd60e21b81526001600160a01b0389169063029b2f349061492690849086906004016157e3565b60405162461bcd60e51b8152600401610948906158b3565b50505050505050565b60d4546040516321d0683360e11b815273f403c135812408bfbe8713b5a23a04b3d48aae31916343a0d06691614a5e91908590600190600401615dbb565b602060405180830381600087803b158015614a7857600080fd5b505af1158015614a8c573d6000803e3d6000fd5b505050506040513d601f19601f820116820180604052508101906141bf91906154dc565b6001600160a01b03808416600090815260d26020908152604080832093861683529281529190208251614ae592840190615109565b507fabb7386b8c502c126525bb33d0e5783cb39e1242b1ca06f2397ad3838bcd4265838383604051614b19939291906156b2565b60405180910390a1505050565b600082820183811015613f4d5760405162461bcd60e51b815260040161094890615982565b609f546001600160a01b0316331480614b6e57506065546001600160a01b031633145b610a785760405162461bcd60e51b815260040161094890615ba9565b60335460ff1615614bad5760405162461bcd60e51b815260040161094890615a43565b6033805460ff191660011790557f62e78cea01bee320cd4e420270b5ea74000d11b0c9f74754ebdbfc544b05a2586142b0614e6e565b60d3546001600160a01b031663c32e7202614bfc610839565b60006040518363ffffffff1660e01b8152600401613cd5929190615d48565b6067546001600160a01b0316331480614c3e57506065546001600160a01b031633145b80614c535750609e546001600160a01b031633145b610a785760405162461bcd60e51b8152600401610948906159e1565b6060614cc4826040518060400160405280602081526020017f5361666545524332303a206c6f772d6c6576656c2063616c6c206661696c6564815250856001600160a01b0316614e9b9092919063ffffffff16565b805190915015613bfd5780806020019051810190614ce291906154dc565b613bfd5760405162461bcd60e51b815260040161094890615c5f565b60008183614d1f5760405162461bcd60e51b81526004016109489190615852565b506000838581614d2b57fe5b0495945050505050565b60008184841115614d595760405162461bcd60e51b81526004016109489190615852565b505050900390565b600054610100900460ff1680614d7a5750614d7a6141c3565b80614d88575060005460ff16155b614da45760405162461bcd60e51b815260040161094890615a8b565b600054610100900460ff16158015614247576000805460ff1961ff001990911661010017166001179055801561387a576000805461ff001916905550565b600054610100900460ff1680614dfb5750614dfb6141c3565b80614e09575060005460ff16155b614e255760405162461bcd60e51b815260040161094890615a8b565b600054610100900460ff16158015614e50576000805460ff1961ff0019909116610100171660011790555b6033805460ff19169055801561387a576000805461ff001916905550565b3390565b614e876001600160a01b038416836000614eb2565b613bfd6001600160a01b0384168383614eb2565b6060614eaa8484600085614f75565b949350505050565b801580614f3a5750604051636eb1769f60e11b81526001600160a01b0384169063dd62ed3e90614ee89030908690600401615675565b60206040518083038186803b158015614f0057600080fd5b505afa158015614f14573d6000803e3d6000fd5b505050506040513d601f19601f82011682018060405250810190614f3891906155ea565b155b614f565760405162461bcd60e51b815260040161094890615cd1565b613bfd8363095ea7b360e01b8484604051602401613bc6929190615726565b6060614f8085615039565b614f9c5760405162461bcd60e51b815260040161094890615c0b565b60006060866001600160a01b03168587604051614fb99190615645565b60006040518083038185875af1925050503d8060008114614ff6576040519150601f19603f3d011682016040523d82523d6000602084013e614ffb565b606091505b5091509150811561500f579150614eaa9050565b80511561501f5780518082602001fd5b8360405162461bcd60e51b81526004016109489190615852565b3b151590565b60405180606001604052806000815260200160008152602001600081525090565b604051806040016040528060008152602001600081525090565b6040805160c081018252600080825260208201819052918101829052606081018290526080810182905260a081019190915290565b60405180604001604052806002906020820280368337509192915050565b60405180606001604052806003906020820280368337509192915050565b60405180608001604052806004906020820280368337509192915050565b82805482825590600052602060002090810192821561515e579160200282015b8281111561515e57825182546001600160a01b0319166001600160a01b03909116178255602090920191600190910190615129565b5061516a92915061516e565b5090565b5b8082111561516a5780546001600160a01b031916815560010161516f565b600082601f83011261519d578081fd5b6151a76060615e04565b90508082846060850111156151bb57600080fd5b60005b60038110156151dd5781358352602092830192909101906001016151be565b50505092915050565b6000606082840312156151f7578081fd5b6152016060615e04565b9050813561520e81615e77565b80825250602082013560208201526040820135604082015292915050565b60006020828403121561523d578081fd5b8135613f4d81615e77565b600060208284031215615259578081fd5b8151613f4d81615e77565b60008060408385031215615276578081fd5b823561528181615e77565b9150602083013561529181615e77565b809150509250929050565b600080600080600060a086880312156152b3578081fd5b85356152be81615e77565b945060208601356152ce81615e77565b935060408601356152de81615e77565b925060608601356152ee81615e77565b915060808601356152fe81615e77565b809150509295509295909350565b60008060008060008060008060006102008a8c03121561532a578384fd5b893561533581615e77565b985060208a81013561534681615e77565b985060408b013561535681615e77565b975060608b013561536681615e77565b965060808b013561537681615e77565b955060bf8b018c13615386578485fd5b6153906080615e04565b8060a08d016101208e018f8111156153a6578889fd5b885b60048110156153ce5782356153bc81615e77565b855293850193918501916001016153a8565b50919750503594506153e891508c90506101408c0161518d565b91506153f88b6101a08c016151e6565b90509295985092959850929598565b60008060006060848603121561541b578283fd5b833561542681615e77565b9250602084013561543681615e77565b929592945050506040919091013590565b60006020808385031215615459578182fd5b825167ffffffffffffffff81111561546f578283fd5b8301601f8101851361547f578283fd5b805161549261548d82615e2b565b615e04565b81815283810190838501858402850186018910156154ae578687fd5b8694505b838510156154d05780518352600194909401939185019185016154b2565b50979650505050505050565b6000602082840312156154ed578081fd5b8151613f4d81615e8c565b60008060006060848603121561550c578081fd5b835161551781615e9a565b602085015190935061552881615e9a565b604085015190925061553981615e8c565b809150509250925092565b600060c08284031215615555578081fd5b61555f60c0615e04565b825161556a81615e77565b8152602083015161557a81615e77565b6020820152604083015161558d81615e77565b604082015260608301516155a081615e77565b606082015260808301516155b381615e77565b608082015260a08301516155c681615e8c565b60a08201529392505050565b6000602082840312156155e3578081fd5b5035919050565b6000602082840312156155fb578081fd5b5051919050565b6000815180845260208085019450808401835b8381101561563a5781516001600160a01b031687529582019590820190600101615615565b509495945050505050565b60008251615657818460208701615e4b565b9190910192915050565b6001600160a01b0391909116815260200190565b6001600160a01b0392831681529116602082015260400190565b6001600160a01b0393841681529183166020830152909116604082015260600190565b6001600160a01b038481168252831660208201526060604082018190526000906156de90830184615602565b95945050505050565b6001600160a01b039384168152919092166020820152604081019190915260600190565b6001600160a01b039290921682521515602082015260400190565b6001600160a01b03929092168252602082015260400190565b6001600160a01b039390931683526020830191909152604082015260600190565b600060208252613f4d6020830184615602565b60608101818460005b600281101561579b57815183526020928301929091019060010161577c565b5050508260408301529392505050565b60808101818460005b60038110156157d35781518352602092830192909101906001016157b4565b5050508260608301529392505050565b60a08101818460005b600481101561580b5781518352602092830192909101906001016157ec565b5050508260808301529392505050565b901515815260200190565b600f94850b81529290930b60208301526040820152606081019190915260800190565b90815260200190565b6000602082528251806020840152615871816040850160208701615e4b565b601f01601f19169190910160400192915050565b6020808252601490820152736f6e6c79417574686f72697a65644163746f727360601b604082015260600190565b602080825260139082015272426164206e756d506f6f6c456c656d656e747360681b604082015260600190565b60208082526014908201527314185d5cd8589b194e881b9bdd081c185d5cd95960621b604082015260600190565b6020808252602d908201527f646966662f65787065637465642d6869676865722d6e756d6265722d696e2d6660408201526c34b939ba16b837b9b4ba34b7b760991b606082015260800190565b6020808252600d908201526c6578636573736976652d66656560981b604082015260600190565b6020808252601b908201527f536166654d6174683a206164646974696f6e206f766572666c6f770000000000604082015260600190565b6020808252600e908201526d37b7363ca1b7b73a3937b63632b960911b604082015260600190565b6020808252818101527f6f6e6c79417574686f72697a65644163746f72734f72436f6e74726f6c6c6572604082015260600190565b602080825260139082015272195e18d95cdcda5d994b5d1a1c995cda1bdb19606a1b604082015260600190565b60208082526010908201526f14185d5cd8589b194e881c185d5cd95960821b604082015260600190565b6020808252600490820152631dd85b9d60e21b604082015260600190565b6020808252602e908201527f496e697469616c697a61626c653a20636f6e747261637420697320616c72656160408201526d191e481a5b9a5d1a585b1a5e995960921b606082015260800190565b60208082526027908201527f77697468647261772d6578636565642d6d61782d646576696174696f6e2d74686040820152661c995cda1bdb1960ca1b606082015260800190565b60208082526021908201527f536166654d6174683a206d756c7469706c69636174696f6e206f766572666c6f6040820152607760f81b606082015260800190565b602080825260069082015265085d985d5b1d60d21b604082015260600190565b6020808252600e908201526d1dd85b9d0b591958dc99585cd95960921b604082015260600190565b6020808252600b908201526a6f6e6c795061757365727360a81b604082015260600190565b60208082526006908201526531bb3c21b93b60d11b604082015260600190565b60208082526003908201526231b93b60e91b604082015260600190565b6020808252601d908201527f416464726573733a2063616c6c20746f206e6f6e2d636f6e7472616374000000604082015260600190565b6020808252600390820152620c6ecf60eb1b604082015260600190565b6020808252602a908201527f5361666545524332303a204552433230206f7065726174696f6e20646964206e6040820152691bdd081cdd58d8d9595960b21b606082015260800190565b6020808252600e908201526d6f6e6c79476f7665726e616e636560901b604082015260600190565b60208082526036908201527f5361666545524332303a20617070726f76652066726f6d206e6f6e2d7a65726f60408201527520746f206e6f6e2d7a65726f20616c6c6f77616e636560501b606082015260800190565b81518152602080830151908201526040918201519181019190915260600190565b9182521515602082015260400190565b928352600f9190910b6020830152604082015260600190565b600086825285602083015260a06040830152615d9060a0830186615602565b6001600160a01b0394909416606083015250608001529392505050565b918252602082015260400190565b92835260208301919091521515604082015260600190565b9283526020830191909152604082015260600190565b93845260208401929092526040830152606082015260800190565b60405181810167ffffffffffffffff81118282101715615e2357600080fd5b604052919050565b600067ffffffffffffffff821115615e41578081fd5b5060209081020190565b60005b83811015615e66578181015183820152602001615e4e565b83811115610be35750506000910152565b6001600160a01b038116811461387a57600080fd5b801515811461387a57600080fd5b80600f0b811461387a57600080fdfe00000000000000000000000062b9c7356a2dc64a1969e19c23e4f579f9810aa7000000000000000000000000d533a949740bb3306d119cc777fa900ba034cd520000000000000000000000004e3fbd56cd56c3e72c1403e103b45db9da5b9d2ba26469706673582212201a8a1608543ae94dff8693139baaf9e48cec9e3ad3c6ab3959a52c02498737d664736f6c634300060c0033",
  "linkReferences": {},
  "deployedLinkReferences": {}
}