{
  "_format": "hh-sol-artifact-1",
  "contractName": "SettAccessControlDefended",
  "sourceName": "deps/SettAccessControlDefended.sol",
  "abi": [
    {
      "inputs": [
        {
          "internalType": "address",
          "name": "account",
          "type": "address"
        }
      ],
      "name": "approveContractAccess",
      "outputs": [],
      "stateMutability": "nonpayable",
      "type": "function"
    },
    {
      "inputs": [
        {
          "internalType": "address",
          "name": "",
          "type": "address"
        }
      ],
      "name": "approved",
      "outputs": [
        {
          "internalType": "bool",
          "name": "",
          "type": "bool"
        }
      ],
      "stateMutability": "view",
      "type": "function"
    },
    {
      "inputs": [],
      "name": "governance",
      "outputs": [
        {
          "internalType": "address",
          "name": "",
          "type": "address"
        }
      ],
      "stateMutability": "view",
      "type": "function"
    },
    {
      "inputs": [],
      "name": "keeper",
      "outputs": [
        {
          "internalType": "address",
          "name": "",
          "type": "address"
        }
      ],
      "stateMutability": "view",
      "type": "function"
    },
    {
      "inputs": [
        {
          "internalType": "address",
          "name": "account",
          "type": "address"
        }
      ],
      "name": "revokeContractAccess",
      "outputs": [],
      "stateMutability": "nonpayable",
      "type": "function"
    },
    {
      "inputs": [
        {
          "internalType": "address",
          "name": "_governance",
          "type": "address"
        }
      ],
      "name": "setGovernance",
      "outputs": [],
      "stateMutability": "nonpayable",
      "type": "function"
    },
    {
      "inputs": [
        {
          "internalType": "address",
          "name": "_keeper",
          "type": "address"
        }
      ],
      "name": "setKeeper",
      "outputs": [],
      "stateMutability": "nonpayable",
      "type": "function"
    },
    {
      "inputs": [
        {
          "internalType": "address",
          "name": "_strategist",
          "type": "address"
        }
      ],
      "name": "setStrategist",
      "outputs": [],
      "stateMutability": "nonpayable",
      "type": "function"
    },
    {
      "inputs": [],
      "name": "strategist",
      "outputs": [
        {
          "internalType": "address",
          "name": "",
          "type": "address"
        }
      ],
      "stateMutability": "view",
      "type": "function"
    }
  ],
  "bytecode": "0x608060405234801561001057600080fd5b50610377806100206000396000f3fe608060405234801561001057600080fd5b50600436106100935760003560e01c80637c61e865116100665780637c61e86514610112578063ab033ea914610138578063aced16611461015e578063c7b9d53014610166578063d8b964e61461018c57610093565b80631fe4a686146100985780635aa6e675146100bc5780636c361865146100c4578063748747e6146100ec575b600080fd5b6100a06101c6565b604080516001600160a01b039092168252519081900360200190f35b6100a06101d5565b6100ea600480360360208110156100da57600080fd5b50356001600160a01b03166101ea565b005b6100ea6004803603602081101561010257600080fd5b50356001600160a01b0316610216565b6100ea6004803603602081101561012857600080fd5b50356001600160a01b0316610240565b6100ea6004803603602081101561014e57600080fd5b50356001600160a01b0316610269565b6100a061029b565b6100ea6004803603602081101561017c57600080fd5b50356001600160a01b03166102aa565b6101b2600480360360208110156101a257600080fd5b50356001600160a01b03166102d4565b604080519115158252519081900360200190f35b6001546001600160a01b031681565b6000546201000090046001600160a01b031681565b6101f26102e9565b6001600160a01b03166000908152603560205260409020805460ff19166001179055565b61021e6102e9565b600280546001600160a01b0319166001600160a01b0392909216919091179055565b6102486102e9565b6001600160a01b03166000908152603560205260409020805460ff19169055565b6102716102e9565b600080546001600160a01b03909216620100000262010000600160b01b0319909216919091179055565b6002546001600160a01b031681565b6102b26102e9565b600180546001600160a01b0319166001600160a01b0392909216919091179055565b60356020526000908152604090205460ff1681565b6000546201000090046001600160a01b0316331461033f576040805162461bcd60e51b815260206004820152600e60248201526d6f6e6c79476f7665726e616e636560901b604482015290519081900360640190fd5b56fea2646970667358221220fd6396f129e885d87d0e22192d6e7e9b5cac9ced6a0029c7de2ee8d10326a31e64736f6c634300060c0033",
  "linkReferences": {},
  "deployedLinkReferences": {}
}