{
  "_format": "hh-sol-artifact-1",
  "contractName": "PausableUpgradeable",
  "sourceName": "deps/@openzeppelin/contracts-upgradeable/utils/PausableUpgradeable.sol",
  "abi": [
    {
      "anonymous": false,
      "inputs": [
        {
          "indexed": false,
          "internalType": "address",
          "name": "account",
          "type": "address"
        }
      ],
      "name": "Paused",
      "type": "event"
    },
    {
      "anonymous": false,
      "inputs": [
        {
          "indexed": false,
          "internalType": "address",
          "name": "account",
          "type": "address"
        }
      ],
      "name": "Unpaused",
      "type": "event"
    },
    {
      "inputs": [],
      "name": "paused",
      "outputs": [
        {
          "internalType": "bool",
          "name": "",
          "type": "bool"
        }
      ],
      "stateMutability": "view",
      "type": "function"
    }
  ],
  "bytecode": "0x6080604052348015600f57600080fd5b5060868061001e6000396000f3fe6080604052348015600f57600080fd5b506004361060285760003560e01c80635c975abb14602d575b600080fd5b60336047565b604080519115158252519081900360200190f35b60335460ff169056fea2646970667358221220b1aac319dce511df6ecf7fac4e3016f8c8db2604c7bff2cb78b5aa323e20035d64736f6c634300060c0033",
  "linkReferences": {},
  "deployedLinkReferences": {}
}