{
  "_format": "hh-sol-artifact-1",
  "contractName": "TokenSwapPathRegistry",
  "sourceName": "deps/libraries/TokenSwapPathRegistry.sol",
  "abi": [
    {
      "anonymous": false,
      "inputs": [
        {
          "indexed": false,
          "internalType": "address",
          "name": "tokenIn",
          "type": "address"
        },
        {
          "indexed": false,
          "internalType": "address",
          "name": "tokenOut",
          "type": "address"
        },
        {
          "indexed": false,
          "internalType": "address[]",
          "name": "path",
          "type": "address[]"
        }
      ],
      "name": "TokenSwapPathSet",
      "type": "event"
    },
    {
      "inputs": [
        {
          "internalType": "address",
          "name": "tokenIn",
          "type": "address"
        },
        {
          "internalType": "address",
          "name": "tokenOut",
          "type": "address"
        }
      ],
      "name": "getTokenSwapPath",
      "outputs": [
        {
          "internalType": "address[]",
          "name": "",
          "type": "address[]"
        }
      ],
      "stateMutability": "view",
      "type": "function"
    },
    {
      "inputs": [
        {
          "internalType": "address",
          "name": "",
          "type": "address"
        },
        {
          "internalType": "address",
          "name": "",
          "type": "address"
        },
        {
          "internalType": "uint256",
          "name": "",
          "type": "uint256"
        }
      ],
      "name": "tokenSwapPaths",
      "outputs": [
        {
          "internalType": "address",
          "name": "",
          "type": "address"
        }
      ],
      "stateMutability": "view",
      "type": "function"
    }
  ],
  "bytecode": "0x608060405234801561001057600080fd5b50610204806100206000396000f3fe608060405234801561001057600080fd5b50600436106100365760003560e01c80638acdbfaf1461003b578063eb4e55df146100b9575b600080fd5b6100696004803603604081101561005157600080fd5b506001600160a01b038135811691602001351661010b565b60408051602080825283518183015283519192839290830191858101910280838360005b838110156100a557818101518382015260200161008d565b505050509050019250505060405180910390f35b6100ef600480360360608110156100cf57600080fd5b506001600160a01b0381358116916020810135909116906040013561018c565b604080516001600160a01b039092168252519081900360200190f35b6001600160a01b0380831660009081526020818152604080832093851683529281529082902080548351818402810184019094528084526060939283018282801561017f57602002820191906000526020600020905b81546001600160a01b03168152600190910190602001808311610161575b5050505050905092915050565b600060205282600052604060002060205281600052604060002081815481106101b157fe5b6000918252602090912001546001600160a01b031692508391505056fea26469706673582212202f5dbb8c6c2b29ca583cf1e5d39816b7bb51d4579b44af917cf7a71fffe4eeb564736f6c634300060c0033",
  "linkReferences": {},
  "deployedLinkReferences": {}
}