{
  "_format": "hh-sol-artifact-1",
  "contractName": "SettV3",
  "sourceName": "contracts/deps/SettV3.sol",
  "abi": [
    {
      "anonymous": false,
      "inputs": [
        {
          "indexed": true,
          "internalType": "address",
          "name": "owner",
          "type": "address"
        },
        {
          "indexed": true,
          "internalType": "address",
          "name": "spender",
          "type": "address"
        },
        {
          "indexed": false,
          "internalType": "uint256",
          "name": "value",
          "type": "uint256"
        }
      ],
      "name": "Approval",
      "type": "event"
    },
    {
      "anonymous": false,
      "inputs": [
        {
          "indexed": false,
          "internalType": "uint256",
          "name": "value",
          "type": "uint256"
        },
        {
          "indexed": true,
          "internalType": "uint256",
          "name": "timestamp",
          "type": "uint256"
        },
        {
          "indexed": true,
          "internalType": "uint256",
          "name": "blockNumber",
          "type": "uint256"
        }
      ],
      "name": "FullPricePerShareUpdated",
      "type": "event"
    },
    {
      "anonymous": false,
      "inputs": [
        {
          "indexed": false,
          "internalType": "address",
          "name": "account",
          "type": "address"
        }
      ],
      "name": "Paused",
      "type": "event"
    },
    {
      "anonymous": false,
      "inputs": [
        {
          "indexed": true,
          "internalType": "address",
          "name": "from",
          "type": "address"
        },
        {
          "indexed": true,
          "internalType": "address",
          "name": "to",
          "type": "address"
        },
        {
          "indexed": false,
          "internalType": "uint256",
          "name": "value",
          "type": "uint256"
        }
      ],
      "name": "Transfer",
      "type": "event"
    },
    {
      "anonymous": false,
      "inputs": [
        {
          "indexed": false,
          "internalType": "address",
          "name": "account",
          "type": "address"
        }
      ],
      "name": "Unpaused",
      "type": "event"
    },
    {
      "inputs": [
        {
          "internalType": "address",
          "name": "owner",
          "type": "address"
        },
        {
          "internalType": "address",
          "name": "spender",
          "type": "address"
        }
      ],
      "name": "allowance",
      "outputs": [
        {
          "internalType": "uint256",
          "name": "",
          "type": "uint256"
        }
      ],
      "stateMutability": "view",
      "type": "function"
    },
    {
      "inputs": [
        {
          "internalType": "address",
          "name": "spender",
          "type": "address"
        },
        {
          "internalType": "uint256",
          "name": "amount",
          "type": "uint256"
        }
      ],
      "name": "approve",
      "outputs": [
        {
          "internalType": "bool",
          "name": "",
          "type": "bool"
        }
      ],
      "stateMutability": "nonpayable",
      "type": "function"
    },
    {
      "inputs": [
        {
          "internalType": "address",
          "name": "account",
          "type": "address"
        }
      ],
      "name": "approveContractAccess",
      "outputs": [],
      "stateMutability": "nonpayable",
      "type": "function"
    },
    {
      "inputs": [
        {
          "internalType": "address",
          "name": "",
          "type": "address"
        }
      ],
      "name": "approved",
      "outputs": [
        {
          "internalType": "bool",
          "name": "",
          "type": "bool"
        }
      ],
      "stateMutability": "view",
      "type": "function"
    },
    {
      "inputs": [],
      "name": "available",
      "outputs": [
        {
          "internalType": "uint256",
          "name": "",
          "type": "uint256"
        }
      ],
      "stateMutability": "view",
      "type": "function"
    },
    {
      "inputs": [],
      "name": "balance",
      "outputs": [
        {
          "internalType": "uint256",
          "name": "",
          "type": "uint256"
        }
      ],
      "stateMutability": "view",
      "type": "function"
    },
    {
      "inputs": [
        {
          "internalType": "address",
          "name": "account",
          "type": "address"
        }
      ],
      "name": "balanceOf",
      "outputs": [
        {
          "internalType": "uint256",
          "name": "",
          "type": "uint256"
        }
      ],
      "stateMutability": "view",
      "type": "function"
    },
    {
      "inputs": [
        {
          "internalType": "address",
          "name": "",
          "type": "address"
        }
      ],
      "name": "blockLock",
      "outputs": [
        {
          "internalType": "uint256",
          "name": "",
          "type": "uint256"
        }
      ],
      "stateMutability": "view",
      "type": "function"
    },
    {
      "inputs": [],
      "name": "controller",
      "outputs": [
        {
          "internalType": "address",
          "name": "",
          "type": "address"
        }
      ],
      "stateMutability": "view",
      "type": "function"
    },
    {
      "inputs": [],
      "name": "decimals",
      "outputs": [
        {
          "internalType": "uint8",
          "name": "",
          "type": "uint8"
        }
      ],
      "stateMutability": "view",
      "type": "function"
    },
    {
      "inputs": [
        {
          "internalType": "address",
          "name": "spender",
          "type": "address"
        },
        {
          "internalType": "uint256",
          "name": "subtractedValue",
          "type": "uint256"
        }
      ],
      "name": "decreaseAllowance",
      "outputs": [
        {
          "internalType": "bool",
          "name": "",
          "type": "bool"
        }
      ],
      "stateMutability": "nonpayable",
      "type": "function"
    },
    {
      "inputs": [
        {
          "internalType": "uint256",
          "name": "_amount",
          "type": "uint256"
        },
        {
          "internalType": "bytes32[]",
          "name": "proof",
          "type": "bytes32[]"
        }
      ],
      "name": "deposit",
      "outputs": [],
      "stateMutability": "nonpayable",
      "type": "function"
    },
    {
      "inputs": [
        {
          "internalType": "uint256",
          "name": "_amount",
          "type": "uint256"
        }
      ],
      "name": "deposit",
      "outputs": [],
      "stateMutability": "nonpayable",
      "type": "function"
    },
    {
      "inputs": [
        {
          "internalType": "bytes32[]",
          "name": "proof",
          "type": "bytes32[]"
        }
      ],
      "name": "depositAll",
      "outputs": [],
      "stateMutability": "nonpayable",
      "type": "function"
    },
    {
      "inputs": [],
      "name": "depositAll",
      "outputs": [],
      "stateMutability": "nonpayable",
      "type": "function"
    },
    {
      "inputs": [],
      "name": "earn",
      "outputs": [],
      "stateMutability": "nonpayable",
      "type": "function"
    },
    {
      "inputs": [],
      "name": "getPricePerFullShare",
      "outputs": [
        {
          "internalType": "uint256",
          "name": "",
          "type": "uint256"
        }
      ],
      "stateMutability": "view",
      "type": "function"
    },
    {
      "inputs": [],
      "name": "governance",
      "outputs": [
        {
          "internalType": "address",
          "name": "",
          "type": "address"
        }
      ],
      "stateMutability": "view",
      "type": "function"
    },
    {
      "inputs": [],
      "name": "guardian",
      "outputs": [
        {
          "internalType": "address",
          "name": "",
          "type": "address"
        }
      ],
      "stateMutability": "view",
      "type": "function"
    },
    {
      "inputs": [],
      "name": "guestList",
      "outputs": [
        {
          "internalType": "contract BadgerGuestListAPI",
          "name": "",
          "type": "address"
        }
      ],
      "stateMutability": "view",
      "type": "function"
    },
    {
      "inputs": [
        {
          "internalType": "address",
          "name": "reserve",
          "type": "address"
        },
        {
          "internalType": "uint256",
          "name": "amount",
          "type": "uint256"
        }
      ],
      "name": "harvest",
      "outputs": [],
      "stateMutability": "nonpayable",
      "type": "function"
    },
    {
      "inputs": [
        {
          "internalType": "address",
          "name": "spender",
          "type": "address"
        },
        {
          "internalType": "uint256",
          "name": "addedValue",
          "type": "uint256"
        }
      ],
      "name": "increaseAllowance",
      "outputs": [
        {
          "internalType": "bool",
          "name": "",
          "type": "bool"
        }
      ],
      "stateMutability": "nonpayable",
      "type": "function"
    },
    {
      "inputs": [
        {
          "internalType": "address",
          "name": "_token",
          "type": "address"
        },
        {
          "internalType": "address",
          "name": "_controller",
          "type": "address"
        },
        {
          "internalType": "address",
          "name": "_governance",
          "type": "address"
        },
        {
          "internalType": "address",
          "name": "_keeper",
          "type": "address"
        },
        {
          "internalType": "address",
          "name": "_guardian",
          "type": "address"
        },
        {
          "internalType": "bool",
          "name": "_overrideTokenName",
          "type": "bool"
        },
        {
          "internalType": "string",
          "name": "_namePrefix",
          "type": "string"
        },
        {
          "internalType": "string",
          "name": "_symbolPrefix",
          "type": "string"
        }
      ],
      "name": "initialize",
      "outputs": [],
      "stateMutability": "nonpayable",
      "type": "function"
    },
    {
      "inputs": [],
      "name": "keeper",
      "outputs": [
        {
          "internalType": "address",
          "name": "",
          "type": "address"
        }
      ],
      "stateMutability": "view",
      "type": "function"
    },
    {
      "inputs": [],
      "name": "max",
      "outputs": [
        {
          "internalType": "uint256",
          "name": "",
          "type": "uint256"
        }
      ],
      "stateMutability": "view",
      "type": "function"
    },
    {
      "inputs": [],
      "name": "min",
      "outputs": [
        {
          "internalType": "uint256",
          "name": "",
          "type": "uint256"
        }
      ],
      "stateMutability": "view",
      "type": "function"
    },
    {
      "inputs": [],
      "name": "name",
      "outputs": [
        {
          "internalType": "string",
          "name": "",
          "type": "string"
        }
      ],
      "stateMutability": "view",
      "type": "function"
    },
    {
      "inputs": [],
      "name": "pause",
      "outputs": [],
      "stateMutability": "nonpayable",
      "type": "function"
    },
    {
      "inputs": [],
      "name": "paused",
      "outputs": [
        {
          "internalType": "bool",
          "name": "",
          "type": "bool"
        }
      ],
      "stateMutability": "view",
      "type": "function"
    },
    {
      "inputs": [
        {
          "internalType": "address",
          "name": "account",
          "type": "address"
        }
      ],
      "name": "revokeContractAccess",
      "outputs": [],
      "stateMutability": "nonpayable",
      "type": "function"
    },
    {
      "inputs": [
        {
          "internalType": "address",
          "name": "_controller",
          "type": "address"
        }
      ],
      "name": "setController",
      "outputs": [],
      "stateMutability": "nonpayable",
      "type": "function"
    },
    {
      "inputs": [
        {
          "internalType": "address",
          "name": "_governance",
          "type": "address"
        }
      ],
      "name": "setGovernance",
      "outputs": [],
      "stateMutability": "nonpayable",
      "type": "function"
    },
    {
      "inputs": [
        {
          "internalType": "address",
          "name": "_guardian",
          "type": "address"
        }
      ],
      "name": "setGuardian",
      "outputs": [],
      "stateMutability": "nonpayable",
      "type": "function"
    },
    {
      "inputs": [
        {
          "internalType": "address",
          "name": "_guestList",
          "type": "address"
        }
      ],
      "name": "setGuestList",
      "outputs": [],
      "stateMutability": "nonpayable",
      "type": "function"
    },
    {
      "inputs": [
        {
          "internalType": "address",
          "name": "_keeper",
          "type": "address"
        }
      ],
      "name": "setKeeper",
      "outputs": [],
      "stateMutability": "nonpayable",
      "type": "function"
    },
    {
      "inputs": [
        {
          "internalType": "uint256",
          "name": "_min",
          "type": "uint256"
        }
      ],
      "name": "setMin",
      "outputs": [],
      "stateMutability": "nonpayable",
      "type": "function"
    },
    {
      "inputs": [
        {
          "internalType": "address",
          "name": "_strategist",
          "type": "address"
        }
      ],
      "name": "setStrategist",
      "outputs": [],
      "stateMutability": "nonpayable",
      "type": "function"
    },
    {
      "inputs": [],
      "name": "strategist",
      "outputs": [
        {
          "internalType": "address",
          "name": "",
          "type": "address"
        }
      ],
      "stateMutability": "view",
      "type": "function"
    },
    {
      "inputs": [],
      "name": "symbol",
      "outputs": [
        {
          "internalType": "string",
          "name": "",
          "type": "string"
        }
      ],
      "stateMutability": "view",
      "type": "function"
    },
    {
      "inputs": [],
      "name": "token",
      "outputs": [
        {
          "internalType": "contract IERC20Upgradeable",
          "name": "",
          "type": "address"
        }
      ],
      "stateMutability": "view",
      "type": "function"
    },
    {
      "inputs": [],
      "name": "totalSupply",
      "outputs": [
        {
          "internalType": "uint256",
          "name": "",
          "type": "uint256"
        }
      ],
      "stateMutability": "view",
      "type": "function"
    },
    {
      "inputs": [],
      "name": "trackFullPricePerShare",
      "outputs": [],
      "stateMutability": "nonpayable",
      "type": "function"
    },
    {
      "inputs": [
        {
          "internalType": "address",
          "name": "recipient",
          "type": "address"
        },
        {
          "internalType": "uint256",
          "name": "amount",
          "type": "uint256"
        }
      ],
      "name": "transfer",
      "outputs": [
        {
          "internalType": "bool",
          "name": "",
          "type": "bool"
        }
      ],
      "stateMutability": "nonpayable",
      "type": "function"
    },
    {
      "inputs": [
        {
          "internalType": "address",
          "name": "sender",
          "type": "address"
        },
        {
          "internalType": "address",
          "name": "recipient",
          "type": "address"
        },
        {
          "internalType": "uint256",
          "name": "amount",
          "type": "uint256"
        }
      ],
      "name": "transferFrom",
      "outputs": [
        {
          "internalType": "bool",
          "name": "",
          "type": "bool"
        }
      ],
      "stateMutability": "nonpayable",
      "type": "function"
    },
    {
      "inputs": [],
      "name": "unpause",
      "outputs": [],
      "stateMutability": "nonpayable",
      "type": "function"
    },
    {
      "inputs": [],
      "name": "version",
      "outputs": [
        {
          "internalType": "string",
          "name": "",
          "type": "string"
        }
      ],
      "stateMutability": "view",
      "type": "function"
    },
    {
      "inputs": [
        {
          "internalType": "uint256",
          "name": "_shares",
          "type": "uint256"
        }
      ],
      "name": "withdraw",
      "outputs": [],
      "stateMutability": "nonpayable",
      "type": "function"
    },
    {
      "inputs": [],
      "name": "withdrawAll",
      "outputs": [],
      "stateMutability": "nonpayable",
      "type": "function"
    }
  ],
  "bytecode": "0x608060405234801561001057600080fd5b50613648806100206000396000f3fe608060405234801561001057600080fd5b50600436106102a05760003560e01c806370a0823111610167578063aced1661116100ce578063d8b964e611610087578063d8b964e6146109a6578063dd62ed3e146109cc578063de5f6268146109fa578063f77c479114610a02578063f889794514610a0a578063fc0c546a14610a12576102a0565b8063aced1661146108aa578063b69ef8a8146108b2578063b6b55f25146108ba578063bad91bdb146108d7578063c7b9d53014610978578063d389800f1461099e576102a0565b80638a0dac4a116101205780638a0dac4a146107d857806392eefe9b146107fe57806395d89b4114610824578063a457c2d71461082c578063a9059cbb14610858578063ab033ea914610884576102a0565b806370a082311461074e578063748747e61461077457806377c7b8fc1461079a5780637c61e865146107a25780638456cb59146107c8578063853828b6146107d0576102a0565b80633f4ba83a1161020b57806354fd4d50116101c457806354fd4d50146105a45780635aa6e675146105ac5780635c975abb146105b45780636845bc42146105bc5780636ac5db19146107205780636c36186514610728576102a0565b80633f4ba83a1461055f578063452a93201461056757806345dc3dd81461056f57806346d558751461058c57806348a0d754146105945780634a157c7b1461059c576102a0565b806323b872dd1161025d57806323b872dd146103f4578063269ac0511461042a5780632e1a7d4d14610450578063313ce5671461046d57806335ac79c31461048b5780633950935114610533576102a0565b8063018ee9b7146102a557806306fdde03146102d3578063095ea7b3146103505780630b5b78eb1461039057806318160ddd146103b65780631fe4a686146103d0575b600080fd5b6102d1600480360360408110156102bb57600080fd5b506001600160a01b038135169060200135610a1a565b005b6102db610ad2565b6040805160208082528351818301528351919283929083019185019080838360005b838110156103155781810151838201526020016102fd565b50505050905090810190601f1680156103425780820380516001836020036101000a031916815260200191505b509250505060405180910390f35b61037c6004803603604081101561036657600080fd5b506001600160a01b038135169060200135610b69565b604080519115158252519081900360200190f35b6102d1600480360360208110156103a657600080fd5b50356001600160a01b0316610b87565b6103be610bf8565b60408051918252519081900360200190f35b6103d8610bfe565b604080516001600160a01b039092168252519081900360200190f35b61037c6004803603606081101561040a57600080fd5b506001600160a01b03813581169160208101359091169060400135610c0d565b6103be6004803603602081101561044057600080fd5b50356001600160a01b0316610c71565b6102d16004803603602081101561046657600080fd5b5035610c84565b610475610cf0565b6040805160ff9092168252519081900360200190f35b6102d1600480360360408110156104a157600080fd5b81359190810190604081016020820135600160201b8111156104c257600080fd5b8201836020820111156104d457600080fd5b803590602001918460208302840111600160201b831117156104f557600080fd5b919080806020026020016040519081016040528093929190818152602001838360200280828437600092019190915250929550610cf9945050505050565b61037c6004803603604081101561054957600080fd5b506001600160a01b038135169060200135610d63565b6102d1610db6565b6103d8610dc8565b6102d16004803603602081101561058557600080fd5b5035610dd8565b6103d8610e2c565b6103be610e3c565b6102d1610ed7565b6102db610f63565b6103d8610f80565b61037c610f8f565b6102d160048036036101008110156105d357600080fd5b6001600160a01b03823581169260208101358216926040820135831692606083013581169260808101359091169160a08201351515919081019060e0810160c0820135600160201b81111561062757600080fd5b82018360208201111561063957600080fd5b803590602001918460018302840111600160201b8311171561065a57600080fd5b91908080601f0160208091040260200160405190810160405280939291908181526020018383808284376000920191909152509295949360208101935035915050600160201b8111156106ac57600080fd5b8201836020820111156106be57600080fd5b803590602001918460018302840111600160201b831117156106df57600080fd5b91908080601f016020809104026020016040519081016040528093929190818152602001838380828437600092019190915250929550610f98945050505050565b6103be611731565b6102d16004803603602081101561073e57600080fd5b50356001600160a01b0316611737565b6103be6004803603602081101561076457600080fd5b50356001600160a01b0316611763565b6102d16004803603602081101561078a57600080fd5b50356001600160a01b031661177e565b6103be6117a8565b6102d1600480360360208110156107b857600080fd5b50356001600160a01b03166117ea565b6102d1611813565b6102d1611823565b6102d1600480360360208110156107ee57600080fd5b50356001600160a01b0316611894565b6102d16004803603602081101561081457600080fd5b50356001600160a01b0316611905565b6102db611976565b61037c6004803603604081101561084257600080fd5b506001600160a01b0381351690602001356119d7565b61037c6004803603604081101561086e57600080fd5b506001600160a01b038135169060200135611a3f565b6102d16004803603602081101561089a57600080fd5b50356001600160a01b0316611aa1565b6103d8611acb565b6103be611ada565b6102d1600480360360208110156108d057600080fd5b5035611bd8565b6102d1600480360360208110156108ed57600080fd5b810190602081018135600160201b81111561090757600080fd5b82018360208201111561091957600080fd5b803590602001918460208302840111600160201b8311171561093a57600080fd5b919080806020026020016040519081016040528093929190818152602001838360200280828437600092019190915250929550611c70945050505050565b6102d16004803603602081101561098e57600080fd5b50356001600160a01b0316611d4e565b6102d1611d78565b61037c600480360360208110156109bc57600080fd5b50356001600160a01b0316611e65565b6103be600480360360408110156109e257600080fd5b506001600160a01b0381358116916020013516611e7a565b6102d1611ea5565b6103d8611f85565b6103be611f95565b6103d8611f9c565b60cd5460ff1615610a60576040805162461bcd60e51b81526020600482015260106024820152600080516020613580833981519152604482015290519081900360640190fd5b610a68611fab565b60ff546001600160a01b0383811691161415610ab3576040805162461bcd60e51b81526020600482015260056024820152643a37b5b2b760d91b604482015290519081900360640190fd5b61010154610ace906001600160a01b03848116911683611ffc565b5050565b60368054604080516020601f6002600019610100600188161502019095169490940493840181900481028201810190925282815260609390929091830182828015610b5e5780601f10610b3357610100808354040283529160200191610b5e565b820191906000526020600020905b815481529060010190602001808311610b4157829003601f168201915b505050505090505b90565b6000610b7d610b76612053565b8484612057565b5060015b92915050565b60cd5460ff1615610bcd576040805162461bcd60e51b81526020600482015260106024820152600080516020613580833981519152604482015290519081900360640190fd5b610bd5612143565b61010480546001600160a01b0319166001600160a01b0392909216919091179055565b60355490565b6066546001600160a01b031681565b60cd5460009060ff1615610c56576040805162461bcd60e51b81526020600482015260106024820152600080516020613580833981519152604482015290519081900360640190fd5b610c5e612193565b610c698484846121e5565b949350505050565b6101026020526000908152604090205481565b60cd5460ff1615610cca576040805162461bcd60e51b81526020600482015260106024820152600080516020613580833981519152604482015290519081900360640190fd5b610cd2612267565b50610cdb612193565b610ce4336122d5565b610ced816122f2565b50565b60385460ff1690565b60cd5460ff1615610d3f576040805162461bcd60e51b81526020600482015260106024820152600080516020613580833981519152604482015290519081900360640190fd5b610d47612267565b50610d50612193565b610d59336122d5565b610ace82826124d0565b6000610b7d610d70612053565b84610db18560346000610d81612053565b6001600160a01b03908116825260208083019390935260409182016000908120918c168152925290205490612602565b612057565b610dbe612143565b610dc661265c565b565b610103546001600160a01b031681565b60cd5460ff1615610e1e576040805162461bcd60e51b81526020600482015260106024820152600080516020613580833981519152604482015290519081900360640190fd5b610e26612143565b61010055565b610104546001600160a01b031681565b6101005460ff54604080516370a0823160e01b81523060048201529051600093610ed29361271093610ecc936001600160a01b03909216916370a0823191602480820192602092909190829003018186803b158015610e9a57600080fd5b505afa158015610eae573d6000803e3d6000fd5b505050506040513d6020811015610ec457600080fd5b5051906126fa565b90612753565b905090565b60cd5460ff1615610f1d576040805162461bcd60e51b81526020600482015260106024820152600080516020613580833981519152604482015290519081900360640190fd5b610f25612795565b43427ffd60e70298d1c5272d3164dec70c527f1c64556cf7ca2dc10bdc753143ffc45b610f506117a8565b60408051918252519081900360200190a3565b604080518082019091526003815262312e3360e81b602082015290565b6065546001600160a01b031681565b60cd5460ff1690565b600054610100900460ff1680610fb15750610fb1612800565b80610fbf575060005460ff16155b610ffa5760405162461bcd60e51b815260040180806020018281038252602e8152602001806134c3602e913960400191505060405180910390fd5b600054610100900460ff16158015611025576000805460ff1961ff0019909116610100171660011790555b60cd5460ff161561106b576040805162461bcd60e51b81526020600482015260106024820152600080516020613580833981519152604482015290519081900360640190fd5b60008990506060816001600160a01b03166306fdde036040518163ffffffff1660e01b815260040160006040518083038186803b1580156110ab57600080fd5b505afa1580156110bf573d6000803e3d6000fd5b505050506040513d6000823e601f3d908101601f1916820160405260208110156110e857600080fd5b8101908080516040519392919084600160201b82111561110757600080fd5b90830190602082018581111561111c57600080fd5b8251600160201b81118282018810171561113557600080fd5b82525081516020918201929091019080838360005b8381101561116257818101518382015260200161114a565b50505050905090810190601f16801561118f5780820380516001836020036101000a031916815260200191505b5060405250505090506060826001600160a01b03166395d89b416040518163ffffffff1660e01b815260040160006040518083038186803b1580156111d357600080fd5b505afa1580156111e7573d6000803e3d6000fd5b505050506040513d6000823e601f3d908101601f19168201604052602081101561121057600080fd5b8101908080516040519392919084600160201b82111561122f57600080fd5b90830190602082018581111561124457600080fd5b8251600160201b81118282018810171561125d57600080fd5b82525081516020918201929091019080838360005b8381101561128a578181015183820152602001611272565b50505050905090810190601f1680156112b75780820380516001836020036101000a031916815260200191505b50604052505050905060608088156114345787846040516020018083805190602001908083835b602083106112fd5780518252601f1990920191602091820191016112de565b51815160209384036101000a600019018019909216911617905285519190930192850191508083835b602083106113455780518252601f199092019160209182019101611326565b6001836020036101000a03801982511681845116808217855250505050505090500192505050604051602081830303815290604052915086836040516020018083805190602001908083835b602083106113b05780518252601f199092019160209182019101611391565b51815160209384036101000a600019018019909216911617905285519190930192850191508083835b602083106113f85780518252601f1990920191602091820191016113d9565b6001836020036101000a0380198251168184511680821785525050505050509050019250505060405160208183030381529060405290506115ca565b6040518060400160405280600c81526020016b02130b233b2b91029b2ba3a160a51b815250846040516020018083805190602001908083835b6020831061148c5780518252601f19909201916020918201910161146d565b51815160209384036101000a600019018019909216911617905285519190930192850191508083835b602083106114d45780518252601f1990920191602091820191016114b5565b51815160209384036101000a60001901801990921691161790526040805192909401828103601f1901835280850185526001808252603160f91b8284019081529551939a509097508a965091019350839291508083835b6020831061154a5780518252601f19909201916020918201910161152b565b51815160209384036101000a600019018019909216911617905285519190930192850191508083835b602083106115925780518252601f199092019160209182019101611573565b6001836020036101000a0380198251168184511680821785525050505050509050019250505060405160208183030381529060405290505b6115d48282612806565b8d60ff60006101000a8154816001600160a01b0302191690836001600160a01b031602179055508b606560006101000a8154816001600160a01b0302191690836001600160a01b031602179055506000606660006101000a8154816001600160a01b0302191690836001600160a01b031602179055508a606760006101000a8154816001600160a01b0302191690836001600160a01b031602179055508c61010160006101000a8154816001600160a01b0302191690836001600160a01b031602179055508961010360006101000a8154816001600160a01b0302191690836001600160a01b0316021790555061251c6101008190555043427ffd60e70298d1c5272d3164dec70c527f1c64556cf7ca2dc10bdc753143ffc45b6116f66117a8565b60408051918252519081900360200190a361170f6128bb565b50505050508015611726576000805461ff00191690555b505050505050505050565b61271081565b61173f612143565b6001600160a01b03166000908152609a60205260409020805460ff19166001179055565b6001600160a01b031660009081526033602052604090205490565b611786612143565b606780546001600160a01b0319166001600160a01b0392909216919091179055565b60006117b2610bf8565b6117c55750670de0b6b3a7640000610b66565b610ed26117d0610bf8565b610ecc670de0b6b3a76400006117e4611ada565b906126fa565b6117f2612143565b6001600160a01b03166000908152609a60205260409020805460ff19169055565b61181b612937565b610dc66128bb565b60cd5460ff1615611869576040805162461bcd60e51b81526020600482015260106024820152600080516020613580833981519152604482015290519081900360640190fd5b611871612267565b5061187a612193565b611883336122d5565b610dc661188f33611763565b6122f2565b60cd5460ff16156118da576040805162461bcd60e51b81526020600482015260106024820152600080516020613580833981519152604482015290519081900360640190fd5b6118e2612143565b61010380546001600160a01b0319166001600160a01b0392909216919091179055565b60cd5460ff161561194b576040805162461bcd60e51b81526020600482015260106024820152600080516020613580833981519152604482015290519081900360640190fd5b611953612143565b61010180546001600160a01b0319166001600160a01b0392909216919091179055565b60378054604080516020601f6002600019610100600188161502019095169490940493840181900481028201810190925282815260609390929091830182828015610b5e5780601f10610b3357610100808354040283529160200191610b5e565b6000610b7d6119e4612053565b84610db1856040518060600160405280602581526020016135ee6025913960346000611a0e612053565b6001600160a01b03908116825260208083019390935260409182016000908120918d1681529252902054919061299a565b60cd5460009060ff1615611a88576040805162461bcd60e51b81526020600482015260106024820152600080516020613580833981519152604482015290519081900360640190fd5b611a90612193565b611a9a8383612a31565b9392505050565b611aa9612143565b606580546001600160a01b0319166001600160a01b0392909216919091179055565b6067546001600160a01b031681565b6101015460ff54604080516370a0823160e01b81526001600160a01b0392831660048201529051600093610ed29316916370a08231916024808301926020929190829003018186803b158015611b2f57600080fd5b505afa158015611b43573d6000803e3d6000fd5b505050506040513d6020811015611b5957600080fd5b505160ff54604080516370a0823160e01b815230600482015290516001600160a01b03909216916370a0823191602480820192602092909190829003018186803b158015611ba657600080fd5b505afa158015611bba573d6000803e3d6000fd5b505050506040513d6020811015611bd057600080fd5b505190612602565b60cd5460ff1615611c1e576040805162461bcd60e51b81526020600482015260106024820152600080516020613580833981519152604482015290519081900360640190fd5b611c26612267565b50611c2f612193565b611c38336122d5565b610ced816000805b50604051908082528060200260200182016040528015611c6a578160200160208202803683370190505b506124d0565b60cd5460ff1615611cb6576040805162461bcd60e51b81526020600482015260106024820152600080516020613580833981519152604482015290519081900360640190fd5b611cbe612267565b50611cc7612193565b611cd0336122d5565b60ff54604080516370a0823160e01b81523360048201529051610ced926001600160a01b0316916370a08231916024808301926020929190829003018186803b158015611d1c57600080fd5b505afa158015611d30573d6000803e3d6000fd5b505050506040513d6020811015611d4657600080fd5b5051826124d0565b611d56612143565b606680546001600160a01b0319166001600160a01b0392909216919091179055565b60cd5460ff1615611dbe576040805162461bcd60e51b81526020600482015260106024820152600080516020613580833981519152604482015290519081900360640190fd5b611dc6612795565b6000611dd0610e3c565b6101015460ff54919250611df1916001600160a01b03908116911683611ffc565b6101015460ff546040805163b02bf4b960e01b81526001600160a01b039283166004820152602481018590529051919092169163b02bf4b991604480830192600092919082900301818387803b158015611e4a57600080fd5b505af1158015611e5e573d6000803e3d6000fd5b5050505050565b609a6020526000908152604090205460ff1681565b6001600160a01b03918216600090815260346020908152604080832093909416825291909152205490565b60cd5460ff1615611eeb576040805162461bcd60e51b81526020600482015260106024820152600080516020613580833981519152604482015290519081900360640190fd5b611ef3612267565b50611efc612193565b611f05336122d5565b60ff54604080516370a0823160e01b81523360048201529051610dc6926001600160a01b0316916370a08231916024808301926020929190829003018186803b158015611f5157600080fd5b505afa158015611f65573d6000803e3d6000fd5b505050506040513d6020811015611f7b57600080fd5b5051600080611c40565b610101546001600160a01b031681565b6101005481565b60ff546001600160a01b031681565b610101546001600160a01b03163314610dc6576040805162461bcd60e51b815260206004820152600e60248201526d37b7363ca1b7b73a3937b63632b960911b604482015290519081900360640190fd5b604080516001600160a01b038416602482015260448082018490528251808303909101815260649091019091526020810180516001600160e01b031663a9059cbb60e01b17905261204e908490612a45565b505050565b3390565b6001600160a01b03831661209c5760405162461bcd60e51b81526004018080602001828103825260248152602001806135a06024913960400191505060405180910390fd5b6001600160a01b0382166120e15760405162461bcd60e51b815260040180806020018281038252602281526020018061347b6022913960400191505060405180910390fd5b6001600160a01b03808416600081815260346020908152604080832094871680845294825291829020859055815185815291517f8c5be1e5ebec7d5bd14f71427d1e84f3dd0314c0f7b2291e5b200ac8c7c3b9259281900390910190a3505050565b6065546001600160a01b03163314610dc6576040805162461bcd60e51b815260206004820152600e60248201526d6f6e6c79476f7665726e616e636560901b604482015290519081900360640190fd5b33600090815261010260205260409020544311610dc6576040805162461bcd60e51b815260206004820152600b60248201526a189b1bd8dad31bd8dad95960aa1b604482015290519081900360640190fd5b60006121f2848484612af6565b61225d846121fe612053565b610db185604051806060016040528060288152602001613512602891396001600160a01b038a1660009081526034602052604081209061223c612053565b6001600160a01b03168152602081019190915260400160002054919061299a565b5060019392505050565b336000908152609a602052604081205460ff168061228457503332145b610b66576040805162461bcd60e51b815260206004820152601860248201527f4163636573732064656e69656420666f722063616c6c65720000000000000000604482015290519081900360640190fd5b6001600160a01b0316600090815261010260205260409020439055565b600061230b6122ff610bf8565b610ecc846117e4611ada565b90506123173383612c53565b60ff54604080516370a0823160e01b815230600482015290516000926001600160a01b0316916370a08231916024808301926020929190829003018186803b15801561236257600080fd5b505afa158015612376573d6000803e3d6000fd5b505050506040513d602081101561238c57600080fd5b50519050818110156124b95760006123a48383612d4f565b6101015460ff546040805163f3fef3a360e01b81526001600160a01b03928316600482015260248101859052905193945091169163f3fef3a39160448082019260009290919082900301818387803b1580156123ff57600080fd5b505af1158015612413573d6000803e3d6000fd5b505060ff54604080516370a0823160e01b81523060048201529051600094506001600160a01b0390921692506370a08231916024808301926020929190829003018186803b15801561246457600080fd5b505afa158015612478573d6000803e3d6000fd5b505050506040513d602081101561248e57600080fd5b50519050600061249e8285612d4f565b9050828110156124b5576124b28482612602565b94505b5050505b60ff5461204e906001600160a01b03163384611ffc565b610104546001600160a01b0316156125f95761010454604051631a9ee26f60e01b81523360048201818152602483018690526060604484019081528551606485015285516001600160a01b0390951694631a9ee26f948893889390929091608401906020808601910280838360005b8381101561255757818101518382015260200161253f565b5050505090500194505050505060206040518083038186803b15801561257c57600080fd5b505afa158015612590573d6000803e3d6000fd5b505050506040513d60208110156125a657600080fd5b50516125f9576040805162461bcd60e51b815260206004820152601860248201527f67756573742d6c6973742d617574686f72697a6174696f6e0000000000000000604482015290519081900360640190fd5b610ace82612d91565b600082820183811015611a9a576040805162461bcd60e51b815260206004820152601b60248201527f536166654d6174683a206164646974696f6e206f766572666c6f770000000000604482015290519081900360640190fd5b60cd5460ff166126aa576040805162461bcd60e51b815260206004820152601460248201527314185d5cd8589b194e881b9bdd081c185d5cd95960621b604482015290519081900360640190fd5b60cd805460ff191690557f5db9ee0a495bf2e6ff9c91a7834c1ba4fdd244a5e8aa4e537bd38aeae4b073aa6126dd612053565b604080516001600160a01b039092168252519081900360200190a1565b60008261270957506000610b81565b8282028284828161271657fe5b0414611a9a5760405162461bcd60e51b81526004018080602001828103825260218152602001806134f16021913960400191505060405180910390fd5b6000611a9a83836040518060400160405280601a81526020017f536166654d6174683a206469766973696f6e206279207a65726f000000000000815250612ef0565b6067546001600160a01b03163314806127b857506065546001600160a01b031633145b610dc6576040805162461bcd60e51b81526020600482015260146024820152736f6e6c79417574686f72697a65644163746f727360601b604482015290519081900360640190fd5b303b1590565b600054610100900460ff168061281f575061281f612800565b8061282d575060005460ff16155b6128685760405162461bcd60e51b815260040180806020018281038252602e8152602001806134c3602e913960400191505060405180910390fd5b600054610100900460ff16158015612893576000805460ff1961ff0019909116610100171660011790555b61289b612f55565b6128a58383612ff6565b801561204e576000805461ff0019169055505050565b60cd5460ff1615612901576040805162461bcd60e51b81526020600482015260106024820152600080516020613580833981519152604482015290519081900360640190fd5b60cd805460ff191660011790557f62e78cea01bee320cd4e420270b5ea74000d11b0c9f74754ebdbfc544b05a2586126dd612053565b610103546001600160a01b031633148061295b57506065546001600160a01b031633145b610dc6576040805162461bcd60e51b815260206004820152600b60248201526a6f6e6c795061757365727360a81b604482015290519081900360640190fd5b60008184841115612a295760405162461bcd60e51b81526004018080602001828103825283818151815260200191508051906020019080838360005b838110156129ee5781810151838201526020016129d6565b50505050905090810190601f168015612a1b5780820380516001836020036101000a031916815260200191505b509250505060405180910390fd5b505050900390565b6000610b7d612a3e612053565b8484612af6565b6060612a9a826040518060400160405280602081526020017f5361666545524332303a206c6f772d6c6576656c2063616c6c206661696c6564815250856001600160a01b03166130ce9092919063ffffffff16565b80519091501561204e57808060200190516020811015612ab957600080fd5b505161204e5760405162461bcd60e51b815260040180806020018281038252602a8152602001806135c4602a913960400191505060405180910390fd5b6001600160a01b038316612b3b5760405162461bcd60e51b815260040180806020018281038252602581526020018061355b6025913960400191505060405180910390fd5b6001600160a01b038216612b805760405162461bcd60e51b81526004018080602001828103825260238152602001806134366023913960400191505060405180910390fd5b612b8b83838361204e565b612bc88160405180606001604052806026815260200161349d602691396001600160a01b038616600090815260336020526040902054919061299a565b6001600160a01b038085166000908152603360205260408082209390935590841681522054612bf79082612602565b6001600160a01b0380841660008181526033602090815260409182902094909455805185815290519193928716927fddf252ad1be2c89b69c2b068fc378daa952ba7f163c4a11628f55a4df523b3ef92918290030190a3505050565b6001600160a01b038216612c985760405162461bcd60e51b815260040180806020018281038252602181526020018061353a6021913960400191505060405180910390fd5b612ca48260008361204e565b612ce181604051806060016040528060228152602001613459602291396001600160a01b038516600090815260336020526040902054919061299a565b6001600160a01b038316600090815260336020526040902055603554612d079082612d4f565b6035556040805182815290516000916001600160a01b038516917fddf252ad1be2c89b69c2b068fc378daa952ba7f163c4a11628f55a4df523b3ef9181900360200190a35050565b6000611a9a83836040518060400160405280601e81526020017f536166654d6174683a207375627472616374696f6e206f766572666c6f77000081525061299a565b6000612d9b611ada565b60ff54604080516370a0823160e01b815230600482015290519293506000926001600160a01b03909216916370a0823191602480820192602092909190829003018186803b158015612dec57600080fd5b505afa158015612e00573d6000803e3d6000fd5b505050506040513d6020811015612e1657600080fd5b505160ff54909150612e33906001600160a01b03163330866130dd565b60ff54604080516370a0823160e01b815230600482015290516000926001600160a01b0316916370a08231916024808301926020929190829003018186803b158015612e7e57600080fd5b505afa158015612e92573d6000803e3d6000fd5b505050506040513d6020811015612ea857600080fd5b50519050612eb68183612d4f565b93506000612ec2610bf8565b612ecd575083612ee6565b612ee384610ecc612edc610bf8565b88906126fa565b90505b611e5e338261313d565b60008183612f3f5760405162461bcd60e51b81526020600482018181528351602484015283519092839260449091019190850190808383600083156129ee5781810151838201526020016129d6565b506000838581612f4b57fe5b0495945050505050565b600054610100900460ff1680612f6e5750612f6e612800565b80612f7c575060005460ff16155b612fb75760405162461bcd60e51b815260040180806020018281038252602e8152602001806134c3602e913960400191505060405180910390fd5b600054610100900460ff16158015612fe2576000805460ff1961ff0019909116610100171660011790555b8015610ced576000805461ff001916905550565b600054610100900460ff168061300f575061300f612800565b8061301d575060005460ff16155b6130585760405162461bcd60e51b815260040180806020018281038252602e8152602001806134c3602e913960400191505060405180910390fd5b600054610100900460ff16158015613083576000805460ff1961ff0019909116610100171660011790555b82516130969060369060208601906133a2565b5081516130aa9060379060208501906133a2565b506038805460ff19166012179055801561204e576000805461ff0019169055505050565b6060610c69848460008561322f565b604080516001600160a01b0380861660248301528416604482015260648082018490528251808303909101815260849091019091526020810180516001600160e01b03166323b872dd60e01b179052613137908590612a45565b50505050565b6001600160a01b038216613198576040805162461bcd60e51b815260206004820152601f60248201527f45524332303a206d696e7420746f20746865207a65726f206164647265737300604482015290519081900360640190fd5b6131a46000838361204e565b6035546131b19082612602565b6035556001600160a01b0382166000908152603360205260409020546131d79082612602565b6001600160a01b03831660008181526033602090815260408083209490945583518581529351929391927fddf252ad1be2c89b69c2b068fc378daa952ba7f163c4a11628f55a4df523b3ef9281900390910190a35050565b606061323a8561339c565b61328b576040805162461bcd60e51b815260206004820152601d60248201527f416464726573733a2063616c6c20746f206e6f6e2d636f6e7472616374000000604482015290519081900360640190fd5b60006060866001600160a01b031685876040518082805190602001908083835b602083106132ca5780518252601f1990920191602091820191016132ab565b6001836020036101000a03801982511681845116808217855250505050505090500191505060006040518083038185875af1925050503d806000811461332c576040519150601f19603f3d011682016040523d82523d6000602084013e613331565b606091505b50915091508115613345579150610c699050565b8051156133555780518082602001fd5b60405162461bcd60e51b81526020600482018181528651602484015286518793919283926044019190850190808383600083156129ee5781810151838201526020016129d6565b3b151590565b828054600181600116156101000203166002900490600052602060002090601f016020900481019282601f106133e357805160ff1916838001178555613410565b82800160010185558215613410579182015b828111156134105782518255916020019190600101906133f5565b5061341c929150613420565b5090565b5b8082111561341c576000815560010161342156fe45524332303a207472616e7366657220746f20746865207a65726f206164647265737345524332303a206275726e20616d6f756e7420657863656564732062616c616e636545524332303a20617070726f766520746f20746865207a65726f206164647265737345524332303a207472616e7366657220616d6f756e7420657863656564732062616c616e6365496e697469616c697a61626c653a20636f6e747261637420697320616c726561647920696e697469616c697a6564536166654d6174683a206d756c7469706c69636174696f6e206f766572666c6f7745524332303a207472616e7366657220616d6f756e74206578636565647320616c6c6f77616e636545524332303a206275726e2066726f6d20746865207a65726f206164647265737345524332303a207472616e736665722066726f6d20746865207a65726f20616464726573735061757361626c653a207061757365640000000000000000000000000000000045524332303a20617070726f76652066726f6d20746865207a65726f20616464726573735361666545524332303a204552433230206f7065726174696f6e20646964206e6f74207375636365656445524332303a2064656372656173656420616c6c6f77616e63652062656c6f77207a65726fa264697066735822122080d01def9838e63a66490931c6447f7108dadb6d6462115e6362183c38705c6464736f6c634300060c0033",
  "linkReferences": {},
  "deployedLinkReferences": {}
}